:020000040800F2
:100000000000082485170008C10C0008C90C00086E
:10001000D10C0008D90C0008E10C00080000000019
:10002000000000000000000000000000E90C0008D3
:10003000F70C000800000000050D0008130D000873
:10004000D5170008D5170008D5170008D5170008E0
:10005000D5170008D5170008D5170008D5170008D0
:10006000D5170008D5170008D5170008D5170008C0
:10007000D5170008D5170008D5170008D5170008B0
:10008000D5170008D5170008D5170008D5170008A0
:10009000D5170008D5170008D5170008D517000890
:1000A000D5170008D5170008D5170008D517000880
:1000B000D5170008D5170008D5170008D517000870
:1000C000D5170008D5170008D5170008D517000860
:1000D000D5170008D5170008D5170008D517000850
:1000E000D5170008D517000800000000D517000834
:1000F000D5170008D5170008D5170008D517000830
:10010000D5170008D5170008D5170008D51700081F
:10011000D5170008D5170008D5170008D51700080F
:10012000D5170008D5170008D5170008D5170008FF
:10013000D5170008210D0008D5170008D5170008AD
:1001400000000000000000000000000000000000AF
:10015000D5170008D5170008D5170008D5170008CF
:10016000D5170008D5170008D5170008D5170008BF
:10017000D5170008D5170008D5170008D5170008AF
:10018000D5170008D5170008D5170008D51700089F
:10019000D5170008D5170008D5170008D51700088F
:1001A000D5170008D5170008D5170008D51700087F
:1001B000D5170008D5170008D5170008D51700086F
:1001C000D5170008D5170008D5170008D51700085F
:1001D000D5170008D5170008D5170008D51700084F
:1001E000D5170008D5170008D5170008D51700083F
:1001F000D5170008D5170008D5170008D51700082F
:10020000D5170008D5170008D5170008D51700081E
:10021000D5170008D5170008D5170008D51700080E
:10022000D5170008D5170008D517000800000000F2
:10023000D5170008D517000800000000D5170008E2
:10024000D5170008D5170008D5170008D5170008DE
:10025000D5170008D5170008D5170008D5170008CE
:10026000D5170008D5170008D5170008D5170008BE
:10027000D5170008D5170008D517000800000000A2
:10028000D5170008D5170008D51700080000000092
:0802900000000000D517000872
:1002A00010B5054C237833B9044B13B10448AFF3B0
:1002B00000800123237010BDD44A002400000000F8
:1002C0009053010808B5034B1BB103490348AFF332
:1002D000008008BD00000000D84A002490530108A7
:1002E00001F0FF01102A2BDB10F0070F08D010F8E7
:1002F000013B013A8B422DD010F0070F42B3F6D1EB
:10030000F0B441EA012141EA014122F007047FF003
:1003100000070023F0E80256083C85EA010586EA5A
:10032000010685FA47F5A3FA87F586FA47F6A5FA96
:1003300087F68EB9EED1F0BC01F0FF0102F00702A2
:1003400032B110F8013B013A83EA010313B1F8D14D
:100350000020704701387047002D06BF354603382E
:10036000073815F0010F07D1013015F4807F02BF67
:10037000013015F4C03F0130F0BC0138704700BFB8
:1003800053B94AB9002908BF00281CBF4FF0FF31FC
:100390004FF0FF3000F06AB9ADF1080C6DE904CE02
:1003A00000F006F8DDF804E0DDE9022304B0704750
:1003B0002DE9F047089D0C46002B4ED194468C4504
:1003C0008646B2FA82F262D94AB1C2F12003914064
:1003D00020FA03F30CFA02FC194300FA02FE4FEA7A
:1003E0001C471FFA8CF6B1FBF7F44FEA1E4307FBDC
:1003F000141143EA014304FB06F199420AD91CEBAC
:10040000030304F1FF3080F01281994240F20F8122
:10041000023C6344591A1FFA8EF3B1FBF7F007FB55
:10042000101143EA014300FB06F69E420AD91CEB79
:10043000030300F1FF3180F0FC809E4240F2F9801E
:10044000634402389B1B40EA044000211DB1D340A5
:100450000022C5E90032BDE8F0878B4205D90DB115
:10046000C5E9000100210846F5E7B3FA83F1002948
:1004700046D1A34202D39042C0F0F080861A64EBCA
:1004800003030120002DE6D0C5E90063E3E7002A5D
:1004900040F09080A1EB0C044FEA1C481FFA8CF747
:1004A0000121B4FBF8F64FEA1E4308FB164443EA69
:1004B000044307FB06F0984208D91CEB030306F13E
:1004C000FF3402D2984200F2CD8026461C1A1FFA51
:1004D0008EF3B4FBF8F008FB104443EA044300FB3E
:1004E00007F79F4208D91CEB030300F1FF3402D247
:1004F0009F4200F2B0802046DB1B40EA0640A5E7A1
:10050000C1F120068B4022FA06F71F4320FA06FCB1
:1005100004FA01F343EA0C03F44000FA01F8380C42
:100520004FEA1349B4FBF0FE1FFA87FC00FB1E44A0
:1005300049EA04440EFB0CF9A14502FA01F20AD97A
:100540003C190EF1FF3A80F08480A14540F2818091
:10055000AEF1020E3C44A4EB09041FFA83F9B4FB8C
:10056000F0F300FB134449EA044403FB0CFCA445EC
:1005700007D93C1903F1FF3067D2A44565D9023B86
:100580003C4443EA0E40A0FB0293A4EB0C049C42C3
:10059000CE469C4651D34ED055B1B8EB0E0364EB1A
:1005A0000C0404FA06F6CB401E43CC40C5E90064B7
:1005B000002150E7C2F1200320FA03F10CFA02FCFB
:1005C00024FA03F394400C434FEA1C4800FA02FE5D
:1005D0001FFA8CF7B3FBF8F008FB1031230C43EA49
:1005E000014300FB07F1994208D91CEB030300F11A
:1005F000FF362CD299422AD9023863445B1AA4B23E
:10060000B3FBF8F108FB113344EA034401FB07F3A1
:10061000A34208D91CEB040401F1FF3613D2A34214
:1006200011D902396444E41A41EA004139E7044629
:10063000F0E6084606E7C845AED2B9EB020E63EB1A
:10064000070C0138A8E73146EDE7034699E7304645
:10065000D4E7D6467FE7634402384DE70646234693
:1006600008460FE7023E634430E700BF704700BF13
:100670002DE9B04F84B000AF01F03CFA00F040F833
:1006800000F03CF900F0BCF800F006F900F01CFCAA
:1006900001F0B6FA034600223B607A60D7E90023F6
:1006A000C7E9022300F062FC01F0AAFA0346002227
:1006B00098469146D7E90223B8EB020469EB03059B
:1006C000C92C75F10003EDD301210A4803F011FB99
:1006D00001F096FA034600229A469346C7E902AB18
:1006E000054B5B68002BDDD001220221034803F09B
:1006F000E7FAD7E7000402587050002400100258AF
:1007000080B59CB000AF07F124034C2200211846AD
:1007100013F099FF3B1D20220021184613F093FF90
:10072000022003F031FC00233B60334BDB6A324A8A
:1007300023F00103D362304BDB6A03F001033B601B
:100740002E4B9B6923F440432C4A43F400439361AE
:100750002A4B9B6903F440433B603B6800BF274B37
:100760009B6903F40053B3F5005FF8D103237B6268
:100770004FF4A023BB6201233B6340237B6302232E
:10078000BB640223FB6401233B6518237B650223C2
:10079000BB650423FB6502233B660C237B660023B9
:1007A000BB660023FB6607F12403184603F036FC02
:1007B0000346002B01D000F07DF93F237B6000232E
:1007C000BB600023FB6000233B6100237B610023AF
:1007D000BB610023FB6100233B623B1D01211846E6
:1007E00004F076F80346002B01D000F063F900BF57
:1007F0007037BD4680BD00BF000400580048025855
:1008000080B500AF224B234A1A60214B4FF4E132EE
:100810005A601F4B00229A601D4B0022DA601C4B6D
:1008200000221A611A4B0C225A61194B00229A615C
:10083000174B0022DA61164B00221A62144B002279
:100840005A62134B00229A62114806F0F9F90346E6
:10085000002B01D000F02EF900210D4807F001FA1D
:100860000346002B01D000F025F90021084807F0CD
:1008700036FA0346002B01D000F01CF9044807F0BB
:10088000B7F90346002B01D000F014F900BF80BD7A
:10089000F04A00240048004080B500AF154B164ACE
:1008A0001A60144B09221A71124B0222DA71114B91
:1008B00000229A710F4B02225A720E4B01229A7239
:1008C0000C4B0022DA720B4B00221A73094B0122E7
:1008D0005A73084B01229A73064B0022DA730548BB
:1008E00003F021FA0346002B01D000F0E3F800BF2B
:1008F00080BD00BF844B00240000084080B58CB050
:1009000000AF07F11C0300221A605A609A60DA6097
:100910001A61624BD3F8E030604A43F00403C2F836
:10092000E0305E4BD3F8E03003F00403BB61BB69F9
:100930005A4BD3F8E030594A43F08003C2F8E03014
:10094000564BD3F8E03003F080037B617B69534B57
:10095000D3F8E030514A43F00103C2F8E0304F4B86
:10096000D3F8E03003F001033B613B694B4BD3F814
:10097000E0304A4A43F00203C2F8E030474BD3F874
:10098000E03003F00203FB60FB68444BD3F8E03037
:10099000424A43F00803C2F8E030404BD3F8E0305D
:1009A00003F00803BB60BB683C4BD3F8E0303B4A24
:1009B00043F04003C2F8E030384BD3F8E03003F0A6
:1009C00040037B607B68354BD3F8E030334A43F01B
:1009D0001003C2F8E030314BD3F8E03003F01003DD
:1009E0003B603B68002244F201012D4803F068F9A6
:1009F00000224FF480612B4803F062F900220221AB
:100A0000294803F05DF94FF40053FB6100233B627A
:100A100000237B6207F11C031946244802F0A0FF63
:100A200044F20103FB6101233B6200237B6200234C
:100A3000BB6207F11C031946194802F091FF4FF4FD
:100A40008063FB6101233B6200237B620023BB6266
:100A500007F11C031946134802F082FF8023FB6153
:100A60004FF488133B6200237B6207F11C03194695
:100A70000F4802F075FF0223FB6101233B62002354
:100A80007B620023BB6207F11C031946064802F093
:100A900067FF00BF3037BD4680BD00BF004402582D
:100AA00000040258000C02580010025800080258B6
:100AB0000018025880B400AF72B600BF00BFFDE757
:100AC00080B483B000AF0A4BD3F8F430084A43F047
:100AD0000203C2F8F430064BD3F8F43003F00203FB
:100AE0007B607B6800BF0C37BD465DF8047B7047B8
:100AF0000044025880B5BAB000AF786007F1D40363
:100B000000221A605A609A60DA601A6107F11003D5
:100B1000C0220021184613F096FD7B681B68274A07
:100B2000934246D14FF002024FF00003C7E904237D
:100B30000023C7F8883007F11003184604F054FA70
:100B40000346002B01D0FFF7B5FF1D4BD3F8E8306B
:100B50001B4A43F48023C2F8E830194BD3F8E8303D
:100B600003F48023FB60FB68154BD3F8E030144A94
:100B700043F00803C2F8E030114BD3F8E03003F043
:100B80000803BB60BB684FF44073C7F8D43002233E
:100B9000C7F8D8300023C7F8DC300023C7F8E030AE
:100BA0000723C7F8E43007F1D4031946054802F0DB
:100BB000D7FE00BFE837BD4680BD00BF00480040FB
:100BC00000440258000C025880B5BAB000AF7860FB
:100BD00007F1D40300221A605A609A60DA601A6141
:100BE00007F11003C0220021184613F02CFD7B688A
:100BF0001B68304A934259D14FF480224FF00003D2
:100C0000C7E904234FF48013C7F8983007F11003A5
:100C1000184604F0E9F90346002B01D0FFF74AFF1C
:100C200003F0ECF9244BD3F8E030234A43F00103FE
:100C3000C2F8E030204BD3F8E03003F00103FB6052
:100C4000FB684FF4C853C7F8D4300223C7F8D83034
:100C50000023C7F8DC300023C7F8E0300A23C7F8C8
:100C6000E43007F1D4031946144802F079FE4FF43A
:100C70000073C7F8D4300023C7F8D8300023C7F872
:100C8000DC3007F1D40319460C4802F069FE0A4B28
:100C9000D3F8D830084A43F00063C2F8D830064B86
:100CA000D3F8D83003F00063BB60BB6800BFE837FF
:100CB000BD4680BD000008400044025800000258B4
:100CC00080B400AF00BFFDE780B400AF00BFFDE718
:100CD00080B400AF00BFFDE780B400AF00BFFDE708
:100CE00080B400AF00BFFDE780B400AF00BFBD46D9
:100CF0005DF8047B704780B400AF00BFBD465DF86F
:100D0000047B704780B400AF00BFBD465DF8047B34
:100D1000704780B500AF00F05FFF00BF80BD0000EE
:100D200080B500AF024801F083FC00BF80BD00BF6A
:100D3000BC50002480B400AF01231846BD465DF8C6
:100D4000047B704780B483B000AF78603960054B96
:100D500016221A604FF0FF3318460C37BD465DF877
:100D6000047B7047D483002480B582B000AF7860E4
:100D70004FF0FF317868FFF7E5FF00BFFDE780B572
:100D800086B000AFF860B9607A6000237B610AE04A
:100D9000AFF300800146BB685A1CBA60CAB21A7031
:100DA0007B6901337B617A697B689A42F0DB7B68FF
:100DB00018461837BD4680BD80B586B000AFF860D4
:100DC000B9607A6000237B6109E0BB685A1CBA6095
:100DD0001B781846AFF300807B6901337B617A6929
:100DE0007B689A42F1DB7B6818461837BD4680BDA8
:100DF00080B483B000AF78604FF0FF3318460C37F3
:100E0000BD465DF8047B704780B483B000AF786066
:100E100039603B684FF400525A60002318460C3783
:100E2000BD465DF8047B704780B483B000AF786046
:100E3000012318460C37BD465DF8047B704780B42B
:100E400085B000AFF860B9607A60002318461437A7
:100E5000BD465DF8047B704780B487B000AF786012
:100E6000144A154BD31A7B617B693B61134B1B689A
:100E7000002B02D1114B124A1A60104B1A687B6882
:100E800013443A699A4205D20E4B0C221A604FF075
:100E9000FF3309E0094B1B68FB60084B1A687B684D
:100EA0001344064A1360FB6818461C37BD465DF8BC
:100EB000047B7047000008240004000068500024F0
:100EC000E8830024D483002480B584B004AF0AF002
:100ED000EDFB124B00221A60114B00221A60114BDD
:100EE00000221A60104B0293104B019300230093D1
:100EF0000C4B0B4A09490E480CF0F4F90C480CF065
:100F0000ABFB0B480CF0B8FB0A4909480CF0BAFCE3
:100F1000074807F025FE00BFBD4680BDA85000244D
:100F2000AC500024B050002421B000085512000835
:100F300070500024890F000880B582B000AF78603F
:100F400000F05EFE0246084B1B68D31A632B07D9DC
:100F500000F056FE0346044A1360786800F0EEFA8B
:100F600000BF0837BD4680BD6C50002480B500AF7F
:100F7000044800F04FF912F003FD0248FFF7DCFFD0
:100F800000BF80BD7050002480B483B000AF786093
:100F900000BF0C37BD465DF8047B704780B584B058
:100FA00000AF78600023FB73444B454A1A6000236E
:100FB0003B7280237B72E123BB720023FB72002310
:100FC0003B7300237B733D4A07F1080353603B4B9F
:100FD00001221A72394B3B4ADA60384B3A4A1A619D
:100FE000364B40F2F4525A61344800F069FF034630
:100FF000FB7338220021354813F025FB334B2122A7
:101000001A60324B4FF440325A61304B00221A6161
:101010002F480CF02FF87B68062283F83020274BEE
:101020005B681A787B6883F82A20244B5B685A78BF
:101030007B6883F82B20214B5B689A787B6883F868
:101040002C201E4B5B68DA787B6883F82D201B4BC5
:101050005B681A797B6883F82E20184B5B685A7995
:101060007B6883F82F207B6840F2DC521A857B680E
:1010700093F8313043F00A03DAB27B6883F8312009
:101080001449154800F0A7FB134800F0D6FB0346AF
:10109000002B06D078680CF0C5FB78680CF058FB84
:1010A00008E0FB7B002B03D1786800F047FA01E0F1
:1010B000FFF700FD1037BD4680BD00BFBC500024C7
:1010C00000800240744A0024144A00246C51002419
:1010D000BC82010800000024A451002480B592B015
:1010E00000AF7860396000237B6400233B640023F9
:1010F00087F83F3007F10C0330220021184613F027
:10110000A2FA07F10C0330220021184613F09BFAD3
:101110003B683B6445E07B6C032B02D96FF00B030B
:1011200055E03B6C59687A6C13465B0013449B0096
:1011300048333B443C3B19603B6C5B8919467A6CF5
:1011400013465B0013449B0048333B44383B196013
:101150007B6C002B11D07B6C5A1E07F10C00796C54
:101160000B465B000B449B00C11813465B00134405
:101170009B0048333B44343B19603B6C1B68002B9D
:1011800009D17A6C13465B0013449B0048333B44FF
:10119000343B00221A607B6C01337B643B6C1B6820
:1011A0003B643B6C002BB6D13B681B891A460A4B4B
:1011B0005A60094A07F10C039360074A3B6853637E
:1011C00014220549054801F065F897F93F301846A3
:1011D0004837BD4680BD00BF6C510024BC50002480
:1011E00080B584B000AF78600023FB60074B1B78AC
:1011F000002B05D107F10C031946054801F0E1F871
:10120000FB6818461037BD4680BD00BFB8500024AB
:10121000BC50002480B584B000AF78600023FB6030
:101220007868FFF7DDFFF860FB68002B0AD07B6869
:101230001B697968F86898470346002B02D0F86864
:101240000CF0A0FEFB68002BEAD100BF00BF1037F6
:10125000BD4680BD80B582B000AF78607B68002B52
:1012600006D10E4B40F28B120D490E4813F086F951
:101270007B68732283F832207B68742283F83320E2
:101280007B68094A5A617B68084A9A617868FFF767
:1012900085FE002318460837BD4680BDA8530108C7
:1012A000E0530108F053010821AA0008DD100008EE
:1012B00080B584B000AF78607B68FB60F968074850
:1012C0000BF0BAFF064B1B78012B02D1044B002216
:1012D0001A7000BF1037BD4680BD00BFBC82010838
:1012E000B850002480B500AF00F08AFC03461846D1
:1012F00080BD000080B58EB000AF786007F1240398
:1013000000221A605A609A60DA601A617B681B6872
:101310005D4A934240F0B3805C4BD3F8D8305B4ACF
:1013200043F40043C2F8D830584BD3F8D83003F414
:1013300000433B623B6A554BD3F8D830534A43F4E1
:101340008033C2F8D830514BD3F8D83003F480330F
:10135000FB61FB694D4BD3F8D8304C4A43F4003362
:10136000C2F8D830494BD3F8D83003F40033BB610E
:10137000BB69464BD3F8E030444A43F00403C2F85B
:10138000E030424BD3F8E03003F004037B617B692B
:101390003E4BD3F8E0303D4A43F00103C2F8E03061
:1013A0003A4BD3F8E03003F001033B613B69374B24
:1013B000D3F8E030354A43F00203C2F8E030334B53
:1013C000D3F8E03003F00203FB60FB682F4BD3F847
:1013D000E0302E4A43F04003C2F8E0302B4BD3F804
:1013E000E03003F04003BB60BB6832237B62022322
:1013F000BB620023FB6200233B630B237B6307F18B
:1014000024031946224802F0ABFA86237B620223AA
:10141000BB620023FB6200233B630B237B6307F16A
:10142000240319461B4802F09BFA4FF400537B62D9
:101430000223BB620023FB6200233B630B237B631D
:1014400007F124031946144802F08AFA4FF4205396
:101450007B620223BB620023FB6200233B630B23FE
:101460007B6307F1240319460C4802F079FA002245
:1014700000213D2000F0EFFC3D2000F006FD00BF04
:101480003837BD4680BD00BF00800240004402588E
:1014900000080258000002580004025800180258C0
:1014A00080B500AF024801F089FC0023184680BDDA
:1014B000BC50002480B400AF00231846BD465DF840
:1014C000047B704780B584B000AFF860B9607A6083
:1014D0007B68BA68F968074801F0DAF90346002B1F
:1014E00002D04FF0FF3300E0002318461037BD460E
:1014F00080BD00BFBC50002480B584B000AFF86050
:10150000B9607A607B68BA68F968074801F014FA34
:101510000346002B02D04FF0FF3300E000231846B3
:101520001037BD4680BD00BFBC50002480B500AF61
:1015300000F066FB0346184680BD000080B5A0B0F1
:1015400000AF786007F10C0364220021184613F005
:101550007AF800233B670023FB670023BB67002367
:101560007B673A4800F0B6F938677B6893F831300A
:101570009B0803F00103DBB2002B0CD03B6F012B67
:1015800009DC334800F00EFE78680CF0E1F878686A
:101590000CF048F955E07B6893F8313003F0040310
:1015A000002B4ED13B6F012B4BDD3B6F023B032BDE
:1015B0002AD801A252F823F0C9150008DB1500084B
:1015C000EB150008FB1500084FF400537B674FF440
:1015D0008043BB670123FB6717E000237B674FF461
:1015E0008043BB670123FB670FE04FF400537B6729
:1015F0000023BB670123FB6707E000237B67002311
:10160000BB670123FB6700E000BFFB6F002B18D016
:1016100007F10C0319460E4801F0E2F97B6F7B627B
:10162000BB6F3B6207F10C031946094801F0ACFBA4
:10163000074800F043FD78680CF01EF878680CF05D
:10164000B9F800BF8037BD4680BD00BFA45100245B
:10165000BC50002480B586B002AF786012480BF011
:101660007DFDF860FB68002B14D0FB6803F12002BD
:101670007B681A60FB680D4A1A617B681B6840F240
:10168000F45201920093FB684122002100200CF0EB
:10169000BFFA05E0064B01221A707B6800221A602F
:1016A00000BF1037BD4680BDBC820108B1120008E2
:1016B000B850002480B48DB000AFF860B9607A6093
:1016C0007B80FB68BB62BB687B620023FB627B683C
:1016D000203BFB62FB6A00221A60FB6A00221A812F
:1016E000FB6A7A885A81BB6A1B68002B03D1BB6AEC
:1016F000FA6A1A6003E07B6A1B68FA6A1A607B6AFE
:10170000FA6A1A60BB6A1B68FB6209E0FB6A1A8905
:101710007B8813449AB2FB6A1A81FB6A1B68FB62DE
:10172000FB6A002BF2D17B887A683A62FB61FB6925
:10173000002B1DDD3B6A03F01F02FB691344BB61F4
:101740003B6A7B61BFF34F8F00BF0D4A7B69C2F8D4
:101750005C327B6920337B61BB69203BBB61BB6929
:10176000002BF2DCBFF34F8F00BFBFF36F8F00BFC2
:1017700000BF00BF3437BD465DF8047B704700BF33
:1017800000ED00E0DFF834D000F02CF90C480D49F2
:101790000D4A002302E0D458C4500433C4188C42CC
:1017A000F9D30A4A0A4C002301E013600432A24232
:1017B000FBD312F097FFFEF75BFF70470000082491
:1017C0000000002490000024E8840108D44A00248A
:1017D000E4830024FEE780B483B000AF7860396012
:1017E0007B68002B0BD03B68DB68002B07D03B6885
:1017F0009B68002B03D03B681B69002B02D14FF084
:10180000FF3314E03B681A687B689A603B685A684B
:101810007B68DA603B68DA687B685A613B689A6883
:101820007B681A613B681A697B689A6100231846D5
:101830000C37BD465DF8047B704780B586B000AFBD
:1018400078600023FB6000237B6100233B617B68A1
:101850005B68002B39D17B689B68002B02D07B68CA
:101860009B6898477B6820221A6000237B611CE0FC
:101870007B685B6907F10C0212217869984703467F
:10188000002B03DA6FF004033B610BE0FB6803F00D
:101890001F037A699A4205D17B687A691A6000232E
:1018A0003B6105E07B6901337B617B691F2BDFD9DD
:1018B0007B681B681F2B02D96FF002033B613B69F9
:1018C000002B02D17B6801225A603B691846183709
:1018D000BD4680BD80B584B000AF78600023FB605A
:1018E0007B685B697A68106807F10C0201219847F0
:1018F0000346002B02DA6FF004036EE07B685B693D
:101900007A68106807F10C02012198470346002B02
:1019100002DA6FF0040360E0FB6803F00403002BBD
:1019200001D1012359E07B685B697A68106807F18F
:101930000C02002198470346002B02DA6FF00403E3
:101940004BE0FB6803F48053002B1BD1FB6803F4CE
:101950000053002B06D0FB6803F48073002B01D0EA
:1019600002233AE0FB6803F40053002B01D0032369
:1019700033E0FB6803F48073002B01D004232CE0D8
:1019800005232AE07B685B697A68106807F10C021E
:101990001F2198470346002B02DA6FF004031CE076
:1019A000FB6803F48053002B01D1062315E0FB688C
:1019B00003F01C03182B01D102230EE0FB6803F097
:1019C0001C03082B01D1032307E0FB6803F01C0371
:1019D000142B01D1042300E0052318461037BD461F
:1019E00080BD000080B400AF374BD3F88830364A52
:1019F00043F47003C2F88830344B1B6803F00F03C4
:101A0000062B07D8314B1B6823F00F032F4A43F0F6
:101A1000070313602E4B1B682D4A43F0010313602C
:101A20002B4B00221A612A4B1A682949294B134073
:101A30000B60264B1B6803F00803002B07D0234BD9
:101A40001B6823F00F03214A43F007031360204B68
:101A500000229A611E4B0022DA611D4B00221A629D
:101A60001B4B1D4A9A621A4B1C4ADA62184B1C4ADD
:101A70001A63174B00225A63154B194A9A63144B89
:101A80000022DA63124B164A1A64114B00225A6480
:101A90000F4B1B680E4A23F4802313600C4B00226B
:101AA0001A66104B1A68104B1340B3F1005F02D254
:101AB0000E4B01221A600E4B43F2D2021A6000BF95
:101AC000BD465DF8047B704700ED00E00020005249
:101AD000004402587FEDF6EA000202020000FF0116
:101AE000800201010010005C0000FFFF088100512E
:101AF0000040005280B582B000AF032000F0A0F992
:101B000003F09CF80246154B9B691B0A03F00F0378
:101B10001349CB5C03F01F0322FA03F37B600F4BE6
:101B20009B6903F00F030E4AD35C03F01F037A682E
:101B300022FA03F30B4A13600B4A7B681360002000
:101B400000F014F80346002B01D0012302E0FEF759
:101B5000B7FF002318460837BD4680BD0044025831
:101B6000C8820108180000241400002480B582B047
:101B700000AF7860154B1B78002B01D1012321E0C9
:101B8000134B1A68114B1B7819464FF47A73B3FB49
:101B9000F1F3B2FBF3F3184600F085F90346002B8E
:101BA00001D001230EE07B680F2B0AD80022796850
:101BB0004FF0FF3000F04FF9064A7B6813600023B6
:101BC00000E0012318460837BD4680BD20000024F0
:101BD000140000241C00002480B400AF064B1B78C6
:101BE0001A46064B1B681344044A136000BFBD46E7
:101BF0005DF8047B704700BF20000024C45100241E
:101C000080B400AF034B1B681846BD465DF8047BEB
:101C1000704700BFC451002480B584B000AF786025
:101C2000FFF7EEFFB8607B68FB60FB68B3F1FF3F36
:101C300005D00A4B1B781A46FB681344FB6000BFB3
:101C4000FFF7DEFF0246BB68D31AFA689A42F7D85C
:101C500000BF00BF1037BD4680BD00BF200000247C
:101C600080B400AF034B1B681B0C1846BD465DF8E3
:101C7000047B70470010005C80B483B000AF7860D4
:101C8000064B5B6823F4600204497B6813434B6096
:101C900000BF0C37BD465DF8047B70470004005858
:101CA00080B485B000AF78607B6803F00703FB6009
:101CB0000B4BDB68BB60BA684FF6FF031340BB6099
:101CC000FB681A02BB681A43064B1343BB60044A05
:101CD000BB68D36000BF1437BD465DF8047B704716
:101CE00000ED00E00000FA0580B400AF044BDB68B3
:101CF0001B0A03F007031846BD465DF8047B7047D6
:101D000000ED00E080B483B000AF0346FB80B7F97C
:101D10000630002B0BDBFB8803F01F020749B7F9E5
:101D200006305B09012000FA02F241F8232000BFCF
:101D30000C37BD465DF8047B704700BF00E100E052
:101D400080B483B000AF03463960FB80B7F906303A
:101D5000002B0ADB3B68DAB20C49B7F906301201F6
:101D6000D2B20B4483F800230AE03B68DAB2084998
:101D7000FB8803F00F03043B1201D2B20B441A7626
:101D800000BF0C37BD465DF8047B704700E100E002
:101D900000ED00E080B489B000AFF860B9607A600F
:101DA000FB6803F00703FB61FB69C3F10703042B26
:101DB00028BF0423BB61FB690433062B02D9FB69EE
:101DC000033B00E000237B614FF0FF32BB6902FA66
:101DD00003F3DA43BB681A407B699A404FF0FF3146
:101DE0007B6901FA03F3D9437B680B401343184620
:101DF0002437BD465DF8047B7047000080B582B093
:101E000000AF78607B68013BB3F1807F01D3012391
:101E10000FE00A4A7B68013B53600F214FF0FF300F
:101E2000FFF78EFF054B00229A60044B07221A60D1
:101E3000002318460837BD4680BD00BF10E000E013
:101E400080B582B000AF78607868FFF729FF00BFE7
:101E50000837BD4680BD80B586B000AF0346B96087
:101E60007A60FB81FFF740FF78617A68B96878692A
:101E7000FFF790FF0246B7F90E3011461846FFF7FC
:101E80005FFF00BF1837BD4680BD80B582B000AF90
:101E90000346FB80B7F906301846FFF733FF00BF53
:101EA0000837BD4680BD80B582B000AF78607868E5
:101EB000FFF7A4FF034618460837BD4680BD000063
:101EC00080B584B000AF78607B68002B01D101231E
:101ED000E3E07B68D3F88430002B06D17B682322B3
:101EE000C3F884207868FFF705FA6E4BD3F8F43016
:101EF0006C4A43F00203C2F8F4306A4BD3F8F43072
:101F000003F00203BB60BB687B681B7A002B03D124
:101F10000020FFF7B1FE03E04FF40000FFF7ACFE36
:101F2000614B5B687B681B6803F580531B687A68AC
:101F3000126843F0010302F580521360FFF760FE60
:101F4000F86011E0FFF75CFE0246FB68D31AB3F5B8
:101F5000FA7F09D97B680422C3F888207B68E022D5
:101F6000C3F88420012398E07B681B6803F5805345
:101F70001B6803F00103002BE4D1786800F01EFF1A
:101F800002F0D6FF0346494AA2FB03239A0C7B6862
:101F90001B68013AC3F8DC20786801F001F97B681E
:101FA0001B6803F58053D3F8003123F4E0137A68FB
:101FB000126843F4002302F58052C2F800317B68B6
:101FC0005B6903F00303002B09D07B680122C3F88F
:101FD00088207B68E022C3F8842001235DE07B68D1
:101FE0001B6803F58053D3F80821314B13407A68FE
:101FF000526951007A6812680B4302F58052C2F8A8
:102000000831786801F069F9786801F0AFF97B6808
:102010005B6805331B781A027B685B6804331B78A6
:1020200019467B681B680A43C3F800237B685B681A
:1020300003331B781A067B685B6802331B781B042A
:102040001A437B685B6801331B781B021A437B6869
:102050005B681B7819467B681B680A43C3F8042336
:102060007B681B68D3F80C177B681A68114B0B430D
:10207000C2F80C377B681B68D3F810177B681A68A6
:102080000D4B0B43C2F810377B680022C3F8882041
:102090007B681022C3F88420002318461037BD4601
:1020A00080BD00BF004402580004005883DE1B437B
:1020B0000180FFFF6000020C00C0200C80B582B0E0
:1020C00000AF78607B68D3F88430102B65D17B68D3
:1020D0002322C3F884207B6801229A657B6804224E
:1020E000DA66786800F02AFA7B681B6803F580538B
:1020F000D3F804317A68126843F0010302F5805284
:10210000C2F804317B681B6803F58053D3F80831AB
:102110007A68126843F0010302F58052C2F8083170
:102120007B681B6803F58053D3F860317A681268C6
:1021300043F4817302F58052C2F860317B681B68FA
:10214000D3F8002D7B681B6842F00102C3F8002D14
:102150007B681B681A687B681B6842F002021A6081
:102160007B681B681A687B681B6842F001021A6072
:102170007B681B6803F58053D3F834117B681A68B9
:102180004DF2C1030B4302F58052C2F834317B6833
:102190002322C3F88420002300E0012318460837D7
:1021A000BD4680BD80B485B000AF78607B68D3F851
:1021B0008430232B65D17B682322C3F884207B687D
:1021C0001B6803F58053D3F834117B681A68304BD1
:1021D0000B4002F58052C2F834317B681B6803F56E
:1021E0008053D3F804317A68126823F0010302F5B2
:1021F0008052C2F804317B681B6803F58053D3F822
:1022000008317A68126823F0010302F58052C2F89F
:1022100008317B681B681A687B681B6822F0010222
:102220001A607B681B68D3F8002D7B681B6842F03E
:102230000102C3F8002D7B681B681A687B681B6865
:1022400022F002021A600023FB600EE07B68FA684D
:10225000123253F82230BB60BB68DB6823F0804247
:10226000BB68DA60FB680133FB60FB68032BEDD9C8
:102270007B6800229A657B681022C3F884200023C3
:1022800000E0012318461437BD465DF8047B704713
:102290003E2FFFFF80B586B000AFF860B9607A606E
:1022A000BB68002B09D1FB68D3F8883043F00102EA
:1022B000FB68C3F8882001237FE0FB68D3F88430F3
:1022C000232B79D10022B968F86801F0ADF80346F4
:1022D000002B09D0FB68D3F8883043F00202FB687A
:1022E000C3F88820012368E0BFF34F8F00BFFB686D
:1022F0009A6AFB68063253F822307B61FB689B6A5E
:102300005A1CFB689A62FB689B6A032B04D9FB6822
:102310009B6A1A1FFB689A62FB68996AFB681A68D5
:10232000FB68063153F8213002F58052C2F82031A3
:10233000FFF766FC386139E0FB681B6803F58053E2
:10234000D3F8603103F48053002B12D0FB68D3F82C
:10235000883043F00802FB68C3F88820FB681B68DC
:1023600003F58053D3F86021FB68C3F88C20012368
:1023700023E07B68B3F1FF3F18D0FFF741FC024632
:102380003B69D31A7A689A4202D37B68002B0DD13D
:10239000FB68D3F8883043F00402FB68C3F8882058
:1023A0007B694FF04052DA60012306E07B69DB680D
:1023B000002BC1DB002300E0012318461837BD467F
:1023C00080BD80B588B000AF7860396000237B6144
:1023D0000023FB743B68002B09D17B68D3F888305D
:1023E00043F001027B68C3F888200123A2E07B68E8
:1023F000D3F88430232B01D001239BE07B68DB6D75
:10240000FB617B68FA69123253F82230BB617B684A
:10241000DB6EC3F10403FB6064E0BB69DB6803F0BF
:102420008043002B07D0BB695A687B689A67BB69F9
:102430001A687B685A67BB69DB6803F00053002B9E
:1024400003D17B68DB6F002B3AD0BB69DB6803F0FC
:102450000053002B05D07B6800221A667B6800229F
:102460005A66BB69DB68C3F30E027B685B6ED31AE6
:10247000BB60BB69DB6803F08053002B05D0BB69F0
:10248000DA687B681A670123FB747B6803F17C00C0
:102490007B6803F18001BB691B691A46BB689BB26C
:1024A000FFF708F97B681B6E5A1C7B681A667B680D
:1024B0005A6EBB681A447B685A66BB6900221A616F
:1024C000FB690133FB61FB69032B02D9FB69043B08
:1024D000FB617B68FA69123253F82230BB617B6979
:1024E00001337B61BB69DB68002B06DB7A69FB6823
:1024F0009A4202D2FB7C002B8FD07B68DA6E7B691C
:102500001A447B68DA667B68DB6E002B02D0786841
:1025100000F014F87B68FA69DA65FB7C012B08D1BE
:102520007B68DA6F3B681A607B680022DA670023F9
:1025300000E0012318462037BD4680BD80B588B035
:1025400000AF78600023BB600123FB747B689B6E47
:10255000FB617B68FA69123253F822307B617B6839
:10256000DB6EBB6138E07B691B69002B12D107F180
:1025700008031846FFF76EF8BB68002B02D1002352
:10258000FB7407E0BB681A467B691A61BB681A4690
:102590007B691A60FB7C002B1ED07B689B6D002B37
:1025A00004D07B694FF04142DA6003E07B694FF071
:1025B0000142DA60FB690133FB61FB69032B02D93D
:1025C000FB69043BFB617B68FA69123253F82230E5
:1025D0007B61BB69013BBB61BB69002B02D0FB7C0B
:1025E000002BC0D17B68DB6EBA699A421BD0FB69B5
:1025F000013303F00303FB60BFF35F8F00BF7B6811
:102600001969FA6813465B001344DB00CA187B683B
:102610001B6803F58053C3F828217B68FA699A6622
:102620007B68BA69DA6600BF2037BD4680BD00000E
:1026300080B586B000AF78607B681B68D3F8B03097
:102640007B617B681B6803F58053D3F860313B6185
:102650007B681B6803F58053D3F83431FB606D4B06
:102660009B6ABB603B6903F04003002B10D0FB6802
:1026700003F04003002B0BD07B681B6803F58053ED
:102680001A4648F24003C2F86031786800F0CEF88C
:102690003B6903F00103002B10D0FB6803F001033A
:1026A000002B0BD07B681B6803F580531A4648F259
:1026B0000103C2F86031786800F0AEF83B6903F4BA
:1026C0008043002B47D0FB6803F48043002B42D0AB
:1026D0007B68D3F8883043F008027B68C3F8882011
:1026E0003B6903F48053002B1ED07B681B6803F505
:1026F0008053D3F8602141F2021313407A68C2F884
:102700008C307B681B6803F58053D3F834317A68CA
:10271000126823F4404302F58052C2F834317B68DA
:10272000E022C3F8842013E07B681B6803F5805324
:10273000D3F8603103F4CD427B68C3F88C207B680A
:102740001B6803F580531A464FF4CD43C2F860313D
:10275000786800F075F87B6903F48043002B04D19E
:102760007B6903F40053002B19D07B68D3F88830C1
:1027700043F010027B68C3F888207B681B68D3F89D
:10278000B8207B68C3F890207B68E022C3F88420DF
:10279000786800F055F87B680022C3F890207B69C8
:1027A00003F01003002B0FD07B681B68D3F8C030F8
:1027B00003F060027B68C3F89420786800F04AF860
:1027C0007B680022C3F894207B6903F02003002B70
:1027D0000FD07B681B68D3F8D03003F00F027B6802
:1027E000C3F89820786800F03FF87B680022C3F8AF
:1027F0009820BB6803F48003002B06D0054B4FF4F0
:1028000080029A62786800F039F800BF1837BD4638
:1028100080BD00BF8000005880B483B000AF7860F6
:1028200000BF0C37BD465DF8047B704780B483B0B1
:1028300000AF786000BF0C37BD465DF8047B704781
:1028400080B483B000AF786000BF0C37BD465DF840
:10285000047B704780B483B000AF786000BF0C3752
:10286000BD465DF8047B704780B483B000AF7860EC
:1028700000BF0C37BD465DF8047B704780B483B061
:1028800000AF786000BF0C37BD465DF8047B704731
:1028900080B586B000AFF860B9607A603B60FB68D5
:1028A0001B68D3F8003203F00103002B01D0012391
:1028B0003EE0FB681B68D3F800327B617B6923F044
:1028C0007872BB685B0513437B617B6923F4F81264
:1028D0007B681B0413437B617B6943F00C037B61C2
:1028E0007B6943F001037B61FB681B687A69C3F86D
:1028F0000022FFF785F9386109E0FFF781F9024608
:102900003B69D31AB3F57A7F01D9012310E0FB6844
:102910001B68D3F8003203F00103002BEDD1FB68F4
:102920001B68D3F804329BB21A463B681A60002336
:1029300018461837BD4680BD80B586B000AFF86038
:10294000B9607A603B60FB681B68D3F8003203F023
:102950000103002B01D001233CE0FB681B68D3F886
:1029600000327B617B6923F07872BB685B0513439F
:102970007B617B6923F4F8127B681B0413437B6142
:102980007B6923F00C0343F004037B617B6943F014
:1029900001037B613B689AB2104BC3F804220F4AD3
:1029A0007B69C2F80032FFF72BF9386109E0FFF7C5
:1029B00027F902463B69D31AB3F57A7F01D901237F
:1029C00008E0FB681B68D3F8003203F00103002B1A
:1029D000EDD1002318461837BD4680BD0080024067
:1029E00080B483B000AF786039603B68002B01D1C0
:1029F0000123C3E17B681B681B6803F00C023B6882
:102A0000DA627B681B681B6803F01003002B14BF9D
:102A100001230023DBB21A463B6883F828207B6839
:102A20001B681B6803F060023B685A627B681B6886
:102A30001B6803F48073002B0CBF01230023DBB25F
:102A40001A463B6883F820207B681B681B6803F4E8
:102A50000073002B14BF01230023DBB21A463B682E
:102A6000DA777B681B681B6803F48063002B0CBF5C
:102A700001230023DBB21A463B689A777B681B6808
:102A80001B6803F40063002B14BF01230023DBB297
:102A90001A463B685A777B681B681B6803F48053AF
:102AA000002B14BF01230023DBB21A463B681A77C0
:102AB0007B681B681B6803F400523B689A617B6863
:102AC0001B681B6803F480423B685A617B681B6883
:102AD0001B6803F48033002B14BF01230023DBB2F7
:102AE0001A463B689A747B681B681B6803F40033C2
:102AF000002B0CBF01230023DBB21A463B685A743B
:102B00007B681B681B6803F40023002B0CBF0123A8
:102B10000023DBB21A463B681A747B681B681B688B
:102B200003F48013002B14BF01230023DBB21A46E9
:102B30003B68DA737B681B681B6803F40013002B87
:102B400014BF01230023DBB21A463B689A737B68EB
:102B50001B681B6803F48003002B14BF01230023B0
:102B6000DBB21A463B685A737B681B681B6803F428
:102B70000003002B14BF01230023DBB21A463B687D
:102B80001A737B681B681B6803F0E0623B689A60FD
:102B90007B681B681B6803F00063002B14BF0123D4
:102BA0000023DBB21A463B681A717B681B681B68FE
:102BB00003F0E0423B681A607B681B685B68C3F304
:102BC0000D023B685A637B681B685B6803F48033C3
:102BD000002B0CBF01230023DBB21A463B6883F8AD
:102BE00032207B681B685B6803F40033002B14BF42
:102BF00001230023DBB21A463B6883F831207B684F
:102C00001B685B6803F48023002B14BF012300239F
:102C1000DBB21A463B6883F830207B681B685B6830
:102C200003F08073002B14BF01230023DBB21A468C
:102C30003B6883F838207B681B685B685B0E03F099
:102C40001F023B68DA637B681B68DB6803F48073F0
:102C5000002B14BF01230023DBB21A463B6883F824
:102C600040207B681B68DB6803F00F023B685A64F6
:102C70007B681B681B6F03F00203002B14BF01234A
:102C80000023DBB21A463B6883F854207B681B683C
:102C90001B6F03F08003002B0CBF01230023DBB26A
:102CA0001A463B6883F84C207B681B681B6F03F057
:102CB00070023B681A657B681B681B6F1B0C9AB21D
:102CC0003B689A647B681B68D3F8903003F001037B
:102CD000002B14BF01230023DBB21A463B6883F8A4
:102CE00056207B681B68D3F8903003F00203002B5A
:102CF00014BF01230023DBB21A463B6883F855203A
:102D00007B681B68D3F8003D03F072023B689A654C
:102D10007B681B68D3F8303D03F023023B68DA651B
:102D20007B681B68D3F8303D03F00803002B14BF09
:102D300001230023DBB21A463B6883F862207B68DC
:102D40001B68D3F8303D03F01003002B14BF0123A0
:102D50000023DBB21A463B6883F861207B681B685E
:102D6000D3F8303D03F04003002B0CBF01230023B8
:102D7000DBB21A463B6883F86020002318460C3704
:102D8000BD465DF8047B704780B582B000AF7860C7
:102D900039603B68002B01D101230BE07B68D3F83D
:102DA0008430102B05D13968786800F057F800237B
:102DB00000E0012318460837BD4680BD80B584B0C9
:102DC00000AF78607B681B68D3F80032FB60FB685B
:102DD00023F47063FB6002F0ABF8B860BB681A4A7A
:102DE000934204D8FB6843F40073FB6022E0BB68A5
:102DF000164A934204D2FB6843F44073FB6019E027
:102E0000BB68134A934215D9BB68124A934204D84F
:102E1000FB6843F48073FB600CE0BB680E4A93428E
:102E200004D8FB6843F48063FB6003E0FB6843F471
:102E3000A063FB607B681B68FA68C3F8002200BFD0
:102E40001037BD4680BD00BFBF0E1602008793033A
:102E5000FFE0F5057FD1F0087FB2E60E80B485B0C3
:102E600000AF786039603B689A683B681B681A431A
:102E70003B681B79DB061A433B681B7BDB051A4367
:102E80003B685B7B9B051A433B689B7B5B051A4356
:102E90003B68DB7B1B0513433A68127C002A02D196
:102EA0004FF4002200E0002213433A68527C002ACB
:102EB00002D14FF4003200E000221A433B689B7CB1
:102EC0001B041A433B685B691A433B689B691A43BE
:102ED0003B681B7F1B031A433B685B7FDB0213438A
:102EE0003A68927F002A02D14FF4806200E000220B
:102EF0001A433B68DB7F5B0213433A6892F8202059
:102F0000002A02D14FF4807200E000221A433B688D
:102F10005B6A1A433B6893F828301B011A433B68ED
:102F2000DB6A1343FB607B681B681A68564B1340CF
:102F30007A681268F9680B4313603B68DB6B5A06CA
:102F40003B6893F838301B061A433B6893F83030DF
:102F50009B041A433B6893F831305B0413433A688F
:102F600092F83220002A02D14FF4803200E0002291
:102F70001A433B685B6B1343FB607B681B685A68B2
:102F8000424B13407A681268F9680B4353603B6800
:102F900093F840301A023B685B6C1343FB607B681C
:102FA0001B68DA683A4B13407A681268F9680B4379
:102FB000D3603B6893F854305A003B681B6D134351
:102FC0003A6892F84C20002A01D1802200E00022C9
:102FD0001A433B689B6C1B041343FB607B681B68B4
:102FE0001A6F4FF60D7313407A681268F9680B4335
:102FF00013673B6893F856301A463B6893F8553090
:103000005B001343FB607B681B68D3F8903023F0B0
:1030100003017B681B68FA680A43C3F890207B6849
:103020001B68D3F8003D23F072013B689A6D7B6802
:103030001B680A43C3F8002D3B68DB6D3A6892F8C1
:103040006020002A01D1402200E000221A433B68A0
:1030500093F861301B011A433B6893F86230DB0040
:103060001343FB607B681B68D3F8303D23F07B0182
:103070007B681B68FA680A43C3F8302D00BF143719
:10308000BD465DF8047B7047838004000080F8C073
:10309000F0FEFFFF80B485B000AF786039607B68D8
:1030A0001B6803F580531A68384B13403A6811685F
:1030B0007A6812680B4302F5805213603B681B79F3
:1030C0001A033B689B681A433B681B7BDB03134373
:1030D000FB607B681B6803F580535A682C4B1340D8
:1030E0007A681268F9680B4302F5805253603B68B6
:1030F0005B7B1A043B681B6A1343FB607B681B689D
:1031000003F58053D3F80021224B13407A681268EC
:10311000F9680B4302F58052C2F800313B681A6926
:103120003B681B7D1B011A433B685B7F1B031343FA
:10313000FB607B681B6803F58053D3F80421164BB2
:1031400013407A681268F9680B4302F58052C2F89E
:1031500004313B681B7FDA073B689B691343FB60C4
:103160007B681B6803F58053D3F808210B4B134091
:103170007A681268F9680B4302F58052C2F8083188
:1031800000BF1437BD465DF8047B7047FD87FFFF25
:10319000FE2FFFFF00C0FEFFEFEFC0FFFFFFC07F6D
:1031A00080B5A4B000AF7860012387F83B300023DE
:1031B0003B65002387F84930002387F84B30012313
:1031C00087F83030012387F85E30012387F83A30E2
:1031D000002387F85430012387F88C304FF40053D4
:1031E0007B64002387F864300023BB66002387F8E4
:1031F0008D30002387F88E304FF4C3633B66002385
:1032000087F8383000237B63012387F83D300023A3
:1032100087F83E30002387F848300023FB670023FF
:103220007B670023BB65002387F86C30002387F899
:103230008230012387F84A302023C7F888300123E1
:1032400087F84C30002387F85D304FF04053FB6225
:103250004FF480433B64002387F839300223C7F8DA
:103260008430002387F88030002387F881300023E2
:1032700087F85C30012387F83C3000233B6701234B
:1032800087F8783007F12C0319467868FFF7E6FDD8
:1032900001233B7301233B610023BB60002387F8BC
:1032A000243000237B7500233B754FF400133B62F1
:1032B00000233B774FF40013BB61002387F82530D0
:1032C0004FF40673BB6207F1080319467868FFF7ED
:1032D000E1FE00BF9037BD4680BD80B485B000AF31
:1032E00078600023FB601DE07B68D968FA681346AC
:1032F0005B001344DB000B44BB60BB6800221A6018
:10330000BB6800225A60BB6800229A60BB6800223A
:10331000DA60B9687B68FA68063243F82210FB6805
:103320000133FB60FB68032BDED97B6800229A62C5
:103330007B681B6803F580531A460323C2F82C31BF
:103340007B68DA687B681B6803F58053C3F8142137
:103350007B68DA687B681B6803F58053C3F820211B
:1033600000BF1437BD465DF8047B704780B485B05C
:1033700000AF78600023FB6023E07B681969FA687E
:1033800013465B001344DB000B44BB60BB680022A8
:103390001A60BB6800225A60BB6800229A60BB6852
:1033A0000022DA60BB6800221A61BB6800225A6101
:1033B000B9687B68FA68123243F82210FB6801335F
:1033C000FB60FB68032BD8D97B680022DA657B6839
:1033D00000221A667B6800229A667B680022DA6601
:1033E0007B6800229A657B681B6803F580531A4648
:1033F0000323C2F830317B681A697B681B6803F5C8
:103400008053C3F81C217B681B6903F148027B6869
:103410001B6803F58053C3F8282100BF1437BD464D
:103420005DF8047B7047000080B491B000AFF86095
:10343000B9607A60FB6818337B627B6A1B69FB6347
:103440007B6A1B693B6200237B637B6AFA6B53F8E0
:1034500022303B63BB689B68FB620023BB623B6B13
:10346000DB6803F00043B3F1004F07D07A6AFB6BCF
:1034700004339B0013445B68002B01D0022366E2F7
:10348000BB681B6803F00403002B44D03B6BDA6875
:10349000754B1340BA68526A1A433B6BDA603B6B58
:1034A000DB6843F480323B6BDA60FB681B681A6EA2
:1034B000FB681B6842F480121A66BB681B6803F045
:1034C0000803002B27D03B6B9B689AB2BB68DB6A72
:1034D0001B041A433B6B9A603B6BDB6843F400327E
:1034E0003B6BDA603B6BDB6823F44022BB681B6BF1
:1034F0001A433B6BDA60FB681B685A6EFB681B68FB
:1035000042F480125A66FB681B681A6DFB681B68E0
:1035100042F080621A65BB681B6803F01003002B41
:103520000ED03B6B9A68514B1340BA6892691A43AC
:103530003B6B9A603B6BDB6843F080623B6BDA600D
:10354000BB681B6803F00403002B05D1BB681B6834
:1035500003F01003002B36D03B6BDB6843F0804256
:103560003B6BDA60BFF35F8F00BF3B6BDB6843F000
:1035700000423B6BDA60FB6B0133FB63FB6B032B9D
:1035800002D9FB6B043BFB637B6AFA6B53F8223076
:103590003B637B6B01337B633B6BDB6803F0004376
:1035A000B3F1004F0FD17B6A3A6A53F822303B6384
:1035B000BFF35F8F00BF3B6BDB6823F000423B6BC8
:1035C000DA600223C3E17B6B01337B63FB6A1B6818
:1035D0001A463B6B1A603B6B9A68244B1340FA6A9D
:1035E00052681A433B6B9A60FB6A9B68002B12D0AF
:1035F000FB6A9B68FB62FB6A1B681A463B6B5A605E
:103600003B6B9A681A4B1340FA6A526812041A43C9
:103610003B6B9A6008E03B6B00225A603B6B9A68F8
:10362000134B13403A6B9360BB681B6803F01003A5
:10363000002B21D03B6BDB6823F4F002BB681B6AD4
:10364000DB041A433B6BDA603B6BDA68094B1340CF
:10365000BA68D2691A433B6BDA603B6BDB6843F4B0
:1036600080223B6BDA602EE00000FFFF00C0FFFF0E
:10367000FFFF00C00000FCFF3B6BDA687B4B134090
:10368000BA6852681A433B6BDA60BB681B6803F088
:103690000103002B08D03B6BDB6823F44032BB688E
:1036A0005B691A433B6BDA60BB681B6803F020035D
:1036B000002B08D03B6BDB6823F04062BB681B69C2
:1036C0001A433B6BDA60BB681B6803F00403002BF2
:1036D00008D03B6B9B6823F44042BB689B6A1A434B
:1036E0003B6B9A603B6BDB6843F000523B6BDA60EC
:1036F0003B6BDB6823F080423B6BDA60BFF35F8F8C
:1037000000BF3B6BDB6843F000423B6BDA60BB6899
:103710001B6803F00203002B00F0DA803B6BDB68D0
:1037200023F06072BB68DB681A433B6BDA60CFE062
:103730003B6BDB6823F080523B6BDA60FB6B013341
:10374000FB63FB6B032B02D9FB6B043BFB637B6AC4
:10375000FA6B53F822303B633B6BDB6823F000527B
:103760003B6BDA603B6BDB6803F00043B3F1004F67
:1037700007D07A6AFB6B04339B0013445B68002B11
:1037800029D03B6AFB637B6AFA6B53F822303B63B8
:103790000023BB6319E0BFF35F8F00BF3B6BDB68A7
:1037A00023F000423B6BDA60FB6B0133FB63FB6B86
:1037B000032B02D9FB6B043BFB637B6AFA6B53F868
:1037C00022303B63BB6B0133BB63BA6B7B6B9A42AA
:1037D000E1D30223BBE07B6B01337B63FB6A9B6815
:1037E000FB62FB6A1B681A463B6B1A603B6B9A686C
:1037F0001F4B1340FA6A52681A433B6B9A60FB6A8C
:103800009B68002B12D0FB6A9B68FB62FB6A1B68FB
:103810001A463B6B5A603B6B9A68164B1340FA6A28
:10382000526812041A433B6B9A6008E03B6B00221B
:103830005A603B6B9A680F4B13403A6B9360BB68BE
:103840001B6803F01003002B18D03B6BDA680A4B9F
:103850001340BA68D2691A433B6BDA603B6BDB6892
:1038600043F480223B6BDA6020E000BF0080FFFF62
:1038700000C0FFFFFFFF00C00000FCFF3B6BDA68E9
:10388000364B1340BA6852681A433B6BDA60BB6828
:103890001B6803F00103002B08D03B6BDB6823F4AB
:1038A0004032BB685B691A433B6BDA60BB6A013329
:1038B000BB62BFF35F8F00BF3B6BDB6843F000422E
:1038C0003B6BDA603B6BDB6823F080423B6BDA607A
:1038D000FB6A9B68002B7FF42BAF7B68002B06D024
:1038E0003B6B9B6843F000423B6B9A6005E03B6B8F
:1038F0009B6823F000423B6B9A603B6BDB6843F0B4
:1039000080523B6BDA607B6A5A6A796AFB6B0433DC
:103910009B000B445A607B6AFA6B1A61EFF31083C9
:103920003B613B69FB6101237B617B6983F3108809
:1039300000BF7B6A9A6ABB6A13445A1C7B6A9A620C
:10394000FB69BB61BB6983F3108800BF0023184685
:103950004437BD465DF8047B704700BF0080FFFF21
:1039600080B489B000AF786039600023FB61894B77
:103970007B6194E13B681A680121FB6901FA03F35A
:1039800013403B613B69002B00F086813B685B681C
:1039900003F00303012B05D03B685B6803F00303CE
:1039A000022B30D17B689B68BB61FB695B00032203
:1039B00002FA03F3DB43BA691340BB613B68DA6880
:1039C000FB695B0002FA03F3BA691343BB617B68CE
:1039D000BA699A607B685B68BB610122FB6902FA85
:1039E00003F3DB43BA691340BB613B685B681B09A7
:1039F00003F00102FB6902FA03F3BA691343BB61E6
:103A00007B68BA695A603B685B6803F00303032B69
:103A100017D07B68DB68BB61FB695B00032202FA9D
:103A200003F3DB43BA691340BB613B689A68FB69E7
:103A30005B0002FA03F3BA691343BB617B68BA699E
:103A4000DA603B685B6803F00303022B23D1FB6958
:103A5000DA087B68083253F82230BB61FB6903F057
:103A600007039B000F2202FA03F3DB43BA691340FA
:103A7000BB613B681A69FB6903F007039B0002FA0C
:103A800003F3BA691343BB61FB69DA087B68083248
:103A9000B96943F822107B681B68BB61FB695B0056
:103AA000032202FA03F3DB43BA691340BB613B68AC
:103AB0005B6803F00302FB695B0002FA03F3BA6977
:103AC0001343BB617B68BA691A603B685B6803F4A7
:103AD0004033002B00F0E0802F4BD3F8F4302E4A17
:103AE00043F00203C2F8F4302B4BD3F8F43003F068
:103AF0000203FB60FB68294AFB699B08023352F80A
:103B00002330BB61FB6903F003039B000F2202FA21
:103B100003F3DB43BA691340BB617B68204A9342DD
:103B200052D07B681F4A934231D07B681E4A934231
:103B30002BD07B681D4A934225D07B681C4A934258
:103B40001FD07B681B4A934219D07B681A4A934264
:103B500013D07B68194A93420DD07B68184A934270
:103B600007D07B68174A934201D109232DE00A232D
:103B70002BE0082329E0072327E0062325E005237F
:103B800023E0042321E003231FE002231DE001239F
:103B90001BE000BF80000058004402580004005899
:103BA000000002580004025800080258000C025895
:103BB000001002580014025800180258001C025845
:103BC00000200258002402580023FA6902F0030280
:103BD00092009340BA691343BB613849FB699B0863
:103BE0000233BA6941F823204FF0B0431B68BB6130
:103BF0003B69DB43BA691340BB613B685B6803F414
:103C00008013002B03D0BA693B691343BB614FF0AB
:103C1000B042BB6913604FF0B0435B68BB613B6966
:103C2000DB43BA691340BB613B685B6803F4001374
:103C3000002B03D0BA693B691343BB614FF0B0421C
:103C4000BB6953607B695B68BB613B69DB43BA69F5
:103C50001340BB613B685B6803F40033002B03D067
:103C6000BA693B691343BB617B69BA695A607B6976
:103C70001B68BB613B69DB43BA691340BB613B68AE
:103C80005B6803F48033002B03D0BA693B691343AC
:103C9000BB617B69BA691A60FB690133FB613B68F0
:103CA0001A68FB6922FA03F3002B7FF463AE00BFAE
:103CB00000BF2437BD465DF8047B70470004005800
:103CC00080B483B000AF78600B467B8013467B7076
:103CD0007B78002B03D07A887B689A6103E07B882D
:103CE0001A047B689A6100BF0C37BD465DF8047BFF
:103CF000704780B485B000AF78600B467B807B68EE
:103D00005B69FB607A88FB6813401A04FB68D9433F
:103D10007B880B401A437B689A6100BF1437BD460D
:103D20005DF8047B704780B586B002AF78607B6831
:103D3000002B01D10123FEE07B6893F89534DBB2C0
:103D4000002B06D17B68002283F894247868FCF766
:103D50003BFF7B68032283F895247B681B68184629
:103D600004F0BCF87B6818687B681A7C8DF800202A
:103D700004330ECB04F040F80346002B05D07B68DB
:103D8000022283F895240123D5E07B681B6800217B
:103D9000184604F0B4F80346002B05D07B680222D5
:103DA00083F895240123C6E00023FB734AE0FA7BE5
:103DB00079681346DB0013449B000B441533012242
:103DC0001A70FA7B79681346DB0013449B000B449E
:103DD0001433FA7B1A70FA7BFB7B98B2796813462E
:103DE000DB0013449B000B442E3302461A80FA7BFF
:103DF00079681346DB0013449B000B441833002200
:103E00001A70FA7B79681346DB0013449B000B445D
:103E10001C3300221A60FA7B79681346DB001344D6
:103E20009B000B44203300221A60FA7B796813460A
:103E3000DB0013449B000B44243300221A60FB7BFD
:103E40000133FB737B681B79FA7B9A42AFD3002363
:103E5000FB7344E0FA7B79681346DB0013449B0054
:103E60000B4403F2552300221A70FA7B796813463B
:103E7000DB0013449B000B4403F51573FA7B1A70A7
:103E8000FA7B79681346DB0013449B000B4403F56F
:103E9000167300221A70FA7B79681346DB0013440C
:103EA0009B000B4403F5177300221A60FA7B7968B4
:103EB0001346DB0013449B000B4403F518730022E8
:103EC0001A60FA7B79681346DB0013449B000B44AD
:103ED00003F5197300221A60FB7B0133FB737B68C7
:103EE0001B79FA7B9A42B5D37B6818687B681A7C89
:103EF0008DF8002004330ECB04F04EF80346002B5F
:103F000005D07B68022283F89524012313E07B68A7
:103F100000225A747B68012283F895247B681B7BFE
:103F2000012B02D1786800F00BF87B681B681846FB
:103F300004F009FA002318461037BD4680BD000082
:103F400080B485B000AF78607B681B68FB607B68DD
:103F50000122C3F8D8247B68002283F8CC24FB68B4
:103F60009B6943F00062FB689A61FB685A6D054BE0
:103F70001343FA685365002318461437BD465DF8AD
:103F8000047B70470300001080B584B000AF7860F8
:103F9000194BDB6803F00403042B0AD0164BDB68D3
:103FA00003F007037A689A4201D001231FE000233F
:103FB0001DE0114BDB6823F007020F497B681343B8
:103FC000CB60FDF71DFEF86009E0FDF719FE024623
:103FD000FB68D31AB3F57A7F01D9012307E0064BBA
:103FE0005B6803F40053B3F5005FEED1002318467D
:103FF0001037BD4680BD00BF0048025880B400AFF6
:10400000054BDB68044A43F08073D36000BFBD46B4
:104010005DF8047B704700BF0048025880B58CB043
:1040200000AF78607B68002B02D1012300F048BC10
:104030007B681B6803F00103002B00F08880994B1C
:104040001B6903F03803FB62964B9B6ABB62FB6AF9
:10405000102B07D0FB6A182B11D1BB6A03F00303A6
:10406000022B0CD18F4B1B6803F40033002B6DD057
:104070007B685B68002B69D1012300F021BC7B6861
:104080005B68B3F5803F06D1864B1B68854A43F4D5
:10409000803313602EE07B685B68002B0CD1814B72
:1040A0001B68804A23F4803313607E4B1B687D4A73
:1040B00023F4802313601DE07B685B68B3F5A02FB9
:1040C0000CD1784B1B68774A43F480231360754BFF
:1040D0001B68744A43F4803313600BE0714B1B6818
:1040E000704A23F4803313606E4B1B686D4A23F4CF
:1040F000802313607B685B68002B13D0FDF780FD85
:10410000786208E0FDF77CFD02467B6AD31A642BD7
:1041100001D90323D4E3634B1B6803F40033002B62
:10412000F0D014E0FDF76CFD786208E0FDF768FD63
:1041300002467B6AD31A642B01D90323C0E3594B8F
:104140001B6803F40033002BF0D100E000BF7B6854
:104150001B6803F00203002B00F0CA80514B1B695F
:1041600003F038033B624F4B9B6AFB613B6A002BB9
:1041700007D03B6A182B56D1FB6903F00303002BD1
:1041800051D1484B1B6803F00403002B05D07B681A
:10419000DB68002B01D1012392E3424B1B6823F023
:1041A00019027B68DB683F4913430B60FDF728FD6C
:1041B000786208E0FDF724FD02467B6AD31A022BE1
:1041C00001D903237CE3374B1B6803F00403002B66
:1041D000F0D0FDF745FD034641F20302934217D8A4
:1041E0007B681B69402B08D12E4B5B6823F47C3322
:1041F0002C4A43F4003353607AE02A4B5B6823F483
:104200007C327B681B691B03264913434B606FE0BC
:10421000244B5B6823F0FE427B681B691B06214927
:1042200013434B6064E07B68DB68002B47D01D4B79
:104230001B6823F019027B68DB681A4913430B6083
:10424000FDF7DEFC786208E0FDF7DAFC02467B6AE7
:10425000D31A022B01D9032332E3124B1B6803F05C
:104260000403002BF0D0FDF7FBFC034641F20302F0
:10427000934219D87B681B69402B08D1094B5B68B6
:1042800023F47C33074A43F40033536030E0054B9A
:104290005B6823F47C327B681B691B030149134371
:1042A0004B6025E0004402589A4B5B6823F0FE42C5
:1042B0007B681B691B06974913434B6018E0954BBD
:1042C0001B68944A23F001031360FDF799FC7862A0
:1042D00008E0FDF795FC02467B6AD31A022B01D950
:1042E0000323EDE28B4B1B6803F00403002BF0D19A
:1042F0007B681B6803F01003002B00F0A980854B3E
:104300001B6903F03803BB61824B9B6A7B61BB690D
:10431000082B07D0BB69182B3AD17B6903F0030344
:10432000012B35D17B4B1B6803F48073002B05D028
:104330007B68DB69802B01D00123C1E2FDF790FC93
:10434000034641F20302934217D87B681B6A202B75
:1043500008D1704B5B6823F0F8436E4A43F080430A
:10436000536075E06B4B5B6823F0F8427B681B6A17
:104370009B06684913434B606AE0664BDB6823F099
:104380007C527B681B6A1B0662491343CB605FE06B
:104390007B68DB69002B42D05E4B1B685D4A43F0B3
:1043A00080031360FDF72CFC786208E0FDF728FC21
:1043B00002467B6AD31A022B01D9032380E2554BB4
:1043C0001B6803F48073002BF0D0FDF749FC034613
:1043D00041F20302934217D87B681B6A202B08D155
:1043E0004C4B5B6823F0F8434A4A43F080435360E8
:1043F0002EE0484B5B6823F0F8427B681B6A9B0603
:10440000444913434B6023E0424BDB6823F07C526A
:104410007B681B6A1B063F491343CB6018E03D4B8A
:104420001B683C4A23F080031360FDF7E9FB7862C8
:1044300008E0FDF7E5FB02467B6AD31A022B01D99F
:1044400003233DE2334B1B6803F48073002BF0D150
:104450007B681B6803F00803002B36D07B685B6920
:10446000002B19D02B4B5B6F2A4A43F00103536793
:10447000FDF7C6FB786208E0FDF7C2FB02467B6AE7
:10448000D31A022B01D903231AE2224B5B6F03F0EC
:104490000203002BF0D018E01E4B5B6F1D4A23F087
:1044A00001035367FDF7ACFB786208E0FDF7A8FB5A
:1044B00002467B6AD31A022B01D9032300E2154B73
:1044C0005B6F03F00203002BF0D17B681B6803F0E5
:1044D0002003002B39D07B689B69002B1CD00D4B2F
:1044E0001B680C4A43F480531360FDF789FB786224
:1044F00008E0FDF785FB02467B6AD31A022B01D93F
:104500000323DDE1034B1B6803F40053002BF0D0C1
:104510001BE000BF004402589B4B1B689A4A23F4DF
:1045200080531360FDF76CFB786208E0FDF768FBD1
:1045300002467B6AD31A022B01D90323C0E1924BB6
:104540001B6803F40053002BF0D17B681B6803F059
:104550000403002B00F081808C4B1B688B4A43F4D2
:1045600080731360FDF74CFB786208E0FDF748FBB1
:1045700002467B6AD31A642B01D90323A0E1834B43
:104580001B6803F48073002BF0D07B689B68012BC1
:1045900006D17D4B1B6F7C4A43F0010313672DE06E
:1045A0007B689B68002B0CD1774B1B6F764A23F0FE
:1045B00001031367744B1B6F734A23F004031367E3
:1045C0001CE07B689B68052B0CD16F4B1B6F6E4A00
:1045D00043F0040313676C4B1B6F6B4A43F00103FA
:1045E00013670BE0684B1B6F674A23F001031367E7
:1045F000654B1B6F644A23F0040313677B689B6859
:10460000002B15D0FDF7FCFA78620AE0FDF7F8FA06
:1046100002467B6AD31A41F28832934201D90323BE
:104620004EE1594B1B6F03F00203002BEED014E058
:10463000FDF7E6FA78620AE0FDF7E2FA02467B6AE5
:10464000D31A41F28832934201D9032338E14E4B09
:104650001B6F03F00203002BEED17B685B6A002B1B
:1046600000F02D81484B1B6903F03803182B00F034
:10467000BD807B685B6A022B40F09E80424B1B68CA
:10468000414A23F080731360FDF7BAFA786208E0BC
:10469000FDF7B6FA02467B6AD31A022B01D903232F
:1046A0000EE1394B1B6803F00073002BF0D1364B41
:1046B0009A6A374B13407A68916A7A68D26A120113
:1046C0000A43314913438B627B681B6B013BC3F385
:1046D00008027B685B6B013B5B029BB21A437B6801
:1046E0009B6B013B1B0403F4FE031A437B68DB6BEB
:1046F000013B1B0603F0FE43234913430B63224B8C
:10470000DB6A214A23F00103D3621F4B5A6B214B12
:1047100013407A68926CD2001B4913434B631A4BC7
:10472000DB6A23F00C027B681B6C17491343CB62D6
:10473000154BDB6A23F002027B685B6C1249134362
:10474000CB62114BDB6A104A43F48033D3620E4BC9
:10475000DB6A0D4A43F40033D3620B4BDB6A0A4A2F
:1047600043F48023D362084BDB6A074A43F001031A
:10477000D362054B1B68044A43F080731360FDF756
:104780003FFA786211E000BF004402580048025826
:104790000CFCFFFF0700FFFFFDF732FA02467B6AC1
:1047A000D31A022B01D903238AE0474B1B6803F07D
:1047B0000073002BF0D082E0434B1B68424A23F089
:1047C00080731360FDF71CFA786208E0FDF718FAB1
:1047D00002467B6AD31A022B01D9032370E03A4BBD
:1047E0001B6803F00073002BF0D168E0364B9B6A26
:1047F0003B61354B1B6BFB607B685B6A012B31D0E7
:104800003B6903F003027B689B6A9A422AD13B69A9
:104810001B0903F03F027B68DB6A9A4222D1FB68E6
:10482000C3F308027B681B6B013B9A421AD1FB68F9
:104830005B0A03F07F027B685B6B013B9A4211D1FC
:10484000FB681B0C03F07F027B689B6B013B9A4269
:1048500008D1FB681B0E03F07F027B68DB6B013B1A
:104860009A4201D001232BE0174B5B6BDB08C3F3AB
:104870000C033B617B689B6C3A699A421FD0124BD8
:10488000DB6A114A23F00103D362FDF7B9F97862BC
:1048900000BFFDF7B5F902467B6A9342F9D00A4B97
:1048A0005A6B0A4B13407A68926CD2000649134344
:1048B0004B63054BDB6A044A43F00103D3620023D8
:1048C00018463037BD4680BD004402580700FFFF40
:1048D00080B586B000AF786039607B68002B01D16D
:1048E00001239CE18A4B1B6803F00F033A689A424C
:1048F00010D9874B1B6823F00F0285493B6813438F
:104900000B60834B1B6803F00F033A689A4201D097
:10491000012384E17B681B6803F00403002B10D0A3
:104920007B681A697B4B9B6903F070039A4208D934
:10493000784B9B6923F070027B681B6975491343B0
:104940008B617B681B6803F00803002B10D07B6829
:104950005A69704BDB6903F070039A4208D96D4BBA
:10496000DB6923F070027B685B696A491343CB61A2
:104970007B681B6803F01003002B10D07B689A69DA
:10498000644BDB6903F4E0639A4208D9614BDB694D
:1049900023F4E0627B689B695E491343CB617B68CB
:1049A0001B6803F02003002B10D07B68DA69594B99
:1049B0001B6A03F070039A4208D9564B1B6A23F016
:1049C00070027B68DB69534913430B627B681B6889
:1049D00003F00203002B10D07B68DA684D4B9B6913
:1049E00003F00F039A4208D94A4B9B6923F00F0248
:1049F0007B68DB68474913438B617B681B6803F066
:104A00000103002B55D0434B9B6923F470627B68F4
:104A10009B68404913438B617B685B68022B07D11D
:104A20003C4B1B6803F40033002B21D10123F6E03B
:104A30007B685B68032B07D1364B1B6803F0007360
:104A4000002B15D10123EAE07B685B68012B07D1BD
:104A5000304B1B6803F48073002B09D10123DEE087
:104A60002C4B1B6803F00403002B01D10123D6E07B
:104A7000284B1B6923F007027B685B6825491343B9
:104A80000B61FDF7BDF878610AE0FDF7B9F8024661
:104A90007B69D31A41F28832934201D90323BEE0E5
:104AA0001C4B1B6903F038027B685B68DB009A4291
:104AB000EBD17B681B6803F00203002B10D07B68EE
:104AC000DA68144B9B6903F00F039A4208D2114B2A
:104AD0009B6923F00F027B68DB680E4913438B61EF
:104AE0000B4B1B6803F00F033A689A4214D2084B31
:104AF0001B6823F00F0206493B6813430B60044B0D
:104B00001B6803F00F033A689A4205D0012386E040
:104B100000200052004402587B681B6803F0040325
:104B2000002B10D07B681A693F4B9B6903F0700320
:104B30009A4208D23C4B9B6923F070027B681B6948
:104B4000394913438B617B681B6803F00803002B12
:104B500010D07B685A69344BDB6903F070039A42CA
:104B600008D2314BDB6923F070027B685B692E4908
:104B70001343CB617B681B6803F01003002B10D03C
:104B80007B689A69284BDB6903F4E0639A4208D298
:104B9000254BDB6923F4E0627B689B692249134360
:104BA000CB617B681B6803F02003002B10D07B686F
:104BB000DA691D4B1B6A03F070039A4208D21A4B44
:104BC0001B6A23F070027B68DB69174913430B6291
:104BD00000F034F80246144B9B691B0A03F00F03E4
:104BE0001249CB5C03F01F0322FA03F33B610E4B27
:104BF0009B6903F00F030D4AD35C03F01F033A696E
:104C000022FA03F30A4A13600A4A3B6913600A4B0B
:104C10001B681846FCF7AAFF0346FB73FB7B18468C
:104C20001837BD4680BD00BF00440258C882010845
:104C300018000024140000241C00002480B489B053
:104C400000AFB34B1B6903F03803182B00F25581FA
:104C500001A252F823F000BFBD4C0008FB4E000833
:104C6000FB4E0008FB4E0008FB4E0008FB4E000800
:104C7000FB4E0008FB4E0008E34C0008FB4E00080A
:104C8000FB4E0008FB4E0008FB4E0008FB4E0008E0
:104C9000FB4E0008FB4E0008E94C0008FB4E0008E4
:104CA000FB4E0008FB4E0008FB4E0008FB4E0008C0
:104CB000FB4E0008FB4E0008EF4C0008944B1B68AD
:104CC00003F02003002B09D0914B1B68DB0803F095
:104CD0000303904A22FA03F3BB6111E18D4BBB61E0
:104CE0000EE18D4BBB610BE18C4BBB6108E1884B46
:104CF0009B6A03F003037B61854B9B6A1B0903F0EE
:104D00003F033B61824BDB6A03F00103FB60804B96
:104D10005B6BDB08C3F30C03FA6802FB03F307EEDB
:104D2000903AF8EE677AC7ED027A3B69002B00F003
:104D3000E1807B69022B00F083807B69022B00F20B
:104D4000A1807B69002B03D07B69012B56D099E0B1
:104D50006F4B1B6803F02003002B2DD06C4B1B689E
:104D6000DB0803F003036B4A22FA03F37B607B68E2
:104D700007EE903AF8EE676A3B6907EE903AF8EE74
:104D8000677A86EEA77A624B1B6BC3F3080307EEC4
:104D9000903AF8EE676A97ED026ADFED615AC6EE67
:104DA000257A76EEA77AF7EE006A77EEA67A67EEB6
:104DB000277AC7ED077A87E03B6907EE903AF8EE6D
:104DC000677ADFED586A86EEA77A514B1B6BC3F307
:104DD000080307EE903AF8EE676A97ED026ADFED96
:104DE000505AC6EE257A76EEA77AF7EE006A77EE8D
:104DF000A67A67EE277AC7ED077A65E03B6907EE8A
:104E0000903AF8EE677ADFED486A86EEA77A404B73
:104E10001B6BC3F3080307EE903AF8EE676A97ED51
:104E2000026ADFED3F5AC6EE257A76EEA77AF7EEF4
:104E3000006A77EEA67A67EE277AC7ED077A43E035
:104E40003B6907EE903AF8EE677ADFED386A86EE56
:104E5000A77A2F4B1B6BC3F3080307EE903AF8EECB
:104E6000676A97ED026ADFED2E5AC6EE257A76EE76
:104E7000A77AF7EE006A77EEA67A67EE277AC7ED93
:104E8000077A21E03B6907EE903AF8EE677ADFEDAA
:104E9000266A86EEA77A1E4B1B6BC3F3080307EE48
:104EA000903AF8EE676A97ED026ADFED1D5AC6EE9A
:104EB000257A76EEA77AF7EE006A77EEA67A67EEA5
:104EC000277AC7ED077A00BF114B1B6B5B0A03F013
:104ED0007F0301333B603B6807EE903AB8EE677A98
:104EE000D7ED076AC6EE877AFCEEE77A17EE903ABE
:104EF000BB6105E00023BB6102E0074BBB6100BF63
:104F0000BB6918462437BD465DF8047B704700BF77
:104F1000004402580090D00300093D0000127A00BE
:104F2000000000460024744C0024744A0024F44A13
:104F300080B582B000AFFFF781FE0246104B9B693F
:104F40001B0A03F00F030F49CB5C03F01F0322FA87
:104F500003F37B600A4B9B6903F00F03094AD35CA0
:104F600003F01F037A6822FA03F3074A1360074A23
:104F70007B681360044B1B6818460837BD4680BD2C
:104F800000440258C88201081800002414000024BC
:104F900080B500AFFFF7CCFF0246064BDB691B096B
:104FA00003F007030449CB5C03F01F0322FA03F369
:104FB000184680BD00440258C882010880B500AF81
:104FC000FFF7B6FF0246064BDB691B0A03F0070337
:104FD0000449CB5C03F01F0322FA03F3184680BD9B
:104FE00000440258C88201082DE9B04FCAB000AF92
:104FF000C7F81401002387F82731002387F82631EA
:10500000D7F81431D3E9002302F00064002554EAF4
:10501000050349D0D7F814319B6EB3F5401F2FD04C
:10502000B3F5401F28D8B3F5001F1AD0B3F5001F01
:1050300022D8002B03D0B3F5801F07D01CE0B84B5B
:10504000DB6AB74A43F40033D3621AE0D7F814316D
:1050500008330221184601F08FFC034687F82731F8
:105060000FE0D7F8143128330221184601F036FD3D
:10507000034687F8273104E0012387F8273100E051
:1050800000BF97F82731002B0AD1A54B1B6D23F4E5
:105090004011D7F814319B6EA14A0B43136503E00E
:1050A00097F8273187F82631D7F81431D3E9002350
:1050B00002F480784FF0000958EA090347D0D7F886
:1050C00014319B6D042B2AD801A252F823F000BFA3
:1050D000E5500008F3500008095100082751000866
:1050E000275100088E4BDB6A8D4A43F40033D362AC
:1050F0001AE0D7F8143108330021184601F03CFCBF
:10510000034687F827310FE0D7F814312833002100
:10511000184601F0E3FC034687F8273104E0012339
:1051200087F8273100E000BF97F82731002B0AD11C
:105130007B4B1B6D23F00701D7F814319B6D784A28
:105140000B43136503E097F8273187F82631D7F82A
:105150001431D3E9002302F4007A4FF0000B5AEA2D
:105160000B034CD0D7F81431DB6DB3F5807F30D012
:10517000B3F5807F29D8C02B2DD0C02B25D8802B0C
:1051800018D0802B21D8002B02D0402B07D01CE058
:10519000634BDB6A624A43F40033D3621CE0D7F806
:1051A000143108330021184601F0E6FB034687F866
:1051B000273111E0D7F8143128330021184601F0C7
:1051C0008DFC034687F8273106E0012387F8273155
:1051D00002E000BF00E000BF97F82731002B0AD1A2
:1051E0004F4B1B6D23F4E071D7F81431DB6D4C4A43
:1051F0000B43136503E097F8273187F82631D7F87A
:105200001431D3E9002302F48063C7F80831002386
:10521000C7F80C31D7E942120B46134353D0D7F8E5
:105220001431D3F8A830B3F5000F35D0B3F5000F23
:105230002ED8B3F5C00F31D0B3F5C00F28D8B3F5D1
:10524000800F1AD0B3F5800F22D8002B03D0B3F50E
:10525000001F07D01CE0324BDB6A314A43F40033B5
:10526000D3621CE0D7F8143108330021184601F04E
:1052700083FB034687F8273111E0D7F81431283330
:105280000021184601F02AFC034687F8273106E082
:10529000012387F8273102E000BF00E000BF97F844
:1052A0002731002B0BD11E4B9B6D23F46001D7F8E7
:1052B0001431D3F8A8301A4A0B43936503E097F8EA
:1052C000273187F82631D7F81431D3E9002302F4C7
:1052D0000063C7F800310023C7F80431D7E9401252
:1052E0000B46134356D0D7F81431D3F8AC30B3F192
:1052F000806F38D0B3F1806F31D8B3F1407F34D0B4
:10530000B3F1407F2BD8B3F1007F1DD0B3F1007F04
:1053100025D8002B06D0B3F1807F0AD01FE000BF54
:1053200000440258A24BDB6AA14A43F40033D36223
:105330001CE0D7F8143108330021184601F01CFB9B
:10534000034687F8273111E0D7F8143128330021BC
:10535000184601F0C3FB034687F8273106E0012316
:1053600087F8273102E000BF00E000BF97F827313F
:10537000002B0BD18E4B9B6D23F0E061D7F81431DD
:10538000D3F8AC308A4A0B43936503E097F8273192
:1053900087F82631D7F81431D3E9002302F00073DF
:1053A000C7F8F8300023C7F8FC30D7E93E120B46A7
:1053B00013433AD0D7F81431DB6C302B1FD0302B8D
:1053C00019D8202B0CD0202B15D8002B19D0102B3E
:1053D00011D1774BDB6A764A43F40033D36211E094
:1053E000D7F8143108330221184601F0C5FA0346F4
:1053F00087F8273106E0012387F8273102E000BF54
:1054000000E000BF97F82731002B0AD1684BDB6C16
:1054100023F03001D7F81431DB6C654A0B43D364B9
:1054200003E097F8273187F82631D7F81431D3E90C
:10543000002302F48053C7F8F0300023C7F8F4309B
:10544000D7E93C120B46134351D0D7F814311B6EE9
:10545000B3F5804F35D0B3F5804F2ED8B3F5405F0C
:1054600031D0B3F5405F28D8B3F5005F1AD0B3F55B
:10547000005F22D8002B03D0B3F5805F07D01CE07B
:105480004B4BDB6A4A4A43F40033D3621CE0D7F843
:10549000143108330021184601F06EFA034687F8EC
:1054A000273111E0D7F8143128330021184601F0D4
:1054B00015FB034687F8273106E0012387F82731DB
:1054C00002E000BF00E000BF97F82731002B0AD1AF
:1054D000374B1B6D23F4E041D7F814311B6E344A6F
:1054E0000B43136503E097F8273187F82631D7F887
:1054F0001431D3E9002302F40053C7F8E830002345
:10550000C7F8EC30D7E93A120B46134356D0D7F818
:1055100014315B6EB3F5A02F33D0B3F5A02F2CD888
:10552000B3F5802F2FD0B3F5802F26D8B3F5403FA9
:105530002BD0B3F5403F20D8B3F5003F12D0B3F5E0
:10554000003F1AD8002B22D0B3F5803F15D1D7F8F1
:10555000143108330121184601F00EFA034687F88A
:10556000273115E0D7F8143128330121184601F00E
:10557000B5FA034687F827310AE0012387F8273177
:1055800006E000BF04E000BF02E000BF00E000BF93
:1055900097F82731002B0DD1054B1B6D23F4E0212B
:1055A000D7F814315B6E024A0B43136506E000BF67
:1055B0000044025897F8273187F82631D7F814317C
:1055C000D3E9002302F48043C7F8E0300023C7F892
:1055D000E430D7E938120B46134355D0D7F81431CD
:1055E000D3F8B030B3F1A04F33D0B3F1A04F2CD8E3
:1055F000B3F1804F2FD0B3F1804F26D8B3F1405F85
:105600002BD0B3F1405F20D8B3F1005F12D0B3F1DB
:10561000005F1AD8002B22D0B3F1805F15D1D7F8E4
:10562000143108330121184601F0A6F9034687F822
:10563000273115E0D7F8143128330121184601F03D
:105640004DFA034687F827310AE0012387F827310E
:1056500006E000BF04E000BF02E000BF00E000BFC2
:1056600097F82731002B0BD1A34B9B6D23F0E04122
:10567000D7F81431D3F8B0309F4A0B43936503E059
:1056800097F8273187F82631D7F81431D3E900236A
:1056900002F40043C7F8D8300023C7F8DC30D7E95C
:1056A00036120B46134337D0D7F814311B6FB3F1C2
:1056B000005F0ED0B3F1005F16D8002B18D0B3F105
:1056C000805F11D18C4BDB6A8B4A43F40033D36289
:1056D0000FE0D7F8143108330121184601F04CF9D6
:1056E000034687F8273104E0012387F8273100E0DB
:1056F00000BF97F82731002B0AD17F4B1B6D23F099
:105700004051D7F814311B6F7B4A0B43136503E0FC
:1057100097F8273187F82631D7F81431D3E90023D9
:1057200002F08073C7F8D0300023C7F8D430D7E92F
:1057300034120B46134339D0D7F814319B6C032B2A
:105740001CD801A252F823F08557000859570008C9
:105750006757000885570008674BDB6A664A43F4C1
:105760000033D3620FE0D7F8143108330221184612
:1057700001F002F9034687F8273104E0012387F896
:10578000273100E000BF97F82731002B0AD15A4B90
:10579000DB6C23F00301D7F814319B6C564A0B43A2
:1057A000D36403E097F8273187F82631D7F814310E
:1057B000D3E9002302F48003C7F8C8300023C7F8F8
:1057C000CC30D7E932120B46134300F09F804B4B8D
:1057D0001B684A4A43F480731360FCF711FAC7F858
:1057E00020010BE0FCF70CFA0246D7F82031D31A5F
:1057F000642B03D9032387F8273105E03F4B1B684F
:1058000003F48073002BEDD097F82731002B79D16A
:10581000394B1A6FD7F81431D3F8B430534003F42E
:105820004073002B15D0344B1B6F23F44073C7F823
:105830001C31314B1B6F304A43F4803313672E4BBE
:105840001B6F2D4A23F4803313672B4AD7F81C3182
:105850001367D7F81431D3F8B430B3F5807F18D17B
:10586000FCF7CEF9C7F820010DE0FCF7C9F90246B4
:10587000D7F82031D21A41F288339A4203D9032350
:1058800087F8273105E01C4B1B6F03F00203002B48
:10589000EBD097F82731002B29D1D7F81431D3F862
:1058A000B43003F44073B3F5407F0ED1124B1B6943
:1058B00023F47C51D7F81431D3F8B4301A09104BC3
:1058C00013400D4A0B43136105E00B4B1B690A4A59
:1058D00023F47C531361084B196FD7F81431D3F8B4
:1058E000B430C3F30B03044A0B4313670EE097F87D
:1058F000273187F8263109E0004402580048025851
:10590000CFFFFF0097F8273187F82631D7F81431F9
:10591000D3E9002302F00103C7F8C0300023C7F821
:10592000C430D7E930120B46134300F08980D7F812
:105930001431DB6F282B6BD801A252F823F000BF83
:10594000195A0008115A0008115A0008115A000883
:10595000115A0008115A0008115A0008115A00087B
:10596000E5590008115A0008115A0008115A000898
:10597000115A0008115A0008115A0008115A00085B
:10598000FB590008115A0008115A0008115A000862
:10599000115A0008115A0008115A0008115A00083B
:1059A000195A0008115A0008115A0008115A000823
:1059B000115A0008115A0008115A0008115A00081B
:1059C000195A0008115A0008115A0008115A000803
:1059D000115A0008115A0008115A0008115A0008FB
:1059E000195A0008D7F8143108330121184600F07D
:1059F000C3FF034687F827310FE0D7F81431283367
:105A00000121184601F06AF8034687F8273104E0BF
:105A1000012387F8273100E000BF97F82731002BDA
:105A20000AD1BF4B5B6D23F03801D7F81431DB6F1F
:105A3000BB4A0B43536503E097F8273187F82631BB
:105A4000D7F81431D3E9002302F00203C7F8B830C5
:105A50000023C7F8BC30D7E92E120B46134341D0C0
:105A6000D7F814319B6F052B24D801A252F823F0EC
:105A7000BD5A0008895A00089F5A0008BD5A0008FC
:105A8000BD5A0008BD5A0008D7F814310833012167
:105A9000184600F071FF034687F827310FE0D7F86A
:105AA000143128330121184601F018F8034687F80D
:105AB000273104E0012387F8273100E000BF97F881
:105AC0002731002B0AD1964B5B6D23F00701D7F8E5
:105AD00014319B6F924A0B43536503E097F82731CB
