:020000040800F2
:100000000000082475440008C5290008CD2900080F
:10001000D5290008DD290008E529000800000000B6
:10002000000000000000000000000000ED290008B2
:10003000FB29000800000000092A0008172A000810
:10004000C5440008C5440008C5440008C54400086C
:10005000C5440008C5440008C5440008232A000818
:10006000312A0008C5440008C5440008C5440008FA
:10007000C5440008C5440008C5440008C54400083C
:10008000C5440008C5440008412A0008552A000854
:10009000C5440008C5440008C5440008692A000892
:1000A000C5440008C5440008C5440008C54400080C
:1000B000C5440008C5440008C5440008C5440008FC
:1000C000C5440008C5440008C5440008C5440008EC
:1000D000C5440008C5440008C5440008C5440008DC
:1000E0007D2A0008C544000800000000C54400083F
:1000F000C5440008C5440008C5440008C5440008BC
:10010000C5440008C5440008C5440008C5440008AB
:10011000C5440008C54400089D2A0008B92A000803
:10012000C5440008C5440008C5440008C54400088B
:10013000C5440008C5440008C5440008C54400087B
:1001400000000000000000000000000000000000AF
:10015000C5440008C5440008C5440008CD2A00086D
:10016000C5440008C5440008C5440008C54400084B
:10017000C5440008C5440008C5440008C54400083B
:10018000C5440008C5440008C5440008C54400082B
:10019000C5440008C5440008C5440008C54400081B
:1001A000C5440008C5440008C5440008C54400080B
:1001B000C5440008C5440008C5440008C5440008FB
:1001C000C5440008C5440008C5440008C5440008EB
:1001D000C5440008E12A0008C5440008C5440008D9
:1001E000C5440008C5440008C5440008C5440008CB
:1001F000C5440008C5440008C5440008C5440008BB
:10020000C5440008C5440008C5440008C5440008AA
:10021000C5440008C5440008C5440008C54400089A
:10022000C5440008C5440008C5440008000000009B
:10023000C5440008C544000800000000C54400088B
:10024000C5440008C5440008C5440008C54400086A
:10025000C5440008C5440008C5440008C54400085A
:10026000C5440008C5440008C5440008C54400084A
:10027000C5440008C5440008C5440008000000004B
:10028000C5440008C5440008C5440008000000003B
:0802900000000000C544000855
:1002A00010B5054C237833B9044B13B10448AFF3B0
:1002B00000800123237010BD6C01002400000000A9
:1002C000F0CA010808B5034B1BB103490348AFF35B
:1002D000008008BD0000000070010024F0CA010881
:1002E00010F8012B11F8013B012A28BF9A42F7D0E0
:1002F000D01A7047034613F8012B002AFBD1181AB5
:1003000001387047000000000000000000000000FD
:1003100001F0FF01102A2BDB10F0070F08D010F8B6
:10032000013B013A8B422DD010F0070F42B3F6D1BA
:10033000F0B441EA012141EA014122F007047FF0D3
:1003400000070023F0E80256083C85EA010586EA2A
:10035000010685FA47F5A3FA87F586FA47F6A5FA66
:1003600087F68EB9EED1F0BC01F0FF0102F0070272
:1003700032B110F8013B013A83EA010313B1F8D11D
:100380000020704701387047002D06BF35460338FE
:10039000073815F0010F07D1013015F4807F02BF37
:1003A000013015F4C03F0130F0BC0138704700BF88
:1003B00053B94AB9002908BF00281CBF4FF0FF31CC
:1003C0004FF0FF3000F06AB9ADF1080C6DE904CED2
:1003D00000F006F8DDF804E0DDE9022304B0704720
:1003E0002DE9F047089D0C46002B4ED194468C45D4
:1003F0008646B2FA82F262D94AB1C2F12003914034
:1004000020FA03F30CFA02FC194300FA02FE4FEA49
:100410001C471FFA8CF6B1FBF7F44FEA1E4307FBAB
:10042000141143EA014304FB06F199420AD91CEB7B
:10043000030304F1FF3080F01281994240F20F81F2
:10044000023C6344591A1FFA8EF3B1FBF7F007FB25
:10045000101143EA014300FB06F69E420AD91CEB49
:10046000030300F1FF3180F0FC809E4240F2F980EE
:10047000634402389B1B40EA044000211DB1D34075
:100480000022C5E90032BDE8F0878B4205D90DB1E5
:10049000C5E9000100210846F5E7B3FA83F1002918
:1004A00046D1A34202D39042C0F0F080861A64EB9A
:1004B00003030120002DE6D0C5E90063E3E7002A2D
:1004C00040F09080A1EB0C044FEA1C481FFA8CF717
:1004D0000121B4FBF8F64FEA1E4308FB164443EA39
:1004E000044307FB06F0984208D91CEB030306F10E
:1004F000FF3402D2984200F2CD8026461C1A1FFA21
:100500008EF3B4FBF8F008FB104443EA044300FB0D
:1005100007F79F4208D91CEB030300F1FF3402D216
:100520009F4200F2B0802046DB1B40EA0640A5E770
:10053000C1F120068B4022FA06F71F4320FA06FC81
:1005400004FA01F343EA0C03F44000FA01F8380C12
:100550004FEA1349B4FBF0FE1FFA87FC00FB1E4470
:1005600049EA04440EFB0CF9A14502FA01F20AD94A
:100570003C190EF1FF3A80F08480A14540F2818061
:10058000AEF1020E3C44A4EB09041FFA83F9B4FB5C
:10059000F0F300FB134449EA044403FB0CFCA445BC
:1005A00007D93C1903F1FF3067D2A44565D9023B56
:1005B0003C4443EA0E40A0FB0293A4EB0C049C4293
:1005C000CE469C4651D34ED055B1B8EB0E0364EBEA
:1005D0000C0404FA06F6CB401E43CC40C5E9006487
:1005E000002150E7C2F1200320FA03F10CFA02FCCB
:1005F00024FA03F394400C434FEA1C4800FA02FE2D
:100600001FFA8CF7B3FBF8F008FB1031230C43EA18
:10061000014300FB07F1994208D91CEB030300F1E9
:10062000FF362CD299422AD9023863445B1AA4B20D
:10063000B3FBF8F108FB113344EA034401FB07F371
:10064000A34208D91CEB040401F1FF3613D2A342E4
:1006500011D902396444E41A41EA004139E70446F9
:10066000F0E6084606E7C845AED2B9EB020E63EBEA
:10067000070C0138A8E73146EDE7034699E7304615
:10068000D4E7D6467FE7634402384DE70646234663
:1006900008460FE7023E634430E700BF704700BFE3
:1006A00080B588B000AF78600B467B8007F10C0303
:1006B00000221A605A609A60DA601A617B88FB60D7
:1006C00000233B6101237B610023BB6107F10C0325
:1006D0001946786808F0C4FE00BF2037BD4680BDCB
:1006E00080B588B000AF78600B467B8007F10C03C3
:1006F00000221A605A609A60DA601A617B88FB6097
:1007000000233B6100237B610023BB6107F10C03E5
:100710001946786808F0A4FE00BF2037BD4680BDAA
:1007200080B588B000AF78600B467B8013467B7045
:1007300007F10C0300221A605A609A60DA601A61AD
:100740007A787B881946786809F052F87B88FB60D4
:1007500001233B6100237B610023BB6107F10C0394
:100760001946786808F07CFE00BF2037BD4680BD82
:1007700080B590B000AFF860B9601346FB8007F118
:10078000240300221A605A609A60DA601A615A6182
:100790009A6107F1100300221A605A609A60DA60C9
:1007A0001A61FB687B620623BB620523FB6240F291
:1007B000FF733B6304237B630023BB63002387F841
:1007C0003D300D4B1B6807F124021146184605F019
:1007D000DFFDFB883B6103237B610023BB610023BA
:1007E000FB6107F110031946B86808F039FE00BF35
:1007F0004037BD4680BD00BF8801002480B500AFF2
:10080000002208210948FFF78BFF4FF48071084848
:10081000FFF766FF4FF400710548FFF761FF012104
:100820000248FFF73DFF00BF80BD00BF000802582F
:100830000014025880B584B000AFF860B9607A60E7
:10084000074AFB681360064ABB685360044A7B682A
:100850009360FFF7D3FF00BF1037BD4680BD00BFD8
:100860008801002480B584B000AF7860396001222F
:1008700008214A48FFF754FF00224FF4807148488E
:10088000FFF74EFF474B9B684FF4007244491846F0
:10089000FFF76EFF01214148FFF722FF0023BB60F5
:1008A0000023FB6016E03F4B1B68184605F018F864
:1008B0003C4B1B686421184605F0DCF8394B1B687B
:1008C000184605F009FB0246BB681344BB60FB6891
:1008D0000133FB60FB68032BE5DDBB689B08BB6055
:1008E000BA68134612019B1A1B011A462E4B134479
:1008F0005B0A2E4AA2FB03239AB27B681A80082166
:100900002648FFF7EDFE274B5B684FF480722449C1
:100910001846FFF72DFF00224FF400712048FFF723
:10092000FFFE012201211D48FFF7FAFE0023BB60F4
:100930000023FB6016E01B4B1B68184604F0D0FF39
:10094000184B1B686421184605F094F8154B1B687A
:10095000184605F0C1FA0246BB681344BB60FB6849
:100960000133FB60FB68032BE5DDBB689B08BB60C4
:10097000BA6813461B069B1A9B009B1A9B0103F146
:100980009B735B0A094AA2FB03239AB23B681A8055
:10099000FFF734FF00BF1037BD4680BD0008025886
:1009A00000140258880100240030DE00F4F64302EF
:1009B00080B500AF0121054808F002FF0346002B77
:1009C00001D1012300E00023184680BD0008025831
:1009D00080B586B000AF01F063F99C4B5B6903F40E
:1009E0000033002B1BD1BFF34F8F00BFBFF36F8FBE
:1009F00000BF964B0022C3F85022BFF34F8F00BFB9
:100A0000BFF36F8F00BF914B5B69904A43F4003393
:100A10005361BFF34F8F00BFBFF36F8F00E000BF84
:100A20008A4B5B6903F48033002B38D1874B00225B
:100A3000C3F88420BFF34F8F00BF844BD3F88030BE
:100A4000FB60FB685B0BC3F30E03BB60FB68DB085A
:100A5000C3F309037B60BB685A0143F6E07313409C
:100A60007A68920779491343C1F860327B685A1E4D
:100A70007A60002BEFD1BB685A1EBA60002BE5D11B
:100A8000BFF34F8F00BF714B5B69704A43F48033F3
:100A90005361BFF34F8F00BFBFF36F8F00E000BF04
:100AA00004F0C4FA00F01AF900F09CF900F08AFD95
:100AB00000F0F0FC03F008FD00F08AFB00F02CFBD6
:100AC00000F0DCFB00F0ACF900F046FC00F08CFA22
:100AD00000F02CFD00F092FC00F05CFB02F0ECFC5E
:100AE00000F002FC00F0B2FA00F00EFA01F066F835
:100AF00002F0C6F802F084FB554802F0C3FB04F094
:100B00001BFB03467B6107E04FF40051514808F09E
:100B100088FE012004F01CFB04F00EFB02467B69FA
:100B2000D31AB3F57A7FEFD3042001F088F9034696
:100B3000494A1360484B1B68002B19D0464B1B6871
:100B40000021184601F098F9444811F001F8444892
:100B500010F08EFF434805F081F8002300220021A9
:100B6000414806F090FB00213F4806F0DFFA04E020
:100B70003E4802F087FB01F0DDF83D4802F082FBC1
:100B800003F0A2FC3B4802F07DFB3B493B4800F0F0
:100B900017FF3B493B4800F013FF3B4802F072FB54
:100BA00001233A4A3A493B4807F0D1FC0121394830
:100BB00007F03DFD0346002B03D0374802F062FBEF
:100BC00021E004F0B9FA386100BF0121314807F093
:100BD000BBFE0346012B07D104F0AEFA02463B6987
:100BE000D31AB3F57A7FF0D904F0A6FA02463B692E
:100BF000D31AB3F57A7F03D3284802F043FB02E00F
:100C0000274802F03FFB2749274800F0D9FE274933
:100C1000274800F0D5FE2749274800F0D1FE274994
:100C2000274800F0CDFE2749274800F0C9FE274895
:100C300002F028FB264A27492748FFF7FBFD00F072
:100C40003DFF642004F084FA00BFF8E700ED00E007
:100C500008CB01080010025808070024680400248B
:100C600000050024940100245C0200241CCB010830
:100C70002CCB010844CB0108A52C00085CCB010853
:100C80006D2D000860CB010868CB0108040000242A
:100C9000C00900247002002474CB010888CB01082D
:100CA00090CB0108FD2C000894CB0108712E0008A0
:100CB00098CB0108E12D0008A0CB0108812F000886
:100CC000A8CB01087D300008B0CB0108B8CB0108E3
:100CD000040060088000501DF801002480B59CB01D
:100CE00000AF07F124034C22002118461AF002FF3E
:100CF0003B1D2022002118461AF0FCFE02200AF0BB
:100D00004BFE00233B60354BDB6A344A23F0010382
:100D1000D362324BDB6A03F001033B60304B9B69CB
:100D200023F440432E4A43F4804393612C4B9B6948
:100D300003F440433B603B6800BF294B9B6903F4CD
:100D40000053B3F5005FF8D132237B6201233B638C
:100D500040237B630123FB6380233B6420237B646C
:100D60000223BB640023FB6404233B650C237B65E7
:100D70000223BB650423FB6502233B660C237B66D1
:100D80000223BB660023FB6607F1240318460AF022
:100D90004DFE0346002B01D000F0CCFF3F237B60CB
:100DA0000323BB600023FB6008233B6100237B61BE
:100DB0004023BB614FF48063FB6100233B623B1D1A
:100DC000012118460BF08CFA0346002B01D000F0ED
:100DD000B1FF00BF7037BD4680BD00BF00040058A2
:100DE0000048025880B5B0B000AF3B46C022002199
:100DF00018461AF07FFE4FF000424FF00003C7E99B
:100E0000002300237B653B4618460BF0F5FD0346A7
:100E1000002B01D000F08EFF00BFC037BD4680BD63
:100E200080B588B000AF3B1D00221A605A609A60FE
:100E3000DA601A615A619A61304B314A1A602F4B5D
:100E40000022DA602D4B04221A612C4B00221A7505
:100E50002A4B00225A75294B01229A61274B002206
:100E60001A77264B4FF4B8625A62244B4FF48062D3
:100E70009A62224B0022DA62204B00221A631F4B37
:100E800000225A631D4B002283F838201B4B01229D
:100E9000DA631A4804F082FB0346002B01D000F00D
:100EA00049FF164B4FF400225A60144B00229A60FF
:100EB000124804F073FB0346002B01D000F03AFF08
:100EC000104B7B600623BB600623FB6040F2FF7380
:100ED0003B6104237B610023BB6100237B773B1DC7
:100EE0001946064805F054FA0346002B01D000F0DD
:100EF00021FF00BF2037BD4680BD00BF9401002404
:100F0000002102400800900C80B588B000AF3B1D66
:100F100000221A605A609A60DA601A615A619A6116
:100F20002E4B2F4A1A602D4B00225A602B4B002269
:100F3000DA602A4B04221A61284B00221A75274BCB
:100F400000225A75254B01229A61244B00221A7700
:100F5000224B00225A62214B00229A621F4B002230
:100F6000DA621E4B00221A631C4B00225A631B4B91
:100F7000002283F83820194B0122DA63174804F065
:100F80000DFB0346002B01D000F0D4FE134B0022D2
:100F90009A60124804F002FB0346002B01D000F0D7
:100FA000C9FE104B7B600623BB600023FB6040F250
:100FB000FF733B6104237B610023BB6100237B77CC
:100FC0003B1D1946054805F0E3F90346002B01D007
:100FD00000F0B0FE00BF2037BD4680BDF801002400
:100FE000006002580400600880B58AB000AF3B1D65
:100FF0002422002118461AF07DFD124B124A1A6075
:10100000104806F071F80346002B01D000F092FE64
:1010100000237B600023BB600023FB6001233B6156
:1010200000237B613B1D00221946064806F060F94B
:101030000346002B01D000F07DFE00BF2837BD46DF
:1010400080BD00BF5C0200240074004080B500AF8A
:101050002F4B304A1A602E4B4FF440729A602C4B43
:101060000022DA602A4B01221A74294B00225A749A
:10107000274B00229A74264B06225A61244B0D22DC
:101080009A61234B0D22DA61214B06221A62204B12
:1010900005225A621E4B0C229A621D4B0422DA6210
:1010A0001B4B05221A631A4B00225A63184B01226C
:1010B0009A63174B0022DA63154B00221A64144B13
:1010C00004225A64124B00229A64114B0422DA64FF
:1010D0000F4B01221A650E4B04225A650C4B00225D
:1010E0009A650B4B0122DA65094B00221A66084B00
:1010F00000225A66064B04229A66054806F0A8FFAD
:101100000346002B01D000F015FE00BF80BD00BFDC
:101110007002002400A0004080B500AF1B4B1C4AA9
:101120001A601A4B40F614625A60184B00229A60FB
:10113000164B0122DA60154B00221A61134B002274
:101140005A61124B00229A61104B0022DA610F4B58
:1011500000221A620D4808F099FB0346002B01D0CB
:1011600000F0E8FD0021094809F0E0F80346002BF3
:1011700001D000F0DFFD0021044809F022F9034608
:10118000002B01D000F0D6FD00BF80BD100300246D
:10119000001C005880B400AF0B4B0C4A1A600A4B7D
:1011A00000225A60084B00229A60074B4FF480429D
:1011B000DA60054B00221A61034B00225A6100BF1E
:1011C000BD465DF8047B7047640300240070005244
:1011D00080B500AF274B284A1A60264B4FF4800297
:1011E0005A60244B00229A60224B0F22DA60214B76
:1011F00000221A611F4B00225A611E4B4FF0806281
:101200009A611C4B4FF00052DA611A4B00221A62AD
:10121000184B00225A62174B00229A62154B00228B
:10122000DA62144B4FF080425A63124B00229A63E9
:10123000104B0022DA630F4B00221A640D4B002280
:101240005A640C4B00229A640A4B0022DA64094B60
:1012500000221A65074B00225A65064B00229A6548
:1012600004480FF079FC0346002B01D000F062FD2A
:1012700000BF80BDE00300240034014080B584B08D
:1012800000AF3B1D00221A605A609A60144B154A49
:101290001A60134B78225A60114B00229A60104B4F
:1012A0004FF47A62DA600E4B80229A610C4810F09B
:1012B00088FB0346002B01D000F03CFD20237B601F
:1012C0000023FB603B1D1946054811F025F8034635
:1012D000002B01D000F02EFD00BF1037BD4680BDB1
:1012E000680400240010004080B584B000AF3B1DAE
:1012F00000221A605A609A60154B164A1A60144B05
:1013000042F6E0625A60124B00229A60104B4FF492
:101310007A72DA600E4B80229A610D4810F051FB10
:101320000346002B01D000F005FD20237B60002345
:10133000FB603B1D1946064810F0EEFF0346002BEC
:1013400001D000F0F7FC00BF1037BD4680BD00BFE4
:10135000B40400240014004080B588B000AF07F149
:10136000100300221A605A609A60DA603B1D002266
:101370001A605A609A601F4B1F4A1A601D4B4BF649
:1013800080325A601B4B00229A601A4B4FF47A72DB
:10139000DA60184B00221A61164B00225A61154B75
:1013A00080229A61134810F00CFB0346002B01D0F9
:1013B00000F0C0FC4FF480533B6107F11003194665
:1013C0000C4810F045FD0346002B01D000F0B2FCA4
:1013D00020237B600023FB603B1D1946054810F06D
:1013E0009BFF0346002B01D000F0A4FC00BF203778
:1013F000BD4680BD000500240040014080B500AF1F
:10140000224B234A1A60214B4FF416525A601F4B4D
:1014100000229A601D4B0022DA601C4B00221A61E8
:101420001A4B0C225A61194B00229A61174B002269
:10143000DA61164B00221A62144B00225A62134BD7
:1014400000229A62114811F013F80346002B01D0D4
:1014500000F070FC00210D4813F035FC0346002B12
:1014600001D000F067FC0021084813F06AFC034635
:10147000002B01D000F05EFC044813F0EBFB0346A8
:10148000002B01D000F056FC00BF80BD4C050024AD
:101490000050004080B500AF224B234A1A60214B18
:1014A0004FF4E1325A601F4B00229A601D4B00221C
:1014B000DA601C4B00221A611A4B0C225A61194B3C
:1014C00000229A61174B0022DA61164B00221A6241
:1014D000144B00225A62134B00229A62114810F0FA
:1014E000C7FF0346002B01D000F024FC00210D486B
:1014F00013F0E9FB0346002B01D000F01BFC002198
:10150000084813F01EFC0346002B01D000F012FC2B
:10151000044813F09FFB0346002B01D000F00AFCA7
:1015200000BF80BDE00500240048004080B500AF4A
:10153000224B234A1A60214B4FF4E1325A601F4B71
:1015400000229A601D4B0022DA601C4B00221A61B7
:101550001A4B0C225A61194B00229A61174B002238
:10156000DA61164B00221A62144B00225A62134BA6
:1015700000229A62114810F07BFF0346002B01D035
:1015800000F0D8FB00210D4813F09DFB0346002B13
:1015900001D000F0CFFB0021084813F0D2FB034636
:1015A000002B01D000F0C6FB044813F053FB0346A8
:1015B000002B01D000F0BEFB00BF80BD74060024EC
:1015C0000014014080B58EB000AF07F12403002263
:1015D0001A605A609A60DA601A61C14BD3F8E03041
:1015E000BF4A43F01003C2F8E030BD4BD3F8E030FF
:1015F00003F010033B623B6AB94BD3F8E030B84AC2
:1016000043F00403C2F8E030B54BD3F8E03003F008
:101610000403FB61FB69B24BD3F8E030B04A43F0FE
:101620002003C2F8E030AE4BD3F8E03003F02003E3
:10163000BB61BB69AA4BD3F8E030A94A43F08003F1
:10164000C2F8E030A64BD3F8E03003F080037B61B2
:101650007B69A34BD3F8E030A14A43F00103C2F801
:10166000E0309F4BD3F8E03003F001033B613B696E
:101670009B4BD3F8E0309A4A43F00203C2F8E030C3
:10168000974BD3F8E03003F00203FB60FB68944B08
:10169000D3F8E030924A43F00803C2F8E030904BB0
:1016A000D3F8E03003F00803BB60BB688C4BD3F881
:1016B000E0308B4A43F04003C2F8E030884BD3F867
:1016C000E03003F040037B607B6800224FF60B01A3
:1016D000844808F08DF801221021824808F088F82B
:1016E00000224FF44061804808F082F8002208216F
:1016F0007E4808F07DF8002208217D4808F078F83F
:10170000002244F681017B4808F072F8002240F67E
:101710000841794808F06CF8002244F260017748EB
:1017200008F066F808237B620123BB620023FB629A
:1017300002233B6307F1240319466A4807F090FE31
:1017400010237B620123BB620123FB6202233B6304
:1017500007F124031946634807F082FE4FF4005353
:101760007B624FF48813BB620023FB6207F1240302
:1017700019465E4807F074FE40237B620023BB627B
:101780000023FB6207F124031946574807F068FE5F
:101790004FF440637B620123BB620023FB620023A2
:1017A0003B6307F1240319464F4807F059FE3223E3
:1017B0007B620223BB620023FB6200233B630B239B
:1017C0007B6307F124031946484807F049FE0823C4
:1017D0007B620123BB620023FB6200233B6307F1B2
:1017E00024031946414807F03BFE86237B6202230F
:1017F000BB620023FB6200233B630B237B6307F187
:10180000240319463A4807F02BFE08237B62012384
:10181000BB620023FB6200233B6307F124031946EC
:10182000334807F01DFE20237B620023BB620023A8
:10183000FB6207F1240319462D4807F011FE44F618
:1018400001037B620123BB620023FB6200233B6335
:1018500007F124031946274807F002FE48F2264301
:101860007B624FF48813BB620023FB6207F1240301
:101870001946204807F0F4FD4FF603037B6201236D
:10188000BB620023FB6200233B6307F1240319467C
:10189000144807F0E5FD4FF400537B620223BB625E
:1018A0000023FB6200233B630B237B6307F12403CC
:1018B0001946104807F0D4FD40F608437B62012327
:1018C000BB620023FB6200233B6307F1240319463C
:1018D000094807F0C5FD44F260037B6210E000BFD9
:1018E0000044025800100258001402580008025820
:1018F0000000025800040258000C02580018025858
:101900000123BB620023FB6200233B6307F1240336
:101910001946294807F0A4FD80237B624FF4881301
:10192000BB620023FB6207F124031946224807F03B
:1019300097FD4FF420537B620223BB620023FB62BE
:1019400000233B630B237B6307F1240319461A48EA
:1019500007F086FD80237B620123BB620023FB62CC
:1019600002233B6307F124031946144807F078FD6E
:1019700000220021072005F00AFB072005F021FBCB
:1019800000220021082005F002FB082005F019FBC9
:1019900000220021172005F0FAFA172005F011FBAC
:1019A00000220021282005F0F2FA282005F009FB8A
:1019B00000BF3837BD4680BD0018025800040258E9
:1019C00080B582B000AF786039607968094801F06D
:1019D00059FC3B6898470346002B03D0064801F0AA
:1019E00051FC02E0054801F04DFC00BF0837BD4640
:1019F00080BD00BFC0CB0108CCCB010888CB01085B
:101A000080B582B000AF78607B681A68064B1B68AF
:101A10009A4204D1054B1B68184600F0C3FA00BF78
:101A20000837BD4680BD00BF6804002408070024B5
:101A300090B585B000AF78601B4804F04DFAF860AF
:101A4000FB6840F6E44202FB03F3184AA2FB0323BF
:101A5000DB0BBB60164B1868BB68164A82FB03128F
:101A60009211DB17D31A1C46BB68124A82FB031281
:101A70009111DA178A1A4FF47A7101FB02F29A1A5D
:101A80000323214600F02AFAFB681B0900220021EB
:101A9000094805F0F8FB0021074805F047FB00BFA7
:101AA0001437BD4690BD00BF940100240180008022
:101AB00008070024D34D62105C02002480B582B078
:101AC00002AFFEF775FF0346002B67D03549364855
:101AD000FEF7C8FE4FF42072002134481AF00AF8CD
:101AE000334B1868334B19884FF4A07300930123CC
:101AF000002202F053F92E4B1B684FF420722B4941
:101B0000184602F0ABF92A4B18682B4B1A880123B0
:101B10000093F023002102F041F9254B1B684FF49C
:101B2000F0722249184602F099F94FF42072FF2111
:101B30001E4819F0DFFF1E4B18681B4B19884FF425
:101B4000A07300930123002202F028F9184B1B68B0
:101B50004FF420721549184602F080F9144B1868AA
:101B6000104B1A8801230093F023002102F016F98C
:101B70000F4B1B684FF4F0720C49184602F06EF9D7
:101B8000094B1A880B4B1A80064B1A880A4B1A808D
:101B900000BFFEF70DFF0346002BFAD100BFBD4684
:101BA00080BD00BF0E0700240C070024140700248A
:101BB00000000024100700241207002480B588B01C
:101BC00000AF00233B6000237B600723FB60012301
:101BD0003B610023BB613B4619461B4806F016FCDF
:101BE0000346002B01D000F0A5F8184B40F221323B
:101BF0001A60164B00225A60144B00229A60134B55
:101C00000222DA60114B00221A61104B4FF480124D
:101C10005A610E4B4FF400129A610C4B0022DA61AC
:101C20000A4B00221A62084806F066FC0346002BA5
:101C300001D000F07FF800220121034806F09AFE4F
:101C400000BF2037BD4680BD70020024C0090024BB
:101C500080B582B000AF786039603B6803F0010363
:101C6000002B14D00C4B0D4A4021786806F000FD83
:101C70000346002B01D000F05DF8002201217868B6
:101C800006F078FE0346002B01D000F053F800BFA9
:101C90000837BD4680BD00BFBC090024940900245C
:101CA00080B584B000AF3B4600221A605A609A604B
:101CB000DA6005F0A1F901233B7000237B7000235B
:101CC0007B601F233B7287237B720023BB72002340
:101CD000FB7201233B7301237B730023BB7300233F
:101CE000FB733B46184605F0BFF901237B700F4B91
:101CF0007B6010233B7200237B720323FB72012362
:101D0000FB733B46184605F0AFF902237B70084B86
:101D10007B6008233B723B46184605F0A5F904207A
:101D200005F082F900BF1037BD4680BD00000230CB
:101D30000000043080B400AF72B600BF00BFFDE702
:101D400080B582B000AF786039607B685B683A68C4
:101D50009A4209D17B689A687B681B689A4203D1D2
:101D60007B68DB68012098477B689B683A689A42E9
:101D700009D17B685A687B681B689A4203D17B68EB
:101D8000DB6800209847786800F036F800BF083715
:101D9000BD4680BD80B483B000AF786039607B6899
:101DA0005B683A689A4204D07B689B683A689A42BA
:101DB00002D17B683A681A6000BF0C37BD465DF8F7
:101DC000047B704780B485B000AFF860B9607A607A
:101DD0003B60FB6800221A60FB68BA685A60FB68C7
:101DE0007A689A60FB683A68DA600123184614370B
:101DF000BD465DF8047B704780B483B000AF786067
:101E00007B6800221A6000BF0C37BD465DF8047B7A
:101E1000704780B582B000AF786039607B681B681E
:101E2000002B04D139687868FFF7B4FF03E0396804
:101E30007868FFF785FF00BF0837BD4680BD80B5D5
:101E400084B000AF78607B680C33184619F06EFCE4
:101E50000346FB60FB68002B01D1002308E0FB6810
:101E60007A681A60FB6803F10C02FB689A60FB68F1
:101E700018461037BD4680BD80B485B000AF78608D
:101E800039600023FB6019E03968124BA3FB012382
:101E9000DA0813469B0013445B00CA1A7B689968F2
:101EA000FB680B440C498A5C1A703B68094AA2FB28
:101EB0000323DB083B60FB680133FB607B681A6827
:101EC000FB689A42E0D800BF00BF1437BD465DF8FA
:101ED000047B7047CDCCCCCC28CD010880B489B030
:101EE00000AFF860B9607A603B60FB689B68FB619B
:101EF0000023BB6118E07968284BA3FB0123DA08B3
:101F000013469B0013445B00CA1AFB69591CF96114
:101F100023498A5C1A707B68204AA2FB0323DB08F2
:101F20007B60BB690133BB61BB693A689A42E2D806
:101F300000237B6118E0B968184BA3FB0123DA0882
:101F400013469B0013445B00CA1AFB69591CF961D4
:101F500013498A5C1A70BB68104AA2FB0323DB0892
:101F6000BB607B6901337B61FB681A683B68D21AEE
:101F70007B699A42DFD8FB689A683B6813441A78F9
:101F8000FB6899683B680B4462F07F02D2B21A701A
:101F900000BF2437BD465DF8047B7047CDCCCCCC68
:101FA00028CD010880B584B000AF78607B685B689D
:101FB0005A1C7B685A607B685B68FB73FA7B7B68A2
:101FC0001B689A4204D97B6800225A600023FB7385
:101FD000F87B7B689A68FB7B13441B78194600F0FA
:101FE00005F800BF1037BD4680BD0000B0B598B001
:101FF00000AF78600B46FB70344B07F134041D468C
:102000000FCD0FC495E80F0084E80F00304B07F1A7
:1020100024040FCB84E80F002E4B07F114040FCBE0
:1020200084E80F002C4A07F10C0392E8030083E8D0
:10203000030001227B6802FA03F387F8573000237C
:10204000FB651AE0FB6D9B0060333B4453F84C0C7E
:10205000FB6D5B0060333B4433F8541C97F857200A
:10206000FB6D42FA03F3DBB203F00103DBB21A4665
:1020700007F0BEFBFB6D0133FB65FB6D032BE1DD60
:102080000023BB6519E0BB6D9B0060333B4453F8F4
:102090002C0CBB6D5B0060333B4433F83C1CFA787E
:1020A000BB6D42FA03F3DBB203F00103DBB21A4665
:1020B00007F09EFBBB6D0133BB65BB6D072BE2DDFB
:1020C00000BF00BF6037BD46B0BD00BFD0CB010828
:1020D000F0CB010800CC010810CC010880B483B01B
:1020E00000AF0A4BD3F8F430084A43F00203C2F8B9
:1020F000F430064BD3F8F43003F002037B607B68C6
:1021000000BF0C37BD465DF8047B704700440258A1
:1021100080B5BCB000AF786007F1DC0300221A6024
:102120005A609A60DA601A6107F11803C022002130
:10213000184619F0DFFC7B681B684C4A934249D172
:102140004FF400224FF00003C7E906234FF4003399
:10215000C7F8BC3007F1180318460AF04DFC0346D7
:10216000002B01D0FFF7E6FD414BD3F8D830404AB1
:1021700043F02003C2F8D8303D4BD3F8D83003F0F9
:1021800020037B617B693A4BD3F8E030384A43F057
:102190000103C2F8E030364BD3F8E03003F001031E
:1021A0003B613B694023C7F8DC300323C7F8E030CC
:1021B0000023C7F8E43007F1DC0319462D4807F087
:1021C0004FF900220021122004F0E1FE122004F059
:1021D000F8FE46E07B681B68274A934241D14FF4E2
:1021E00000224FF00003C7E906234FF40033C7F87D
:1021F000BC3007F1180318460AF0FEFB0346002B1B
:1022000001D0FFF797FD1A4BD3F8E030184A43F09E
:102210008073C2F8E030164BD3F8E03003F08073DF
:10222000FB60FB68124BD3F8E030114A43F0200307
:10223000C2F8E0300E4BD3F8E03003F02003BB606F
:10224000BB684FF44073C7F8DC300323C7F8E030B5
:102250000023C7F8E43007F1DC031946074807F00C
:10226000FFF800BFF037BD4680BD00BF002102402F
:10227000004402580000025800600258001402583E
:1022800080B58AB000AF786007F1140300221A60AD
:102290005A609A60DA601A617B681B681C4A934234
:1022A00031D11C4BD3F8E8301A4A43F00053C2F83E
:1022B000E830184BD3F8E83003F000533B613B693A
:1022C000144BD3F8E030134A43F00103C2F8E03076
:1022D000104BD3F8E03003F00103FB60FB681023E0
:1022E0007B610323BB610023FB6107F114031946E3
:1022F000094807F0B5F800220021362004F047FE17
:10230000362004F05EFE00BF2837BD4680BD00BF0A
:1023100000740040004402580000025880B5BAB072
:1023200000AF786007F1D40300221A605A609A6007
:10233000DA601A6107F11003C0220021184619F073
:10234000D9FB7B681B682B4A93424FD14FF4004264
:102350004FF00003C7E904234FF08053C7F88030E3
:1023600007F1100318460AF047FB0346002B01D083
:10237000FFF7E0FC204BD3F8EC301F4A43F48073A6
:10238000C2F8EC301C4BD3F8EC3003F48073FB60E4
:10239000FB68194BD3F8E030174A43F00203C2F848
:1023A000E030154BD3F8E03003F00203BB60BB68AC
:1023B0004FF44073C7F8D4300223C7F8D830002355
:1023C000C7F8DC300023C7F8E0300923C7F8E43051
:1023D00007F1D4031946094807F042F8002200210A
:1023E000132004F0D4FD132004F0EBFD00BFE83708
:1023F000BD4680BD00A000400044025800040258C1
:1024000080B5BAB000AF786007F1D40300221A603B
:102410005A609A60DA601A6107F11003C022002145
:10242000184619F067FB7B681B68274A934247D11F
:102430004FF010024FF00003C7E904234FF440733C
:10244000C7F8A83007F1100318460AF0D5FA03467A
:10245000002B01D0FFF76EFC1C4BD3F8E0301B4A79
:1024600043F00803C2F8E030184BD3F8E03003F033
:102470000803FB60FB684FF44053C7F8D4301223C5
:10248000C7F8D8300023C7F8DC300023C7F8E030A5
:102490000423C7F8E43007F1D40319460C4806F0CA
:1024A000DFFF0A4BD3F8F430084A43F08003C2F848
:1024B000F430064BD3F8F43003F08003BB60BB6804
:1024C00000BFE837BD4680BD001C005800440258DC
:1024D000000C025880B5BCB000AF786007F1DC0397
:1024E00000221A605A609A60DA601A6107F11803D4
:1024F000C0220021184619F0FDFA7B681B68414A8A
:1025000093427AD14FF480324FF00003C7E906239B
:1025100004233B620B237B626423BB620423FB62C4
:1025200002233B63C0237B632023BB630023FB6345
:102530004FF48033BB6607F1180318460AF05CFAC3
:102540000346002B01D0FFF7F5FB2F4BD3F8D43017
:102550002D4A43F48033C2F8D4302B4BD3F8D43017
:1025600003F480337B617B69274BD3F8E030264A44
:1025700043F00403C2F8E030234BD3F8E03003F01B
:1025800004033B613B69204BD3F8E0301E4A43F023
:102590000803C2F8E0301C4BD3F8E03003F0080326
:1025A000FB60FB684FF4F853C7F8DC300223C7F830
:1025B000E0300023C7F8E4300323C7F8E8300C23E9
:1025C000C7F8EC3007F1DC031946104806F048FF65
:1025D0000423C7F8DC300223C7F8E0300023C7F833
:1025E000E4300323C7F8E8300C23C7F8EC3007F1D8
:1025F000DC031946064806F033FF00BFF037BD463E
:1026000080BD00BF0070005200440258000802580C
:10261000000C025880B5BAB000AF786007F1D4035F
:1026200000221A605A609A60DA601A6107F110039A
:10263000C0220021184619F05DFA7B681B68264A03
:10264000934244D14FF400524FF00003C7E90423F2
:1026500000237B6707F1100318460AF0CDF9034603
:10266000002B01D0FFF766FB1C4BD3F8F0301B4A60
:1026700043F40053C2F8F030184BD3F8F03003F4B1
:102680000053FB60FB68154BD3F8E030134A43F06E
:102690001003C2F8E030114BD3F8E03003F0100320
:1026A000BB60BB686423C7F8D4300223C7F8D830B6
:1026B0000023C7F8DC300023C7F8E0300523C7F853
:1026C000E43007F1D4031946054806F0C9FE00BFFF
:1026D000E837BD4680BD00BF0034014000440258C9
:1026E0000010025880B586B000AF78607B681B6828
:1026F000274A934217D1274BD3F8E830254A43F0B5
:102700001003C2F8E830234BD3F8E83003F010038D
:102710007B617B6900220021362004F038FC3620E2
:1027200004F04FFC30E07B681B681B4A934217D1D2
:10273000184BD3F8E830174A43F02003C2F8E830CA
:10274000144BD3F8E83003F020033B613B690022CF
:102750000021372004F01BFC372004F032FC13E08A
:102760007B681B680D4A93420ED10A4BD3F8F030B8
:10277000084A43F48033C2F8F030064BD3F8F03007
:1027800003F48033FB60FB6800BF1837BD4680BD93
:102790000010004000440258001400400040014076
:1027A00080B5BEB000AF786007F1E40300221A6084
:1027B0005A609A60DA601A6107F12003C022002192
:1027C000184619F097F97B681B68774A934247D1FE
:1027D0004FF002024FF00003C7E908230023C7F8B7
:1027E000983007F1200318460AF006F90346002B3B
:1027F00001D0FFF79FFA6D4BD3F8E8306B4A43F4F2
:102800008013C2F8E830694BD3F8E83003F4801342
:10281000FB61FB69654BD3F8E030644A43F0020387
:10282000C2F8E030614BD3F8E03003F00203BB6143
:10283000BB694FF48253C7F8E4300223C7F8E8308D
:102840000023C7F8EC300023C7F8F0300E23C7F898
:10285000F43007F1E4031946554806F001FE9FE005
:102860007B681B68534A934247D14FF002024FF0F6
:102870000003C7E908230023C7F8983007F12003B5
:1028800018460AF0B9F80346002B01D0FFF752FAB8
:10289000464BD3F8E830454A43F48023C2F8E83089
:1028A000424BD3F8E83003F480237B617B693F4BD4
:1028B000D3F8E0303D4A43F00803C2F8E0303B4B28
:1028C000D3F8E03003F008033B613B694FF44073F9
:1028D000C7F8E4300223C7F8E8300023C7F8EC302B
:1028E0000023C7F8F0300723C7F8F43007F1E403FA
:1028F0001946314806F0B4FD52E07B681B682F4A48
:1029000093424DD14FF001024FF00003C7E9082375
:102910000023C7F89C3007F1200318460AF06CF832
:102920000346002B01D0FFF705FA204BD3F8F03017
:102930001E4A43F02003C2F8F0301C4BD3F8F030AD
:1029400003F02003FB60FB68184BD3F8E030174A14
:1029500043F00403C2F8E030144BD3F8E03003F046
:102960000403BB60BB68C023C7F8E4300223C7F888
:10297000E8300023C7F8EC300023C7F8F030072315
:10298000C7F8F43007F1E40319460D4806F068FD76
:1029900000220021472004F0FAFA472004F011FB3E
:1029A00000BFF837BD4680BD0050004000440258CB
:1029B0000004025800480040000C02580014014076
:1029C0000008025880B400AF00BFFDE780B400AF3C
:1029D00000BFFDE780B400AF00BFFDE780B400AFEB
:1029E00000BFFDE780B400AF00BFFDE780B400AFDB
:1029F00000BFBD465DF8047B704780B400AF00BFE8
:102A0000BD465DF8047B704780B400AF00BFBD4693
:102A10005DF8047B704780B500AF02F079FB00BF22
:102A200080BD80B500AF022006F015FF00BF80BD5D
:102A300080B500AF042006F00EFF00BF80BD00008F
:102A400080B500AF024803F055FA00BF80BD00BF5B
:102A50009401002480B500AF024806F005F800BFDD
:102A600080BD00BF7002002480B500AF202006F0BA
:102A7000F2FE802006F0EFFE00BF80BD80B500AF03
:102A80004FF4806006F0E7FE4FF4005006F0E3FEDE
:102A90004FF4004006F0DFFE00BF80BD80B500AF00
:102AA000034804F09AFB03480FF0CAF800BF80BD4A
:102AB0005C0200246804002480B500AF02480FF0D7
:102AC000BFF800BF80BD00BFB404002480B500AFD4
:102AD00002480FF0BFFE00BF80BD00BF7406002497
:102AE00080B500AF024807F0F9FD00BF80BD00BF10
:102AF000C023002480B400AF01231846BD465DF812
:102B0000047B704780B582B000AF7860396019F0FF
:102B1000ABF8034616221A604FF0FF331846083709
:102B2000BD4680BD80B582B000AF78604FF0FF3108
:102B30007868FFF7E7FF00BFFDE780B586B000AF1C
:102B4000F860B9607A6000237B610AE0AFF300802F
:102B50000146BB685A1CBA60CAB21A707B6901335D
:102B60007B617A697B689A42F0DB7B68184618378C
:102B7000BD4680BD80B586B000AFF860B9607A60B0
:102B800000237B6109E0BB685A1CBA601B781846B9
:102B9000AFF300807B6901337B617A697B689A427D
:102BA000F1DB7B6818461837BD4680BD80B483B022
:102BB00000AF78604FF0FF3318460C37BD465DF824
:102BC000047B704780B483B000AF786039603B68A5
:102BD0004FF400525A60002318460C37BD465DF88A
:102BE000047B704780B483B000AF7860012318463F
:102BF0000C37BD465DF8047B704780B485B000AFEC
:102C0000F860B9607A60002318461437BD465DF855
:102C1000047B704780B586B000AF7860144A154BCE
:102C2000D31A7B617B693B61134B1B68002B02D17C
:102C3000114B124A1A60104B1A687B6813443A69A8
:102C40009A4207D219F010F803460C221A604FF08E
:102C5000FF3309E0084B1B68FB60074B1A687B6871
:102C60001344054A1360FB6818461837BD4680BDFB
:102C70000000082400040000E4090024502C002473
:102C800080B500AF054B4FF400424FF4806104481B
:102C9000FFF798F80123184680BD00BF41300008B7
:102CA000E809002480B586B002AFA023FB81002391
:102CB0007B600023BB6001233B703A46F989C8233F
:102CC000009301230C4806F07DFE0346002B01D043
:102CD00000230DE03A1DF989C8230093012306481B
:102CE00006F088FF0346002B01D0002300E00123FB
:102CF00018461037BD4680BD1003002480B586B04D
:102D000002AF174A07F1080392E803001860043382
:102D1000198000233B600023BB8000221021114852
:102D200006F066FD3A4607F10801C8230093062322
:102D30000D480EF023FA0346002B01D000230AE0D1
:102D400001221021074806F053FD7B79EF2B01D0BB
:102D5000002300E0012318461037BD4680BD00BFA8
:102D600018CC010800100258E003002480B582B09E
:102D700000AF174A3B4692E80300186004331980FD
:102D8000144B154A1A60134B1B680122194613484D
:102D90000FF014FD3946C823062210480FF0B8FB87
:102DA0000346002B01D000230DE0642002F0D0F98F
:102DB0003B4609491846FDF793FA0346002B01D01C
:102DC000002300E0012318460837BD4680BD00BF40
:102DD00020CC0108F8090024100A002474060024FD
:102DE00080B584B000AF1E4A07F10C03126811468B
:102DF00019800233120C1A7000233B603B1D002225
:102E00001A605A6001224FF40061164806F0F0FC87
:102E100007F10C01C823032213480FF079FB034686
:102E2000002B01D0002317E039464FF47A730222B9
:102E30000D480FF0FBFB0346002B01D000230BE0F5
:102E40003B461946094800F01DFA00224FF4006184
:102E5000044806F0CDFC012318461037BD4680BD5E
:102E60002CCC0108000402584C05002428CC010891
:102E700090B593B000AF3D4B07F12C040FCB07C4C6
:102E800023700023FB6107F1200300221A605A60BF
:102E90001A7200223649374815F09AFE0346002B75
:102EA00001D000235EE002223349344815F0D6FEFB
:102EB000034687F8473097F84730002B01D00023AE
:102EC00050E007F13C0307F12C010D222B4816F0CE
:102ED000BEF9034687F8473097F84730002B04D0F7
:102EE000264816F0A7FB00233CE0244816F0A2FB7E
:102EF0003B1D1946204816F0C7FB034687F84730AC
:102F000097F84730002B01D000232BE001221A490B
:102F10001A4815F0A3FE034687F8473097F8473064
:102F2000002B01D000231DE007F1400307F11C0135
:102F30000D22124816F04CF80346002B04D00F481F
:102F400016F078FB00230DE007F11C0207F12C03BB
:102F500011461846FDF7C4F90346002B01D10123A1
:102F600000E0002318464C37BD4690BD3CCC01081C
:102F7000800A0024840A002430CC0108B40C002408
:102F800080B584B000AF42F22833BB6002F0D4F8C1
:102F90007860284B00221A60264B1B68264A136073
:102FA0000923FB600921254800F06CF91CE002F0C0
:102FB000C3F802467B68D21AFB684FF47A7101FBB2
:102FC00003F31946BB685B1A9A420DD900F04EF91B
:102FD0000346013B184600F035F9FB685A1EFA60BB
:102FE0001946164800F04EF9134B1B68002B03D00E
:102FF000104B1B68002B07D102F09EF802467B683D
:10300000D31ABA689A42D2D800F030F90346013B8D
:10301000184600F017F902F08FF802467B68D31AC1
:10302000BA689A4201D8002300E0012318461037FD
:10303000BD4680BD000A0024FC0900244CCC0108D8
:1030400080B483B000AF0346FB71FB79002B02D044
:10305000012B04D007E0074B01221A6003E0064B66
:1030600001221A6000BF00BF0C37BD465DF8047B2B
:10307000704700BF040A0024080A002480B584B009
:1030800000AF42F22833BB600923FB6002F054F822
:103090007860284B00221A60264B1B68264A136072
:1030A000254B1B68254A13601AE002F045F80246DA
:1030B0007B68D31AFA68224902FB01F1BA680A4414
:1030C00093420DD900F0D2F80346013B184600F0B8
:1030D000B9F8FB685A1EFA6019461A4800F0D2F88F
:1030E000164B1B68002B07D0134B1B68002B03D01B
:1030F000104B1B68002B07D102F01EF802467B68BC
:10310000D21ABB689A42D0D300F0B0F80346013B14
:10311000184600F097F802F00FF802467B68D21AC2
:10312000BB689A4201D3002300E001231846103700
:10313000BD4680BD0C0A0024080A0024040A0024AD
:1031400018FCFFFF4CCC010880B582B000AF78605E
:10315000074B1B680133064A1360054B1B680122AD
:10316000194678680FF02AFB00BF0837BD4680BDBE
:10317000F809002480B582B000AF0346FB80FB88CD
:10318000B3F5004F25D0B3F5004F2DDCB3F5005F4C
:1031900029D0B3F5005F27DCB3F5806F13D0B3F50A
:1031A000806F21DC202B1AD0202B1DDC022B02D0BB
:1031B000042B04D018E00E4B01221A6014E00D4BD2
:1031C00001221A6010E04FF480610B48FEF721FEE7
:1031D0000AE04FF400410848FEF71BFE04E0074BED
:1031E00001221A6000E000BF00BF0837BD4680BD65
:1031F000FC090024000A0024E80900240C0A002429
:1032000090B58FB006AF3B1D184601F02FF84FF474
:10321000A0730593F02304936C4607F110030FCBC2
:1032200084E80F003B1D0ECB054800F037FB002162
:10323000034800F02CFE00BF2437BD4690BD00BF00
:10324000500A002480B483B000AF786072B600BF2B
:10325000054A7B68136062B600BF00BF0C37BD46ED
:103260005DF8047B704700BF740A002480B400AF8F
:10327000034B1B681846BD465DF8047B704700BFD2
:10328000740A00240FB480B5ADF5087D02AF864BFB
:103290001B68B3F5167F01DB0023FDE007F506731D
:1032A000A3F5867300221A600433FC22002118461D
:1032B00018F020FC07F5097207F50673A3F588736B
:1032C0001A6007F50673A3F5887307F586701A6808
:1032D000D7F8201218F004FCC7F80C020023C7F836
:1032E000143207F586731846FDF704F80346013BD0
:1032F00007F50672A2F58672D35C0A2B02D1012370
:10330000C7F8143207F50673A3F58A730A221A80E8
:1033100007F5827207F586731146184618F0F2FB1E
:10332000C7F8100272B600BF6BE03B1DD7F8101251
:10333000184618F0C6FC5C4B1A685C4B83FB021302
:1033400013441911D317C91A0B461B015B1A5B00F2
:10335000D11A8BB2DB0099B2534B1B68534A82FBE4
:1033600003021A441211DB17D31A9BB21B019AB243
:103370003B1D4FF6FF7000904D4800F0F1FF3B1DE4
:103380001846FCF7B7FF0346474A126813441A462B
:10339000454B1A6007F582731946002018F0B2FBFE
:1033A000C7F81002D7F81032002B2AD03E4B1A680B
:1033B0003E4B83FB021313441911D317C91A0B4652
:1033C0001B015B1A5B00D11A002915D0364B1A6815
:1033D000364B83FB021313441911D317C91A0B463A
:1033E0001B015B1A5B00D11AC1F11E022E4B1B6838
:1033F00013442D4A136004E02B4B1B681E332A4AEA
:103400001360D7F81032002B0AD0D7F81002FCF75F
:1034100071FF0346244A12681344B3F5167F84D320
:10342000D7F81432002B2AD01F4B1A681F4B83FB8E
:10343000021313441911D317C91A0B461B015B1A47
:103440005B00D11A002915D0174B1A68174B83FB64
:10345000021313441911D317C91A0B461B015B1A27
:103460005B00D11AC1F11E020F4B1B6813440E4AB8
:10347000136004E00C4B1B681E330B4A13600D4BAA
:103480001A68094B1B689342B8BF1346094A136078
:1034900062B600BFD7F80C32184607F50677BD466E
:1034A000BDE8804004B07047740A00248988888889
:1034B000500A0024780A002480B500AF044905486A
:1034C00016F068F903461A46034B1A7000BF80BD18
:1034D000800A002434CD01087C0A002480B400AFA7
:1034E00000231846BD465DF8047B704780B582B066
:1034F00000AF0023FB7100F079F80346012B01D0E7
:10350000022312E00B480BF075FF0346FB71FB79B9
:10351000002B09D14FF4804106480CF031FE0346E0
:10352000002B01D00123FB71FB7918460837BD46FB
:1035300080BD00BF6403002480B588B002AFF8608E
:10354000B9607A603B600023FB753B6800937B6841
:10355000BA68F96806480CF06DF80346002B01D0F4
:103560000123FB75FB7D18461837BD4680BD00BFA3
:103570006403002480B588B002AFF860B9607A6057
:103580003B600023FB753B6800937B68BA68F96871
:1035900006480CF0D9F90346002B01D00123FB7536
:1035A000FB7D18461837BD4680BD00BF640300246C
:1035B00080B500AF05480CF0F5FE0346042B14BFA0
:1035C00001230023DBB2184680BD00BF6403002442
:1035D00080B582B000AF7860796803480CF0A4FD34
:1035E00000BF0837BD4680BD6403002480B582B0AB
:1035F00000AF0123FB7100F00BF80346002B01D153
:103600000023FB71FB79DBB218460837BD4680BD4D
:1036100080B582B000AF0123FB714021064806F05F
:10362000CFF80346002B01D00023FB71FB7918462D
:103630000837BD4680BD00BF0014025880B582B077
:1036400000AF0346FB710B4B01221A70FFF7B0FF6E
:103650000346002B07D1074B1B78DBB223F0010395
:10366000DAB2044B1A70034B1B78DBB218460837EA
:10367000BD4680BD0600002480B582B000AF034681
:10368000FB710B4B01221A70FFF730FF0346002B32
:1036900007D1FB791846FFF7D1FF03461A46044BC2
:1036A0001A70034B1B78DBB218460837BD4680BD45
:1036B0000600002480B582B000AF0346FB71FB79A1
:1036C0001846FFF7BBFF034618460837BD4680BDC6
:1036D00080B586B000AFB9607A603B600346FB738B
:1036E0000123FB754FF0FF333A687968B868FFF73C
:1036F00023FF0346002B07D100BFFFF759FF034606
:10370000002BFAD10023FB75FB7D18461837BD4608
:1037100080BD80B586B000AFB9607A603B6003467B
:10372000FB730123FB754FF0FF333A687968B86883
:10373000FFF720FF0346002B07D100BFFFF738FF3C
:103740000346002BFAD10023FB75FB7D1846183782
:10375000BD4680BD80B58CB000AF03463A60FB71BA
:103760000B46BB71012387F82F30254B1B78DBB24A
:1037700003F00103002B01D003233CE0BB79032BB2
:1037800034D801A252F823F099370008A137000875
:10379000B9370008D3370008002387F82F3028E016
:1037A00007F108031846FFF713FF3A6A3B681A60EF
:1037B000002387F82F301CE007F108031846FFF7B5
:1037C00007FF7B6A9AB23B681A80002387F82F3084
:1037D0000FE007F108031846FFF7FAFE7B6A5A0A62
:1037E0003B681A60002387F82F3002E0042387F833
:1037F0002F3097F82F3018463037BD4680BD00BFB8
:103800000600002480B582B000AF78607B681B6939
:103810004AF6AC6103209847034683F00103DBB20C
:10382000002B01D0002335E07B681B6907210C20A9
:103830009847034683F00103DBB2002B01D000233D
:1038400028E07B681B690F210D209847034683F011
:103850000103DBB2002B01D000231BE07B681B6956
:103860004FF424510E209847034683F00103DBB246
:10387000002B01D000230DE07B681B69B3211E20C3
:103880009847034683F00103DBB2002B01D00023ED
:1038900000E0012318460837BD4680BD84B0B0B5AE
:1038A00084B000AF786007F1240080E80E007B68E8
:1038B0003A6C1A607B687A6C5A607B6803F1080482
:1038C00007F124050FCD0FC495E8070084E8070031
:1038D0007B680833FB60FB681B689847034683F0EE
:1038E0000103DBB2002B01D0002314E2FB685B680C
:1038F0009847034683F00103DBB2002B01D000237D
:1039000009E2FB689B6914209847FB681B69012149
:1039100000209847034683F00103DBB2002B01D05F
:103920000023F8E1F868FFF76DFF034683F0010319
:10393000DBB2002B01D00023EDE1FB681B6946F6EA
:103940003F1101209847034683F00103DBB2002BAF
:1039500001D00023DFE1FB681B694FF4C061022046
:103960009847034683F00103DBB2002B01D000230C
:10397000D1E1FB681B69002110209847034683F0C2
:103980000103DBB2002B01D00023C4E1FB689B697B
:103990000A209847FB681B6946F2B001112098473E
:1039A000034683F00103DBB2002B01D00023B2E118
:1039B000FB681B69002105209847034683F001033B
:1039C000DBB2002B01D00023A5E1FB681B690021BD
:1039D00006209847034683F00103DBB2002B01D099
:1039E000002398E1FB681B694EF61C71162098476E
:1039F000034683F00103DBB2002B01D000238AE1F0
:103A0000FB681B69032117209847034683F00103D5
:103A1000DBB2002B01D000237DE1FB681B6940F283
:103A2000332107209847034683F00103DBB2002BC4
:103A300001D000236FE1FB681B6945F212310B20B6
:103A40009847034683F00103DBB2002B01D000232B
:103A500061E1FB681B6900210F209847034683F052
:103A60000103DBB2002B01D0002354E1FB681B698A
:103A7000002141209847034683F00103DBB2002B6D
:103A800001D0002347E1FB681B69002142209847D1
:103A9000034683F00103DBB2002B01D000233AE19F
:103AA000FB681B69002148209847034683F0010307
:103AB000DBB2002B01D000232DE1FB681B6940F233
:103AC0003F1149209847034683F00103DBB2002BE6
:103AD00001D000231FE1FB681B694FF46F414420B4
:103AE0009847034683F00103DBB2002B01D000238B
:103AF00011E1FB681B69002145209847034683F0CC
:103B00000103DBB2002B01D0002304E1FB681B6939
:103B100040F23F1146209847034683F00103DBB291
:103B2000002B01D00023F6E0FB681B6900214A202E
:103B30009847034683F00103DBB2002B01D000233A
:103B4000E9E0FB681B6900214B209847034683F09E
:103B50000103DBB2002B01D00023DCE0FB681B6912
:103B600040F2077130209847034683F00103DBB22F
:103B7000002B01D00023CEE0FB681B694FF40171DC
:103B800031209847034683F00103DBB2002B01D0BC
:103B90000023C0E0FB681B694FF401713220984795
:103BA000034683F00103DBB2002B01D00023B2E017
:103BB000FB681B6940F2025133209847034683F0AB
:103BC0000103DBB2002B01D00023A4E0FB681B69DA
:103BD00040F2075134209847034683F00103DBB2DB
:103BE000002B01D0002396E0FB681B694FF40171A4
:103BF00035209847034683F00103DBB2002B01D048
:103C0000002388E0FB681B694FF401713620984758
:103C1000034683F00103DBB2002B01D000237AE0DE
:103C2000FB681B6940F2025137209847034683F036
:103C30000103DBB2002B01D000236CE0FB681B69A1
:103C400040F202313A209847034683F00103DBB289
:103C5000002B01D000235EE0FB681B6940F20231BB
:103C60003B209847034683F00103DBB2002B01D0D1
:103C7000002350E0FB681B6900212320984703467E
:103C800083F00103DBB2002B01D0002343E0FB688B
:103C90001B69002124209847034683F00103DBB20F
:103CA000002B01D0002336E0FB681B694FF4004174
:103CB00025209847034683F00103DBB2002B01D097
:103CC000002328E0FB681B6900214F20984703462A
:103CD00083F00103DBB2002B01D000231BE0FB6863
:103CE0001B6900214E209847034683F00103DBB295
:103CF000002B01D000230EE0FB681B6946F2B001E7
:103D000011209847034683F00103DBB2002B01D05A
:103D1000002300E0012318461037BD46BDE8B0403F
:103D200004B0704780B584B000AF78600B467B80EC
:103D300013463B807B680833FB607A887B681B688E
:103D40009A4202D97B681B687B803A887B685B68F3
:103D50009A4202D97B685B683B80FB681B697A8862
:103D600011464E209847034683F00103DBB2002B37
:103D700001D000230EE0FB681B693A8811464F20F2
:103D80009847034683F00103DBB2002B01D00023E8
:103D900000E0012318461037BD4680BD80B588B0CD
:103DA00000AFF860084611461A4603467B810B4671
:103DB0003B811346FB80FB680833FB617A89FB88F3
:103DC0001344013BBB613A893B8D1344013B7B614A
:103DD000FB691B693A89114645209847034683F0E1
:103DE0000103DBB2002B01D0002333E0FB691B6928
:103DF0007A6992B2114646209847034683F0010340
:103E0000DBB2002B01D0002324E0FB691B69BA69F7
:103E100092B2120291B27A89D2B292B20A4492B2AA
:103E2000114644209847034683F00103DBB2002B80
:103E300001D000230EE03A897B891946F868FFF724
:103E400071FF034683F00103DBB2002B01D0002396
:103E500000E0012318462037BD4680BD80B584B000
:103E600000AFF860B9607A60FB68DB697A68B968AE
:103E700022209847034683F00103DBB2002B01D0D8
:103E8000002300E0012318461037BD4680BD80B5F1
:103E900086B002AF78600B467B807B681B689AB265
:103EA0007B685B689BB20093134600220021786810
:103EB000FFF774FF034683F00103DBB2002B01D050
:103EC000002328E07B681B6922209847034683F083
:103ED0000103DBB2002B01D000231CE00023FB60B8
:103EE0000FE07B685B697A8810469847034683F049
:103EF0000103DBB2002B01D000230CE0FB6801338F
:103F0000FB607B681B687A68526803FB02F2FB68FF
:103F10009A42E6D8012318461037BD4680BD0000FE
:103F200080B586B000AF786039600023FB75012052
:103F300000F04AF8234B1B68DB680F2B10D1214B94
:103F400018683B685B089AB24FF4FA6379680CF022
:103F500027FF0346002B0CBF01230023FB7529E03C
:103F6000184B1B68DB68072B24D100233B611DE045
:103F70000023BB813B6901337A6813441B783B7390
:103F80007A683B6913441B787B730E4B186807F102
:103F90000C013B6802220CF003FF0346002B02D009
:103FA0000023FB7506E03B6902333B613A693B68DD
:103FB0009A42DDD3002000F007F8FB7D1846183741
:103FC000BD4680BD0800002480B584B000AF034624
:103FD000FB710023FB73FB79002B09D0012B0FD160
:103FE000002280210A4805F003FC0123FB730AE04C
:103FF00001228021064805F0FBFB0123FB7302E050
:104000000023FB7300BFFB7B18461037BD4680BD05
:104010000004025880B584B000AF0346FB71002352
:10402000FB73FB79002B02D0012B08D00FE000229C
:1040300008210B4805F0DCFB0123FB730AE0012299
:104040000821074805F0D4FB0123FB7302E000239D
:10405000FB7300BFFB7B18461037BD4680BD00BF19
:104060000010025880B500AF012208210F4805F06A
:10407000BFFB032000F0B7F8002208210B4805F031
:10408000B7FB002208210A4805F0B2FB032000F02C
:10409000AAF801220821054805F0AAFB01220821FF
:1040A000034805F0A5FB0123184680BD000802580F
:1040B000000C025880B500AF0020FFF785FF0346D3
:1040C00083F00103DBB2002B01D0002310E00120BC
:1040D000FFF7A0FF034683F00103DBB2002B01D002
:1040E000002305E001220821024805F081FB01239D
:1040F000184680BD0008025880B582B000AF034664
:10410000FB800020FFF786FF034683F00103DBB24C
:10411000002B01D000230DE0BB1D02211846FFF744
:10412000FFFE034683F00103DBB2002B01D0002326
:1041300000E0012318460837BD4680BD80B582B037
:1041400000AF786039600120FFF764FF034683F019
:104150000103DBB2002B01D000230CE03968786842
:10416000FFF7DEFE034683F00103DBB2002B01D034
:10417000002300E0012318460837BD4680BD80B506
:1041800082B000AF0346FB80BB1D02211846FFF73B
:10419000D5FF034618460837BD4680BD80B582B0BE
:1041A00000AF03460A46FB801346BB80FB881846D7
:1041B000FFF7A2FF034683F00103DBB2002B01D01F
:1041C00000230CE0BB881846FFF7D9FF034683F0B5
:1041D0000103DBB2002B01D0002300E001231846CD
:1041E0000837BD4680BD80B582B000AF7860786882
:1041F00000F0AEFF00BF0837BD4680BD80B588B077
:1042000000AF0346B9607A60FB810023FB61BB68A5
:10421000BB61F0237B61FB891846FFF76DFF1CE053
:10422000FA697B6913447A689A420BD9BA69FB69C7
:104230001344F0211846FFF781FFFA697B691344A4
:10424000FB610AE0BA69FB69D0187A68FB69D31A86
:104250001946FFF773FF7B68FB61FA697B689A4236
:10426000DED3012318462037BD4680BDB0B48BB0E5
:1042700000AF78600E4B3B610E4BFB600E4B7B61D9
:104280000E4BBB610E4BFB610E4B7B620E4B3B62D8
:104290007B681D4607F10C040FCC0FC594E807009E
:1042A00085E8070078682C37BD46B0BC704700BF72
:1042B000B540000865400008F94000087F4100084B
:1042C0009D410008E7410008FD41000880B489B025
:1042D00000AFF8607A603B600B46FB720023FB6125
:1042E00032E00023BB6128E000237B611FE0BB6953
:1042F0007A6813441B78203B184A1B011A44FB6957
:1043000013441B781A467B69C3F1070342FA03F38F
:1043100003F00103002B01D0398D00E00021FB6880
:104320009A1CFA600A461A807B6901337B617B69BB
:10433000072BDCDDBB690133BB61BB693A689A427C
:10434000D2D8FB690133FB61FB690F2BC9DD00BFCC
:1043500000BF2437BD465DF8047B704748CD010897
:1043600080B58CB002AFF8607B600B467B81134652
:104370003B817868FBF7BEFF03467B62FB681A68E7
:104380007B89D31ADB08FB76FB7E184617F0CEF943
:1043900003467B61FB7E002B5CD1002365E000239C
:1043A0003B62FB7E7A6A9A420CDDFB7E1A46796894
:1043B000786917F08EFCFB7E3B62FB7E7A681344C3
:1043C0007B6007E07B6A1A467968786917F081FCA0
:1043D0007B6A3B623B6A1B02184617F0A7F903464B
:1043E0003B613B69002B39D00023FB610BE0FB698B
:1043F000D9B23B8E00933B6A7A693869FFF766FF52
:10440000FB690133FB61FB690F2BF0DD3B6A9BB25B
:10441000DB009BB23A89798910200090F868FFF799
:10442000BDFC3B6A1B021A463969F868FFF716FDA6
:10443000386917F083F9FB7E7A6AD31A7B623A896E
:10444000FB685B68103B9A420AD23B8910333B8180
:1044500000237B817B6A002BA1DC02E000BF00E02F
:1044600000BF786917F06AF9012318462837BD465E
:1044700080BD0000DFF834D000F050FD0C480D493D
:104480000D4A002302E0D458C4500433C4188C42AF
:10449000F9D30A4A0A4C002301E013600432A24215
:1044A000FBD317F0E7FBFCF793FA704700000824F2
:1044B000000000246C010024F0D401086C010024E9
:1044C0004C2C0024FEE7000080B500AF0022134909
:1044D000134815F0FFFD0346002B01D0FDF72AFC21
:1044E00010490F4815F026FE0346002B01D0FDF7BA
:1044F00021FC0D490A4815F05DFD0346002B01D053
:10450000FDF718FC064815F04BFE0346002B01D0C2
:10451000FDF710FC07F07AFA00BF80BD20000024F0
:10452000E40E0024900000240C00002480B500AFAD
:1045300000220549054815F057FD0549034815F0C7
:1045400075FD0023184680BDC0190024E40E002428
:10455000C011002480B400AF00231846BD465DF8AA
:10456000047B704780B483B000AF03463960FB71B1
:104570001346BB80FB79232B4AD801A252F823F0C3
:1045800011460008114600081146000811460008AF
:10459000114600081146000811460008114600089F
:1045A000114600081146000811460008114600088F
:1045B000114600081146000811460008114600087F
:1045C000114600081146000811460008114600086F
:1045D000114600081146000811460008114600085F
:1045E000114600081146000811460008114600084F
:1045F000114600081146000811460008114600083F
:10460000114600081146000811460008114600082E
:1046100000BF002318460C37BD465DF8047B704789
:1046200080B582B000AF786039607968054815F0D0
:10463000FDFC044815F018FD002318460837BD4658
:1046400080BD00BFE40E002480B487B000AFF860E6
:10465000B9601346FB710023FB7597F917301846B4
:104660001C37BD465DF8047B7047000080B483B002
:1046700000AF03463960FB713B6812221A80034B7E
:1046800018460C37BD465DF8047B70474000002497
:1046900080B483B000AF03463960FB713B680422ED
:1046A0001A80034B18460C37BD465DF8047B7047F3
:1046B0005400002480B582B000AF03463960FB711E
:1046C000FB79002B05D13A680749084816F042FFEC
:1046D00004E03A680449054816F03CFF024B1846CE
:1046E0000837BD4680BD00BFC021002450CC010862
:1046F00080B582B000AF03463960FB713A68044967
:10470000044816F027FF024B18460837BD4680BD07
:10471000C021002468CC010880B582B000AF0346F8
:104720003960FB713B681A221A8000F043F8024B93
:1047300018460837BD4680BD5800002480B582B0B9
:1047400000AF03463960FB71FB79002B05D13A6855
:104750000749084816F0FEFE04E03A680449054897
:1047600016F0F8FE024B18460837BD4680BD00BF64
:10477000C02100247CCC010880B582B000AF034684
:104780003960FB71FB79002B05D13A68074908486D
:1047900016F0E0FE04E03A680449054816F0DAFE37
:1047A000024B18460837BD4680BD00BFC02100241B
:1047B00088CC010880B584B000AF0F4B1B68FB604C
:1047C0000E4B1B68BB600E4B1B687B60FA687B68F6
:1047D0001344FB60FB68002B09D008220949F868E4
:1047E00000F014F804220849B86800F00FF800BF80
:1047F0001037BD4680BD00BF00E8F11F04E8F11F7F
:1048000008E8F11F5A0000246A00002480B487B031
:1048100000AFF860B9601346FB710023FB750023FD
:10482000FB7527E0FB681B0F092B0BD8FB681B0FE0
:10483000DAB2FB7D5B001946BB680B443032D2B262
:104840001A700AE0FB681B0FDAB2FB7D5B001946A9
:10485000BB680B443732D2B21A70FB681B01FB6095
:10486000FB7D5B000133BA68134400221A70FB7DA4
:104870000133FB75FA7DFB799A42D3D300BF00BFA9
:104880001C37BD465DF8047B7047000080B5BAB0A8
:1048900000AF786007F1D40300221A605A609A6072
:1048A000DA601A6107F11003C0220021184617F0E0
:1048B00021F97B681B68344A934261D14FF480220E
:1048C0004FF00003C7E904234FF44013C7F89830B2
:1048D00007F11003184608F08FF80346002B01D0AB
:1048E000FDF728FA07F092F8284BD3F8E030274A72
:1048F00043F00103C2F8E030244BD3F8E03003F07A
:104900000103FB60FB684FF4C853C7F8D43002239F
:10491000C7F8D8300023C7F8DC300023C7F8E030F0
:104920000A23C7F8E43007F1D4031946184804F005
:1049300097FD4FF40073C7F8D4300023C7F8D83080
:104940000023C7F8DC3007F1D4031946104804F0FF
:1049500087FD0E4BD3F8D8300C4A43F00063C2F801
:10496000D8300A4BD3F8D83003F00063BB60BB6883
:1049700000220021652002F00AFB652002F021FBE5
:1049800000BFE837BD4680BD000008400044025823
:104990000000025880B582B000AF78607B68D3F821
:1049A000E0247B6803F29C431946104615F045FC51
:1049B00000BF0837BD4680BD80B582B000AF7860CB
:1049C0000B46FB707B68D3F8E004FA7879681346ED
:1049D000DB0013449B000B4403F518731A68FB7843
:1049E000194615F07FFC00BF0837BD4680BD80B575
:1049F00082B000AF78600B46FB707B68D3F8E004B0
:104A0000FA7879681346DB0013449B000B4420338B
:104A10001A68FB78194615F018FD00BF0837BD4627
:104A200080BD80B582B000AF78607B68D3F8E03499
:104A3000184615F052FE00BF0837BD4680BD80B550
:104A400084B000AF78600123FB737B68DB79002BB7
:104A500002D10023FB7308E07B68DB79022B02D1D3
:104A60000123FB7301E0FDF765F97B68D3F8E034BF
:104A7000FA7B1146184615F0ECFD7B68D3F8E0345C
:104A8000184615F094FD00BF1037BD4680BD0000EC
:104A900080B582B000AF78607B68D3F8E034184608
:104AA00015F0E7FD7B681B6803F560631B687A6897
:104AB000126802F5606243F0010313607B68DB7AE1
:104AC000002B05D0044B1B69034A43F00603136116
:104AD00000BF0837BD4680BD00ED00E080B582B064
:104AE00000AF78607B68D3F8E034184615F0DDFD40
:104AF00000BF0837BD4680BD80B582B000AF78608A
:104B00000B46FB707B68D3F8E034FA781146184600
:104B100015F035FE00BF0837BD4680BD80B582B0B8
:104B200000AF78600B46FB707B68D3F8E034FA780E
:104B30001146184615F0F1FD00BF0837BD4680BD8F
:104B400080B582B000AF78607B68D3F8E034184657
:104B500015F047FE00BF0837BD4680BD80B582B066
:104B600000AF78607B68D3F8E034184615F044FE57
:104B700000BF0837BD4680BD80B582B000AF786009
:104B80007B681B78002B3ED1214A7B68C2F8E03459
:104B90007B681F4AC3F8C8221D4B1E4A1A601C4B73
:104BA00009221A711A4B0222DA71194B00229A71EA
:104BB000174B02225A72164B01229A72144B002292
:104BC000DA72134B00221A73114B01225A73104BE5
:104BD00001229A730E4B0022DA730D4805F03DFC5A
:104BE0000346002B01D0FDF7A5F88021084806F008
:104BF00092FE40220021064806F046FE8022012156
:104C0000034806F041FE002318460837BD4680BD24
:104C1000C02300240000084080B584B000AF786055
:104C20000023FB730023BB737B68D3F8C83218469C
:104C300005F01FFD0346FB73FB7B184600F042F9AD
:104C40000346BB73BB7B18461037BD4680BD80B59D
:104C500084B000AF7860084611461A460346FB70E0
:104C60000B46BB7013463B800023FB730023BB73D2
:104C70007B68D3F8C802BB783A88F97806F020FA46
:104C80000346FB73FB7B184600F01CF90346BB731D
:104C9000BB7B18461037BD4680BD80B584B000AFE1
:104CA00078600B46FB700023FB730023BB737B68AB
:104CB000D3F8C832FA781146184606F069FA034666
:104CC000FB73FB7B184600F0FDF80346BB73BB7B10
:104CD00018461037BD4680BD80B584B000AF7860FF
:104CE0000B46FB700023FB730023BB737B68D3F878
:104CF000C832FA781146184606F021FB0346FB73CA
:104D0000FB7B184600F0DEF80346BB73BB7B1846FE
:104D10001037BD4680BD80B584B000AF78600B46CB
:104D2000FB700023FB730023BB737B68D3F8C8328E
:104D3000FA781146184606F065FB0346FB73FB7BC9
:104D4000184600F0BFF80346BB73BB7B184610370C
:104D5000BD4680BD80B485B000AF78600B46FB7067
:104D60007B68D3F8C832FB6097F90330002B0BDA6D
:104D7000FB7803F07F02F9681346DB0013449B00C5
:104D80000B4416331B780BE0FB7803F07F02F968C5
:104D90001346DB0013449B000B4403F256231B789D
:104DA00018461437BD465DF8047B704780B584B063
:104DB00000AF78600B46FB700023FB730023BB73CE
:104DC0007B68D3F8C832FA781146184606F054F9D1
:104DD0000346FB73FB7B184600F074F80346BB7375
:104DE000BB7B18461037BD4680BD80B586B000AF8E
:104DF000F8607A603B600B46FB720023FB75002372
:104E0000BB75FB68D3F8C802F97A3B687A6806F08C
:104E10005CFA0346FB75FB7D184600F053F8034629
:104E2000BB75BB7D18461837BD4680BD80B586B0C2
:104E300000AFF8607A603B600B46FB720023FB75A5
:104E40000023BB75FB68D3F8C802F97A3B687A681F
:104E500006F0E8F90346FB75FB7D184600F032F8D2
:104E60000346BB75BB7D18461837BD4680BD80B56F
:104E700082B000AF78600B46FB707B68D3F8C83215
:104E8000FA781146184606F008FA0346184608371D
:104E9000BD4680BD80B483B000AF7860034B184638
:104EA0000C37BD465DF8047B704700BFA428002482
:104EB00080B483B000AF786000BF0C37BD465DF8AA
:104EC000047B704780B485B000AF0346FB710023BC
:104ED000FB73FB79032B17D801A252F823F000BF14
:104EE000F14E0008F74E0008FD4E0008034F000881
:104EF0000023FB730BE00323FB7308E00123FB7328
:104F000005E00323FB7302E00323FB7300BFFB7B7D
:104F100018461437BD465DF8047B704780B400AF77
:104F2000374BD3F88830364A43F47003C2F88830E0
:104F3000344B1B6803F00F03062B07D8314B1B685B
:104F400023F00F032F4A43F0070313602E4B1B6817
:104F50002D4A43F0010313602B4B00221A612A4BA8
:104F60001A682949294B13400B60264B1B6803F034
:104F70000803002B07D0234B1B6823F00F03214AA3
:104F800043F007031360204B00229A611E4B00225E
:104F9000DA611D4B00221A621B4B1D4A9A621A4BA2
:104FA0001C4ADA62184B1C4A1A63174B00225A63D8
:104FB000154B194A9A63144B0022DA63124B164AB6
:104FC0001A64114B00225A640F4B1B680E4A23F4DB
:104FD000802313600C4B00221A66104B1A68104B8A
:104FE0001340B3F1005F02D20E4B01221A600E4B48
:104FF00043F2D2021A6000BFBD465DF8047B7047E1
:1050000000ED00E000200052004402587FEDF6EA77
:10501000000202020000FF01800201010010005C9A
:105020000000FFFF088100510040005280B582B0AF
:1050300000AF032001F0A0FF07F008FB0246154B6C
:105040009B691B0A03F00F031349CB5C03F01F039A
:1050500022FA03F37B600F4B9B6903F00F030E4AA8
:10506000D35C03F01F037A6822FA03F30B4A136040
:105070000B4A7B681360002000F014F80346002BF5
:1050800001D0012302E0FDF729F800231846083774
:10509000BD4680BD0044025838D301087800002482
:1050A0007400002480B582B000AF7860154B1B7887
:1050B000002B01D1012321E0134B1A68114B1B78FF
:1050C00019464FF47A73B3FBF1F3B2FBF3F31846CE
:1050D00001F085FF0346002B01D001230EE07B6821
:1050E0000F2B0AD8002279684FF0FF3001F04FFFF4
:1050F000064A7B681360002300E001231846083746
:10510000BD4680BD80000024740000247C00002483
:1051100080B400AF064B1B781A46064B1B6813443D
:10512000044A136000BFBD465DF8047B704700BFB2
:1051300080000024C42A002480B400AF034B1B6805
:105140001846BD465DF8047B704700BFC42A0024A2
:1051500080B584B000AF7860FFF7EEFFB8607B6881
:10516000FB60FB68B3F1FF3F05D00A4B1B781A4682
:10517000FB681344FB6000BFFFF7DEFF0246BB681D
:10518000D31AFA689A42F7D800BF00BF1037BD465D
:1051900080BD00BF8000002480B400AF034B1B68BB
:1051A0001B0C1846BD465DF8047B70470010005C80
:1051B00080B483B000AF786039607B689B6823F46B
:1051C0007C123B681A437B689A6000BF0C37BD466F
:1051D0005DF8047B704780B483B000AF78603960BD
:1051E0007B689B6823F0E0723B681A437B689A6097
:1051F00000BF0C37BD465DF8047B704780B483B0B8
:1052000000AF78607B689B6803F0E07318460C374A
:10521000BD465DF8047B704780B487B000AFF8608E
:10522000B9607A603B60FB6860331A46BB689B00DC
:1052300013447B617B691B6803F000427B6803F0C9
:10524000F8413B680B431A437B691A6000BF1C3767
:10525000BD465DF8047B704780B485B000AFF86050
:10526000B9607A60FB681B6923F4F042BB6803F005
:105270001F03796801FA03F31A43FB681A6100BF40
:105280001437BD465DF8047B704780B487B000AF2B
:10529000F860B9607A60FB6860331A46BB689B00AF
:1052A00013447B617B691B6823F000427B681A43CF
:1052B0007B691A6000BF1C37BD465DF8047B7047F0
:1052C00080B483B000AF78607B68DB6803F4406330
:1052D000002B01D1012300E0002318460C37BD4606
:1052E0005DF8047B704780B487B000AFF860B960A8
:1052F0007A60FB6830331A46BB681B0A9B0003F0D8
:105300000C0313447B617B691A68BB6803F01F03BD
:105310001F2101FA03F3DB431A407B689B0E03F065
:105320001F01BB6803F01F0301FA03F31A437B69F3
:105330001A6000BF1C37BD465DF8047B704780B41F
:1053400083B000AF78607B68DB6C03F4C073002B24
:1053500001D1012300E0002318460C37BD465DF85B
:10536000047B704780B487B000AFF860B9607A60A2
:10537000FB6814331A46BB685B0E9B0003F0040302
:1053800013447B617B691A68BB681B0D03F01F0324
:10539000072101FA03F3DB431A40BB681B0D03F03E
:1053A0001F03796801FA03F31A437B691A6000BF8F
:1053B0001C37BD465DF8047B7047000080B485B0A3
:1053C00000AFF860B9607A60FB68D3F8C020BB68B2
:1053D000C3F31303DB431A407B6803F01803084947
:1053E000D940BB680B40C3F313031A43FB68C3F8EF
:1053F000C02000BF1437BD465DF8047B704700BF76
:10540000FFFF0F0080B483B000AF78607B689B68BB
:1054100003F01F0318460C37BD465DF8047B704748
:1054200080B483B000AF78607B689B6803F440432E
:1054300018460C37BD465DF8047B704780B483B0D6
:1054400000AF78607B689A68044B13407A68936079
:1054500000BF0C37BD465DF8047B7047C0FFFF5F9F
:1054600080B483B000AF78607B689B6803F0005322
:10547000B3F1005F01D1012300E0002318460C378F
:10548000BD465DF8047B704780B483B000AF7860A0
:105490007B689A68054B134043F080527B689A60A2
:1054A00000BF0C37BD465DF8047B7047C0FFFF6F3F
:1054B00080B483B000AF78607B689B6803F0805352
:1054C000B3F1805F01D1012300E0002318460C37BF
:1054D000BD465DF8047B704780B483B000AF786050
:1054E0007B689A68054B134043F001027B689A6021
:1054F00000BF0C37BD465DF8047B7047C0FFFF7FDF
:1055000080B483B000AF78607B689B6803F00103D0
:10551000012B01D1012300E0002318460C37BD46C2
:105520005DF8047B7047000080B483B000AF786002
:105530007B689A68054B134043F004027B689A60CD
:1055400000BF0C37BD465DF8047B7047C0FFFF7F8E
:1055500080B483B000AF78607B689B6803F004037D
:10556000042B01D1012300E0002318460C37BD466F
:105570005DF8047B704780B483B000AF78607B68CF
:105580009B6803F00803082B01D1012300E00023EE
:1055900018460C37BD465DF8047B704790B589B05E
:1055A00000AF78600023FB770023BB607B68002B93
:1055B00001D101238FE17B68DB68002B7B685B6D89
:1055C000002B09D17868FCF7A3FD7B6800229A655F
:1055D0007B68002283F850207B681B681846FFF721
:1055E0003FFF0346002B04D07B681B681846FFF77B
:1055F00025FF7B681B681846FFF75AFF0346002B00
:1056000014D17B681B681846FFF73EFF874B1B6869
:105610009B09874AA2FB03239B090133BB6002E07D
:10562000BB68013BBB60BB68002BF9D17B681B6882
:105630001846FFF73DFF0346002B0DD17B685B6DDD
:1056400043F010027B685A657B689B6D43F0010252
:105650007B689A650123FB777B681B681846FFF718
:1056600077FF78617B685B6D03F01003002B40F0DF
:1056700029817B69002B40F025817B685B6D23F4D9
:10568000817343F002027B685A657B681B68184689
:10569000FFF736FF0346002B36D17B681B68654A4F
:1056A000934204D07B681B68634A93420ED16148E1
:1056B000FFF726FF04466048FFF722FF0346234317
:1056C000002B0CBF01230023DBB208E05B48FFF78F
:1056D00017FF0346002B0CBF01230023DBB2002B76
:1056E00012D07B681B68534A934204D07B681B68C6
:1056F000514A934201D1524A00E0524A7B685B68AA
:1057000019461046FFF754FDFFF746FD034641F2E8
:105710000302934214D97B689B68102B10D17B68DD
:105720005B7D5A037B681B6B1A437B689B681A433B
:105730007B681B7F1B04134343F00C03BB610DE02C
:105740007B685B7D5A037B681B6B1A437B689B6895
:105750001A437B681B7F1B041343BB617B681B7F61
:10576000012B06D17B681B6A013B5B04BA691343BA
:10577000BB617B685B6A002B09D07B685B6A03F4C2
:1057800078727B689B6A1343BA691343BB617B6879
:105790001B68DA682C4B13407A681268B9690B43AE
:1057A000D3607B681B681846FFF7D2FE38617B68C0
:1057B0001B681846FFF7DFFEF8603B69002B5FD1DE
:1057C000FB68002B5CD17B681B7D9A037B68DB6ADE
:1057D0001343BB617B681B68DA681C4B13407A6813
:1057E0001268B9690B43D3607B6893F83830012B9A
:1057F00030D17B685B6A002B7B681B681A69144B8D
:1058000013407A68D26B013A11047A68126C114322
:105810007A68526C11437A68926C0A431A437B6827
:105820001B6842F001021A611CE000BF74000024F2
:10583000632D3E0500200240002102400060025816
:10584000002302400063025803C0F0FFFCBFFFFFCB
:105850001EF800FC7B681B681A697B681B6822F0D5
:1058600001021A617B681B681B6923F070417B6829
:105870005A6B7B681B680A431A61786801F06EF9FD
:105880007B68DB68012B0CD17B681B681B6B23F0EA
:105890000F017B689B695A1E7B681B680A431A6369
:1058A00007E07B681B681A6B7B681B6822F00F029D
:1058B0001A637B685B6D23F0030343F001027B688E
:1058C0005A6507E07B685B6D43F010027B685A65A0
:1058D0000123FB77FB7F18462437BD4690BD00BFF0
:1058E00080B586B000AF78607B681B685C4A9342E5
:1058F00004D07B681B685B4A934201D15A4B00E09D
:105900005A4B1846FFF77EFD38617B681B681846C6
:10591000FFF71EFE0346002B40F09A807B6893F849
:105920005030012B01D1022395E07B68012283F8DE
:105930005020786801F088F80346FB75FB7D002B4A
:1059400040F081807B685A6D494B134043F480726C
:105950007B685A657B681B68424A934202D07B6829
:105960001B6800E03E4B7A681268934202D03B69A4
:10597000002B05D17B685B6D23F480127B685A6530
:105980007B685B6D03F48053B3F5805F06D17B6861
:105990009B6D23F006027B689A6502E07B6800221B
:1059A0009A657B681B681C221A607B68002283F85A
:1059B00050207B681B682B4A934202D07B681B688F
:1059C00000E0274B7A681268934208D03B69002BAD
:1059D00005D03B69052B02D03B69092B14D17B68AC
:1059E0001B68DB6803F00073002B07D07B685B6DDE
:1059F00023F4405343F480527B685A657B681B68EC
:105A00001846FFF791FD25E07B685B6D43F480123B
:105A10007B685A657B681B68124A934202D07B6898
:105A20001B6800E00E4BFB60FB68DB6803F0007353
:105A3000002B0FD07B685B6D23F4405343F48052FE
:105A40007B685A6506E07B68002283F8502001E0FD
:105A50000223FB75FB7D18461837BD4680BD00BF8D
:105A6000002002400021024000230240006302584F
:105A7000FEF0FFFF80B588B000AF786039607B68CA
:105A80001B68724A934204D07B681B68704A934239
:105A900001D1704B00E0704B1846FFF7B3FC786102
:105AA0007B681B69082B02D10823FB6137E07B6907
:105AB000002B05D07B69052B02D07B69092B11D106
:105AC0007B681B68DB6803F00103002B07D07B6851
:105AD0005B6D43F020027B685A650123B1E004232B
