:020000040800F2
:1000000000000824514E0008ED280008F5280008DB
:10001000FD280008052900080D290008000000003F
:10002000000000000000000000000000152900088A
:100030002329000800000000312900083F2900089A
:10004000A14E0008A14E0008A14E0008A14E0008D4
:10005000A14E0008A14E0008A14E00084B2900083F
:1000600059290008A14E0008A14E0008A14E000821
:10007000A14E0008A14E0008A14E0008A14E0008A4
:10008000A14E0008A14E0008692900087D2900083A
:10009000A14E0008A14E0008A14E000891290008B9
:1000A000A14E0008A14E0008A14E0008A14E000874
:1000B000A14E0008A14E0008A14E0008A14E000864
:1000C000A14E0008A14E0008A14E0008A14E000854
:1000D000A14E0008A14E0008A14E0008A14E000844
:1000E000A5290008A14E000800000000A14E00084C
:1000F000A14E0008A14E0008A14E0008A14E000824
:10010000A14E0008A14E0008A14E0008A14E000813
:10011000A14E0008A14E0008C5290008E1290008E9
:10012000A14E0008A14E0008A14E0008A14E0008F3
:10013000A14E0008F5290008A14E0008A14E0008B4
:1001400000000000000000000000000000000000AF
:10015000A14E0008A14E0008A14E0008092A00087F
:10016000A14E0008A14E0008A14E0008A14E0008B3
:10017000A14E0008A14E0008A14E0008A14E0008A3
:10018000A14E0008A14E0008A14E0008A14E000893
:10019000A14E0008A14E0008A14E0008A14E000883
:1001A000A14E0008A14E0008A14E0008A14E000873
:1001B000A14E0008A14E0008A14E0008A14E000863
:1001C000A14E0008A14E0008A14E0008A14E000853
:1001D000A14E00081D2A0008A14E0008A14E0008EB
:1001E000A14E0008A14E0008A14E0008A14E000833
:1001F000A14E0008A14E0008A14E0008A14E000823
:10020000A14E0008A14E0008A14E0008A14E000812
:10021000A14E0008A14E0008A14E0008A14E000802
:10022000A14E0008A14E0008A14E000800000000E9
:10023000A14E0008A14E000800000000A14E0008D9
:10024000A14E0008A14E0008A14E0008A14E0008D2
:10025000A14E0008A14E0008A14E0008A14E0008C2
:10026000A14E0008A14E0008A14E0008A14E0008B2
:10027000A14E0008A14E0008A14E00080000000099
:10028000A14E0008A14E0008A14E00080000000089
:0802900000000000A14E00086F
:1002A00010B5054C237833B9044B13B10448AFF3B0
:1002B00000800123237010BD88010024000000008D
:1002C000088E020808B5034B1BB103490348AFF37E
:1002D000008008BD000000008C010024088E020888
:1002E00010F8012B11F8013B012A28BF9A42F7D0E0
:1002F000D01A7047034613F8012B002AFBD1181AB5
:1003000001387047000000000000000000000000FD
:1003100001F0FF01102A2BDB10F0070F08D010F8B6
:10032000013B013A8B422DD010F0070F42B3F6D1BA
:10033000F0B441EA012141EA014122F007047FF0D3
:1003400000070023F0E80256083C85EA010586EA2A
:10035000010685FA47F5A3FA87F586FA47F6A5FA66
:1003600087F68EB9EED1F0BC01F0FF0102F0070272
:1003700032B110F8013B013A83EA010313B1F8D11D
:100380000020704701387047002D06BF35460338FE
:10039000073815F0010F07D1013015F4807F02BF37
:1003A000013015F4C03F0130F0BC0138704700BF88
:1003B00053B94AB9002908BF00281CBF4FF0FF31CC
:1003C0004FF0FF3000F06AB9ADF1080C6DE904CED2
:1003D00000F006F8DDF804E0DDE9022304B0704720
:1003E0002DE9F047089D0C46002B4ED194468C45D4
:1003F0008646B2FA82F262D94AB1C2F12003914034
:1004000020FA03F30CFA02FC194300FA02FE4FEA49
:100410001C471FFA8CF6B1FBF7F44FEA1E4307FBAB
:10042000141143EA014304FB06F199420AD91CEB7B
:10043000030304F1FF3080F01281994240F20F81F2
:10044000023C6344591A1FFA8EF3B1FBF7F007FB25
:10045000101143EA014300FB06F69E420AD91CEB49
:10046000030300F1FF3180F0FC809E4240F2F980EE
:10047000634402389B1B40EA044000211DB1D34075
:100480000022C5E90032BDE8F0878B4205D90DB1E5
:10049000C5E9000100210846F5E7B3FA83F1002918
:1004A00046D1A34202D39042C0F0F080861A64EB9A
:1004B00003030120002DE6D0C5E90063E3E7002A2D
:1004C00040F09080A1EB0C044FEA1C481FFA8CF717
:1004D0000121B4FBF8F64FEA1E4308FB164443EA39
:1004E000044307FB06F0984208D91CEB030306F10E
:1004F000FF3402D2984200F2CD8026461C1A1FFA21
:100500008EF3B4FBF8F008FB104443EA044300FB0D
:1005100007F79F4208D91CEB030300F1FF3402D216
:100520009F4200F2B0802046DB1B40EA0640A5E770
:10053000C1F120068B4022FA06F71F4320FA06FC81
:1005400004FA01F343EA0C03F44000FA01F8380C12
:100550004FEA1349B4FBF0FE1FFA87FC00FB1E4470
:1005600049EA04440EFB0CF9A14502FA01F20AD94A
:100570003C190EF1FF3A80F08480A14540F2818061
:10058000AEF1020E3C44A4EB09041FFA83F9B4FB5C
:10059000F0F300FB134449EA044403FB0CFCA445BC
:1005A00007D93C1903F1FF3067D2A44565D9023B56
:1005B0003C4443EA0E40A0FB0293A4EB0C049C4293
:1005C000CE469C4651D34ED055B1B8EB0E0364EBEA
:1005D0000C0404FA06F6CB401E43CC40C5E9006487
:1005E000002150E7C2F1200320FA03F10CFA02FCCB
:1005F00024FA03F394400C434FEA1C4800FA02FE2D
:100600001FFA8CF7B3FBF8F008FB1031230C43EA18
:10061000014300FB07F1994208D91CEB030300F1E9
:10062000FF362CD299422AD9023863445B1AA4B20D
:10063000B3FBF8F108FB113344EA034401FB07F371
:10064000A34208D91CEB040401F1FF3613D2A342E4
:1006500011D902396444E41A41EA004139E70446F9
:10066000F0E6084606E7C845AED2B9EB020E63EBEA
:10067000070C0138A8E73146EDE7034699E7304615
:10068000D4E7D6467FE7634402384DE70646234663
:1006900008460FE7023E634430E700BF704700BFE3
:1006A00080B588B000AF78600B467B8007F10C0303
:1006B00000221A605A609A60DA601A617B88FB60D7
:1006C00000233B6101237B610023BB6107F10C0325
:1006D000194678680BF01CFA00BF2037BD4680BD74
:1006E00080B588B000AF78600B467B8007F10C03C3
:1006F00000221A605A609A60DA601A617B88FB6097
:1007000000233B6100237B610023BB6107F10C03E5
:10071000194678680BF0FCF900BF2037BD4680BD54
:1007200080B588B000AF78600B467B8013467B7045
:1007300007F10C0300221A605A609A60DA601A61AD
:100740007A787B88194678680BF0AAFB7B88FB6077
:1007500001233B6100237B610023BB6107F10C0394
:10076000194678680BF0D4F900BF2037BD4680BD2C
:1007700080B590B000AFF860B9601346FB8007F118
:10078000240300221A605A609A60DA601A615A6182
:100790009A6107F1100300221A605A609A60DA60C9
:1007A0001A61FB687B620623BB620523FB6240F291
:1007B000FF733B6304237B630023BB63002387F841
:1007C0003D300D4B1B6807F124021146184606F018
:1007D000E7FBFB883B6103237B610023BB610023B4
:1007E000FB6107F110031946B8680BF091F900BFDF
:1007F0004037BD4680BD00BFA401002480B500AFD6
:10080000002208210948FFF78BFF4FF48071084848
:10081000FFF766FF4FF400710548FFF761FF012104
:100820000248FFF73DFF00BF80BD00BF000802582F
:100830000014025880B584B000AFF860B9607A60E7
:10084000074AFB681360064ABB685360044A7B682A
:100850009360FFF7D3FF00BF1037BD4680BD00BFD8
:10086000A401002480B584B000AF78603960012213
:1008700008214A48FFF754FF00224FF4807148488E
:10088000FFF74EFF474B9B684FF4007244491846F0
:10089000FFF76EFF01214148FFF722FF0023BB60F5
:1008A0000023FB6016E03F4B1B68184605F020FE56
:1008B0003C4B1B686421184605F0E4FE394B1B686D
:1008C000184606F011F90246BB681344BB60FB688A
:1008D0000133FB60FB68032BE5DDBB689B08BB6055
:1008E000BA68134612019B1A1B011A462E4B134479
:1008F0005B0A2E4AA2FB03239AB27B681A80082166
:100900002648FFF7EDFE274B5B684FF480722449C1
:100910001846FFF72DFF00224FF400712048FFF723
:10092000FFFE012201211D48FFF7FAFE0023BB60F4
:100930000023FB6016E01B4B1B68184605F0D8FD32
:10094000184B1B686421184605F09CFE154B1B686C
:10095000184606F0C9F80246BB681344BB60FB6842
:100960000133FB60FB68032BE5DDBB689B08BB60C4
:10097000BA6813461B069B1A9B009B1A9B0103F146
:100980009B735B0A094AA2FB03239AB23B681A8055
:10099000FFF734FF00BF1037BD4680BD0008025886
:1009A00000140258A40100240030DE00F4F64302D3
:1009B00080B500AF012105480BF05AFA0346002B21
:1009C00001D1012300E00023184680BD0008025831
:1009D00080B586B000AF01F055F9A34B5B6903F415
:1009E0000033002B1BD1BFF34F8F00BFBFF36F8FBE
:1009F00000BF9D4B0022C3F85022BFF34F8F00BFB2
:100A0000BFF36F8F00BF984B5B69974A43F4003385
:100A10005361BFF34F8F00BFBFF36F8F00E000BF84
:100A2000914B5B6903F48033002B38D18E4B00224D
:100A3000C3F88420BFF34F8F00BF8B4BD3F88030B7
:100A4000FB60FB685B0BC3F30E03BB60FB68DB085A
:100A5000C3F309037B60BB685A0143F6E07313409C
:100A60007A68920780491343C1F860327B685A1E46
:100A70007A60002BEFD1BB685A1EBA60002BE5D11B
:100A8000BFF34F8F00BF784B5B69774A43F48033E5
:100A90005361BFF34F8F00BFBFF36F8F00E000BF04
:100AA00005F0B8F800F030F900F0B2F900F0B8FD48
:100AB00000F01EFD04F0F6F900F0B8FB00F05AFB60
:100AC00000F00AFC00F0DAF900F074FC00F0BAFA69
:100AD00000F05AFD00F0C0FC00F08AFB02F08EFC32
:100AE00000F030FC00F0E0FA00F03CFA02F02CFEDE
:100AF00001F056F802F066F802F024FB5B4802F0C1
:100B000063FB05F00DF903467B6107E04FF40051EC
:100B100057480BF0DEF9012005F00EF905F000F959
:100B200002467B69D31AB3F57A7FEFD3042001F034
:100B30006EF903464F4A13604E4B1B68002B19D0C9
:100B40004C4B1B680021184601F07EF94A4813F00F
:100B500057FB4A4813F0E4FA494805F087FE0023A2
:100B600000220021474807F096F90021454807F088
:100B7000E5F804E0444802F027FB01F0C3F84348DD
:100B800002F022FB04F08EF9414802F01DFB4148BF
:100B900013F036FB4049414800F0FAFE4049414815
:100BA00000F0F6FE404802F00FFB01233F4A4049A7
:100BB00040480AF024F801213E480AF090F8034624
:100BC000002B03D03C4802F0FFFA21E005F0A8F822
:100BD000386100BF012137480AF00EFA0346012BA5
:100BE00007D105F09DF802463B69D31AB3F57A7F29
:100BF000F0D905F095F802463B69D31AB3F57A7F30
:100C000003D32E4802F0E0FA02E02D4802F0DCFAAD
:100C10002C492D4800F0BCFE2C492D4800F0B8FEB0
:100C20002C492D4800F0B4FE2C492D4800F0B0FEB0
:100C30002C492D4800F0ACFE2C4A2D492D48FFF7D9
:100C4000F9FD2D4802F0C0FA2C4802F0BDFA2C48FC
:100C500002F0BAFA2B4802F0B7FA00F021FF642044
:100C600005F06AF800BFF8E700ED00E0208E02080A
:100C70000010025824070024840400241C050024CA
:100C8000B001002478020024348E0208448E020849
:100C90005C8E0208D0040024E92B0008748E020840
:100CA000B12C0008788E0208808E0208040000240F
:100CB000DC0900248C0200248C8E0208A08E02081D
:100CC000A88E0208412C0008AC8E0208B52D000841
:100CD000B08E0208252D0008B88E0208C52E000827
:100CE000C08E0208C12F0008C88E020804006008E8
:100CF0008000501D14020024D08E0208EC8E0208E1
:100D0000088F0208448F020880B59CB000AF07F13D
:100D100024034C220021184627F096F83B1D202280
:100D20000021184627F090F802200DF08DF90023DD
:100D30003B60354BDB6A344A23F00103D362324B0C
:100D4000DB6A03F001033B60304B9B6923F44043B3
:100D50002E4A43F4804393612C4B9B6903F4404338
:100D60003B603B6800BF294B9B6903F40053B3F51C
:100D7000005FF8D132237B6201233B6340237B6316
:100D80000123FB6380233B6420237B640223BB6439
:100D90000023FB6404233B650C237B650223BB65B6
:100DA0000323FB6502233B660C237B660223BB66A1
:100DB0000023FB6607F1240318460DF08FF9034664
:100DC000002B01D000F09EFF3F237B600323BB601C
:100DD0000023FB6008233B6100237B614023BB6150
:100DE0004FF48063FB6100233B623B1D01211846E9
:100DF0000DF0CEFD0346002B01D000F083FF00BFB5
:100E00007037BD4680BD00BF00040058004802583E
:100E100080B5B0B000AF3B46C0220021184627F095
:100E200013F8154A4FF00003C7E900231923BB60EC
:100E30005F23FB6064233B6104237B617923BB61F7
:100E40004023FB6120233B6200237B624FF480330D
:100E50003B6500237B654FF000533B673B461846DC
:100E60000EF022F90346002B01D000F04BFF00BF2B
:100E7000C037BD4680BD00BF0080018080B588B00E
:100E800000AF3B1D00221A605A609A60DA601A6156
:100E90005A619A61304B314A1A602F4B0022DA6056
:100EA0002D4B04221A612C4B00221A752A4B00226A
:100EB0005A75294B01229A61274B00221A77264B3B
:100EC0004FF4B8625A62244B4FF480629A62224B0C
:100ED0000022DA62204B00221A631F4B00225A6361
:100EE0001D4B002283F838201B4B0122DA631A487D
:100EF00005F05CF90346002B01D000F003FF164B10
:100F00004FF400225A60144B00229A60124805F0F8
:100F10004DF90346002B01D000F0F4FE104B7B602E
:100F20000623BB600623FB6040F2FF733B61042392
:100F30007B610023BB6100237B773B1D194606487C
:100F400006F02EF80346002B01D000F0DBFE00BFB8
:100F50002037BD4680BD00BFB00100240021024003
:100F60000800900C80B588B000AF3B1D00221A60CD
:100F70005A609A60DA601A615A619A612E4B2F4A60
:100F80001A602D4B00225A602B4B0022DA602A4B4C
:100F900004221A61284B00221A75274B00225A7529
:100FA000254B01229A61244B00221A77224B002202
:100FB0005A62214B00229A621F4B0022DA621E4BBA
:100FC00000221A631C4B00225A631B4B002283F839
:100FD0003820194B0122DA63174805F0E7F8034679
:100FE000002B01D000F08EFE134B00229A601248B5
:100FF00005F0DCF80346002B01D000F083FE104B17
:101000007B600623BB600023FB6040F2FF733B6103
:1010100004237B610023BB6100237B773B1D1946C2
:10102000054805F0BDFF0346002B01D000F06AFE25
:1010300000BF2037BD4680BD140200240060025866
:101040000400600880B58AB000AF3B1D2422002157
:10105000184626F0F9FE124B124A1A60104806F0A4
:101060004BFE0346002B01D000F04CFE00237B60BA
:101070000023BB600023FB6001233B6100237B61F5
:101080003B1D00221946064806F03AFF0346002B96
:1010900001D000F037FE00BF2837BD4680BD00BF3D
:1010A000780200240074004080B500AF2F4B304A16
:1010B0001A602E4B4FF440729A602C4B0022DA607B
:1010C0002A4B01221A74294B00225A74274B002202
:1010D0009A74264B06225A61244B0D229A61234BA7
:1010E0000D22DA61214B06221A62204B05225A6238
:1010F0001E4B0C229A621D4B0422DA621B4B052206
:101100001A631A4B00225A63184B01229A63174B39
:101110000022DA63154B00221A64144B04225A642D
:10112000124B00229A64114B0422DA640F4B012205
:101130001A650E4B04225A650C4B00229A650B4B24
:101140000122DA65094B00221A66084B00225A6612
:10115000064B04229A66054809F0D2FA0346002B92
:1011600001D000F0CFFD00BF80BD00BF8C02002485
:1011700000A0004080B500AF1B4B1C4A1A601A4B00
:1011800040F614625A60184B00229A60164B0122F6
:10119000DA60154B00221A61134B00225A61124B80
:1011A00000229A61104B0022DA610F4B00221A6272
:1011B0000D480AF0C3FE0346002B01D000F0A2FD4B
:1011C000002109480BF00AFC0346002B01D000F077
:1011D00099FD002104480BF04CFC0346002B01D084
:1011E00000F090FD00BF80BD2C030024001C0058BF
:1011F00080B400AF0B4B0C4A1A600A4B00225A60B5
:10120000084B00229A60074B4FF48042DA60054B8E
:1012100000221A61034B00225A6100BFBD465DF8EF
:10122000047B7047800300240070005280B500AF3B
:10123000274B284A1A60264B4FF480025A60244BF1
:1012400000229A60224B0F22DA60214B00221A61A1
:101250001F4B00225A611E4B4FF080629A611C4B5B
:101260000022DA611A4B00221A62194B00225A62DC
:10127000174B00229A62164B0022DA62144B4FF091
:1012800080425A63124B00229A63114B0022DA63A8
:101290000F4B00221A640E4B00225A640C4B0022A2
:1012A0009A640B4B0022DA64094B00221A65084B42
:1012B00000225A65064B00229A65054811F0A4FFEA
:1012C0000346002B01D000F01DFD00BF80BD00BF14
:1012D000FC0300240034014080B584B000AF3B1D06
:1012E00000221A605A609A60144B154A1A60134B18
:1012F00078225A60114B00229A60104B4FF47A62A8
:10130000DA600E4B80229A610C4812F0B2FE03465E
:10131000002B01D000F0F6FC20237B600023FB6053
:101320003B1D1946054813F04FFB0346002B01D027
:1013300000F0E8FC00BF1037BD4680BD84040024E7
:101340000010004080B584B000AF3B1D00221A6041
:101350005A609A60154B164A1A60144B4FF4165295
:101360005A60124B00229A60104B4FF47A72DA6086
:101370000E4B80229A610D4812F07BFE0346002B33
:1013800001D000F0BFFC20237B600023FB603B1DED
:101390001946064813F018FB0346002B01D000F055
:1013A000B1FC00BF1037BD4680BD00BFD004002493
:1013B0000014004080B588B000AF07F11003002290
:1013C0001A605A609A60DA603B1D00221A605A6007
:1013D0009A601F4B1F4A1A601D4B4BF680325A60B1
:1013E0001B4B00229A601A4B4FF47A72DA60184B4A
:1013F00000221A61164B00225A61154B80229A6115
:10140000134812F036FE0346002B01D000F07AFCA0
:101410004FF480533B6107F1100319460C4813F059
:101420006FF80346002B01D000F06CFC20237B609A
:101430000023FB603B1D1946054813F0C5FA03461F
:10144000002B01D000F05EFC00BF2037BD4680BD00
:101450001C0500240040014080B500AF224B234A08
:101460001A60214B4FF416525A601F4B00229A60AB
:101470001D4B0022DA601C4B00221A611A4B0C2211
:101480005A61194B00229A61174B0022DA61164B00
:1014900000221A62144B00225A62134B00229A62F5
:1014A000114813F03DFB0346002B01D000F02AFC4D
:1014B00000210D4815F05FFF0346002B01D000F01E
:1014C00021FC0021084815F094FF0346002B01D0B1
:1014D00000F018FC044815F015FF0346002B01D05E
:1014E00000F010FC00BF80BD6805002400500040E3
:1014F00080B500AF224B234A1A60214B4FF4E132F2
:101500005A601F4B00229A601D4B0022DA601C4B70
:1015100000221A611A4B0C225A61194B00229A615F
:10152000174B0022DA61164B00221A62144B00227C
:101530005A62134B00229A62114813F0F1FA0346E3
:10154000002B01D000F0DEFB00210D4815F013FF49
:101550000346002B01D000F0D5FB0021084815F010
:1015600048FF0346002B01D000F0CCFB044815F0E7
:10157000C9FE0346002B01D000F0C4FB00BF80BDB4
:10158000FC0500240048004080B500AF224B234AF0
:101590001A60214B4FF4E1325A601F4B00229A60CF
:1015A0001D4B0022DA601C4B00221A611A4B0C22E0
:1015B0005A61194B00229A61174B0022DA61164BCF
:1015C00000221A62144B00225A62134B00229A62C4
:1015D000114813F0A5FA0346002B01D000F092FB4E
:1015E00000210D4815F0C7FE0346002B01D000F086
:1015F00089FB0021084815F0FCFE0346002B01D0B2
:1016000000F080FB044815F07DFE0346002B01D05E
:1016100000F078FB00BF80BD90060024001401405C
:1016200080B58EB000AF07F1240300221A605A6023
:101630009A60DA601A61C34BD3F8E030C14A43F0D4
:101640001003C2F8E030BF4BD3F8E03003F01003D2
:101650003B623B6ABB4BD3F8E030BA4A43F0040329
:10166000C2F8E030B74BD3F8E03003F00403FB617D
:10167000FB69B44BD3F8E030B24A43F02003C2F820
:10168000E030B04BD3F8E03003F02003BB61BB691E
:10169000AC4BD3F8E030AB4A43F08003C2F8E03003
:1016A000A84BD3F8E03003F080037B617B69A54B46
:1016B000D3F8E030A34A43F00103C2F8E030A14B75
:1016C000D3F8E03003F001033B613B699D4BD3F855
:1016D000E0309C4A43F00203C2F8E030994BD3F863
:1016E000E03003F00203FB60FB68964BD3F8E03078
:1016F000944A43F00803C2F8E030924BD3F8E0304C
:1017000003F00803BB60BB688E4BD3F8E0308D4A12
:1017100043F04003C2F8E0308A4BD3F8E03003F0E6
:1017200040037B607B6800224FF60B0186480AF07D
:10173000B7FB0122102184480AF0B2FB00224FF4CB
:10174000406182480AF0ACFB0022082180480AF080
:10175000A7FB002208217F480AF0A2FB002244F6E2
:1017600081017D480AF09CFB002240F608417B483D
:101770000AF096FB002244F2600179480AF090FBDF
:1017800008237B620123BB620023FB6202233B63CD
:1017900007F1240319466C480AF0BAF910237B625A
:1017A0000123BB620123FB6202233B6307F1240395
:1017B000194665480AF0ACF94FF400537B624FF4C8
:1017C0008813BB620023FB6207F1240319466048BB
:1017D0000AF09EF940237B620023BB620023FB6278
:1017E00007F12403194659480AF092F94FF440636F
:1017F0007B620123BB620023FB6200233B6307F192
:101800002403194651480AF083F908237B62012317
:10181000BB620023FB6200233B6307F124031946EC
:101820004B480AF075F908237B620123BB62002351
:10183000FB6200233B6307F12403194645480AF085
:1018400067F920237B620023BB620023FB6207F160
:10185000240319463F480AF05BF944F601037B6212
:101860000123BB620023FB6200233B6307F12403D7
:10187000194639480AF04CF948F226437B624FF486
:101880008813BB620023FB6207F124031946324828
:101890000AF03EF94FF603037B620123BB6200238B
:1018A000FB6200233B6307F12403194626480AF034
:1018B0002FF940F608437B620123BB620023FB62E1
:1018C00000233B6307F12403194624480AF020F95A
:1018D00044F260037B620123BB620023FB620023AE
:1018E0003B6307F1240319461D480AF011F98023D0
:1018F0007B624FF48813BB620023FB6207F1240371
:10190000194617480AF004F980237B620123BB6261
:101910000023FB6202233B6307F1240319460E48B0
:101920000AF0F6F800220021072006F038F9072017
:1019300006F04FF900220021082006F030F90820B7
:1019400010E000BF00440258001002580014025872
:10195000000802580000025800040258000C025807
:101960000018025806F035F900220021172006F071
:1019700016F9172006F02DF900220021282006F084
:101980000EF9282006F025F900BF3837BD4680BD86
:1019900080B582B000AF786039607968094801F09D
:1019A00013FC3B6898470346002B03D0064801F020
:1019B0000BFC02E0054801F007FC00BF0837BD46FC
:1019C00080BD00BF4C8F0208588F0208A08E02080D
:1019D00080B582B000AF78607B681A680A4B1B68DC
:1019E0009A4204D1094B1B68184600F0C3FA7B6881
:1019F0001A68074B1B689A4201D101F0E5FF00BF4E
:101A00000837BD4680BD00BF84040024240700249D
:101A1000D004002490B585B000AF78601B4805F075
:101A200063F8F860FB6840F6E44202FB03F3184AEF
:101A3000A2FB0323DB0BBB60164B1868BB68164A7E
:101A400082FB03129211DB17D31A1C46BB68124AA1
:101A500082FB03129111DA178A1A4FF47A7101FB93
:101A600002F29A1A0323214600F020FAFB681B09B0
:101A700000220021094806F00EFA0021074806F06E
:101A80005DF900BF1437BD4690BD00BFB001002412
:101A90000180008024070024D34D621078020024C6
:101AA00080B582B002AFFEF783FF0346002B67D0FC
:101AB00035493648FEF7D6FE4FF4207200213448EF
:101AC00026F0C2F9334B1868334B19884FF4A073D2
:101AD00000930123002202F04FFE2E4B1B684FF4AF
:101AE00020722B49184602F0A7FE2A4B18682B4B90
:101AF0001A8801230093F023002102F03DFE254BBC
:101B00001B684FF4F0722249184602F095FE4FF41C
:101B10002072FF211E4826F097F91E4B18681B4BB8
:101B200019884FF4A07300930123002202F024FED1
:101B3000184B1B684FF420721549184602F07CFEC2
:101B4000144B1868104B1A8801230093F0230021CE
:101B500002F012FE0F4B1B684FF4F0720C4918464E
:101B600002F06AFE094B1A880B4B1A80064B1A8842
:101B70000A4B1A8000BFFEF71BFF0346002BFAD169
:101B800000BFBD4680BD00BF2A07002428070024EF
:101B900030070024000000242C0700242E07002416
:101BA00080B588B000AF00233B6000237B60072333
:101BB000FB6001233B610023BB613B4619461B4888
:101BC00008F07CFF0346002B01D000F09BF8184B77
:101BD00040F221321A60164B00225A60144B002248
:101BE0009A60134B0222DA60114B00221A61104BEB
:101BF0004FF480125A610E4B4FF400129A610C4B55
:101C00000022DA610A4B00221A62084808F0CCFF71
:101C10000346002B01D000F075F800220121034893
:101C200009F000FA00BF2037BD4680BD8C020024B9
:101C3000DC09002480B582B000AF786039603B6871
:101C400003F00103002B14D00C4B0D4A402178689F
:101C500009F066F80346002B01D000F053F800228B
:101C60000121786809F0DEF90346002B01D000F06D
:101C700049F800BF0837BD4680BD00BFD809002421
:101C8000B009002480B584B000AF3B4600221A6042
:101C90005A609A60DA6005F0B7FF01233B700023B9
:101CA0007B70164B7B6010233B7200237B720123F9
:101CB000BB720323FB7201233B7300237B7300235E
:101CC000BB730023FB733B46184605F0D5FF012389
:101CD0007B700B4B7B6008233B720023BB7201239C
:101CE0007B730123FB733B46184605F0C5FF0420B8
:101CF00005F0A2FF00BF1037BD4680BD00000230D6
:101D00000000043080B400AF72B600BF00BFFDE732
:101D100080B582B000AF786039607B685B683A68F4
:101D20009A4209D17B689A687B681B689A4203D102
:101D30007B68DB68012098477B689B683A689A4219
:101D400009D17B685A687B681B689A4203D17B681B
:101D5000DB6800209847786800F036F800BF083745
:101D6000BD4680BD80B483B000AF786039607B68C9
:101D70005B683A689A4204D07B689B683A689A42EA
:101D800002D17B683A681A6000BF0C37BD465DF827
:101D9000047B704780B485B000AFF860B9607A60AA
:101DA0003B60FB6800221A60FB68BA685A60FB68F7
:101DB0007A689A60FB683A68DA600123184614373B
:101DC000BD465DF8047B704780B483B000AF786097
:101DD0007B6800221A6000BF0C37BD465DF8047BAB
:101DE000704780B582B000AF786039607B681B684F
:101DF000002B04D139687868FFF7B4FF03E0396835
:101E00007868FFF785FF00BF0837BD4680BD80B505
:101E100084B000AF78607B680C33184625F0B6FDBF
:101E20000346FB60FB68002B01D1002308E0FB6840
:101E30007A681A60FB6803F10C02FB689A60FB6821
:101E400018461037BD4680BD80B485B000AF7860BD
:101E500039600023FB6019E03968124BA3FB0123B2
:101E6000DA0813469B0013445B00CA1A7B68996822
:101E7000FB680B440C498A5C1A703B68094AA2FB58
:101E80000323DB083B60FB680133FB607B681A6857
:101E9000FB689A42E0D800BF00BF1437BD465DF82A
:101EA000047B7047CDCCCCCC9CBC020880B489B0FC
:101EB00000AFF860B9607A603B60FB689B68FB61CB
:101EC0000023BB6118E07968284BA3FB0123DA08E3
:101ED00013469B0013445B00CA1AFB69591CF96145
:101EE00023498A5C1A707B68204AA2FB0323DB0823
:101EF0007B60BB690133BB61BB693A689A42E2D837
:101F000000237B6118E0B968184BA3FB0123DA08B2
:101F100013469B0013445B00CA1AFB69591CF96104
:101F200013498A5C1A70BB68104AA2FB0323DB08C2
:101F3000BB607B6901337B61FB681A683B68D21A1E
:101F40007B699A42DFD8FB689A683B6813441A7829
:101F5000FB6899683B680B4462F07F02D2B21A704A
:101F600000BF2437BD465DF8047B7047CDCCCCCC98
:101F70009CBC020880B584B000AF78607B685B6869
:101F80005A1C7B685A607B685B68FB73FA7B7B68D2
:101F90001B689A4204D97B6800225A600023FB73B5
:101FA000F87B7B689A68FB7B13441B78194600F02A
:101FB00005F800BF1037BD4680BD0000B0B598B031
:101FC00000AF78600B46FB70344B07F134041D46BC
:101FD0000FCD0FC495E80F0084E80F00304B07F1D8
:101FE00024040FCB84E80F002E4B07F114040FCB11
:101FF00084E80F002C4A07F10C0392E8030083E801
:10200000030001227B6802FA03F387F857300023AC
:10201000FB651AE0FB6D9B0060333B4453F84C0CAE
:10202000FB6D5B0060333B4433F8541C97F857203A
:10203000FB6D42FA03F3DBB203F00103DBB21A4695
:1020400009F02EFFFB6D0133FB65FB6D032BE1DD1A
:102050000023BB6519E0BB6D9B0060333B4453F824
:102060002C0CBB6D5B0060333B4433F83C1CFA78AE
:10207000BB6D42FA03F3DBB203F00103DBB21A4695
:1020800009F00EFFBB6D0133BB65BB6D072BE2DDB5
:1020900000BF00BF6037BD46B0BD00BF5C8F020807
:1020A0007C8F02088C8F02089C8F020880B483B05A
:1020B00000AF0A4BD3F8F430084A43F00203C2F8E9
:1020C000F430064BD3F8F43003F002037B607B68F6
:1020D00000BF0C37BD465DF8047B704700440258D2
:1020E00080B5BCB000AF786007F1DC0300221A6055
:1020F0005A609A60DA601A6107F11803C022002161
:10210000184625F0A1FE7B681B684C4A934249D1D2
:102110004FF400224FF00003C7E906234FF40033C9
:10212000C7F8BC3007F1180318460CF0BDFF034692
:10213000002B01D0FFF7E6FD414BD3F8D830404AE1
:1021400043F02003C2F8D8303D4BD3F8D83003F029
:1021500020037B617B693A4BD3F8E030384A43F087
:102160000103C2F8E030364BD3F8E03003F001034E
:102170003B613B694023C7F8DC300323C7F8E030FC
:102180000023C7F8E43007F1DC0319462D4809F0B5
:10219000BFFC00220021122005F001FD122005F0F5
:1021A00018FD46E07B681B68274A934241D14FF4F3
:1021B00000224FF00003C7E906234FF40033C7F8AD
:1021C000BC3007F1180318460CF06EFF0346002BD5
:1021D00001D0FFF797FD1A4BD3F8E030184A43F0CF
:1021E0008073C2F8E030164BD3F8E03003F0807310
:1021F000FB60FB68124BD3F8E030114A43F0200338
:10220000C2F8E0300E4BD3F8E03003F02003BB609F
:10221000BB684FF44073C7F8DC300323C7F8E030E5
:102220000023C7F8E43007F1DC031946074809F03A
:102230006FFC00BFF037BD4680BD00BF00210240EB
:10224000004402580000025800600258001402586E
:1022500080B58AB000AF786007F1140300221A60DD
:102260005A609A60DA601A617B681B681C4A934264
:1022700031D11C4BD3F8E8301A4A43F00053C2F86E
:10228000E830184BD3F8E83003F000533B613B696A
:10229000144BD3F8E030134A43F00103C2F8E030A6
:1022A000104BD3F8E03003F00103FB60FB68102310
:1022B0007B610323BB610023FB6107F11403194613
:1022C000094809F025FC00220021362005F067FCB2
:1022D000362005F07EFC00BF2837BD4680BD00BF1C
:1022E00000740040004402580000025880B58AB0D3
:1022F00000AF786007F1140300221A605A609A60F8
:10230000DA601A617B681B681E4A934236D11E4B05
:10231000D3F8EC301C4A43F48073C2F8EC301A4B0B
:10232000D3F8EC3003F480733B613B69164BD3F870
:10233000E030154A43F00203C2F8E030124BD3F804
:10234000E03003F00203FB60FB684FF440737B61F5
:102350000223BB610023FB6100233B6209237B62F4
:1023600007F114031946094809F0D2FB00220021A5
:10237000132005F014FC132005F02BFC00BF2837B8
:10238000BD4680BD00A00040004402580004025831
:1023900080B5BAB000AF786007F1D40300221A60AC
:1023A0005A609A60DA601A6107F11003C0220021B6
:1023B000184625F049FD7B681B68274A934247D1A0
:1023C0004FF010024FF00003C7E904234FF44073AD
:1023D000C7F8A83007F1100318460CF065FE034655
:1023E000002B01D0FFF78EFC1C4BD3F8E0301B4ACA
:1023F00043F00803C2F8E030184BD3F8E03003F0A4
:102400000803FB60FB684FF44053C7F8D430122335
:10241000C7F8D8300023C7F8DC300023C7F8E03015
:102420000423C7F8E43007F1D40319460C4809F037
:102430006FFB0A4BD3F8F430084A43F08003C2F82C
:10244000F430064BD3F8F43003F08003BB60BB6874
:1024500000BFE837BD4680BD001C0058004402584C
:10246000000C025880B58AB000AF786007F1140301
:1024700000221A605A609A60DA601A617B681B68F1
:102480002A4A93424DD12A4BD3F8D430284A43F4F8
:102490008033C2F8D430264BD3F8D43003F48033E1
:1024A0003B613B69224BD3F8E030214A43F00403FF
:1024B000C2F8E0301E4BD3F8E03003F00403FB60B9
:1024C000FB681B4BD3F8E030194A43F00803C2F80D
:1024D000E030174BD3F8E03003F00803BB60BB6873
:1024E0004FF4F8537B610223BB610023FB6103239C
:1024F0003B620C237B6207F1140319460D4809F077
:1025000007FB04237B610223BB610023FB610323E0
:102510003B620C237B6207F114031946064809F05D
:10252000F7FA00BF2837BD4680BD00BF00700052DB
:102530000044025800080258000C025880B5BAB096
:1025400000AF786007F1D40300221A605A609A60E5
:10255000DA601A6107F11003C0220021184625F045
:1025600073FC7B681B68264A934244D14FF40052A7
:102570004FF00003C7E9042300237B6707F1100332
:1025800018460CF091FD0346002B01D0FFF7BAFB73
:102590001C4BD3F8F0301B4A43F40053C2F8F03020
:1025A000184BD3F8F03003F40053FB60FB68154B75
:1025B000D3F8E030134A43F01003C2F8E030114B77
:1025C000D3F8E03003F01003BB60BB686423C7F8A6
:1025D000D4300223C7F8D8300023C7F8DC300023FA
:1025E000C7F8E0300523C7F8E43007F1D4031946F3
:1025F000054809F08DFA00BFE837BD4680BD00BF31
:1026000000340140004402580010025880B586B0E2
:1026100000AF78607B681B68274A934217D1274B2D
:10262000D3F8E830254A43F01003C2F8E830234BD2
:10263000D3F8E83003F010037B617B6900220021AE
:10264000362005F0ACFA362005F0C3FA30E07B689E
:102650001B681B4A934217D1184BD3F8E830174A2E
:1026600043F02003C2F8E830144BD3F8E83003F00D
:1026700020033B613B6900220021372005F08FFADF
:10268000372005F0A6FA13E07B681B680D4A9342D9
:102690000ED10A4BD3F8F030084A43F48033C2F825
:1026A000F030064BD3F8F03003F48033FB60FB6866
:1026B00000BF1837BD4680BD0010004000440258DE
:1026C000001400400040014080B5BEB000AF78600B
:1026D00007F1E40300221A605A609A60DA601A6116
:1026E00007F12003C0220021184625F0ADFB7B68CE
:1026F0001B68774A934247D14FF002024FF0000324
:10270000C7E908230023C7F8983007F120031846CB
:102710000CF0CAFC0346002B01D0FFF7F3FA6D4B17
:10272000D3F8E8306B4A43F48013C2F8E830694BC1
:10273000D3F8E83003F48013FB61FB69654BD3F8F1
:10274000E030644A43F00203C2F8E030614BD3F852
:10275000E03003F00203BB61BB694FF48253C7F85A
:10276000E4300223C7F8E8300023C7F8EC30002338
:10277000C7F8F0300E23C7F8F43007F1E403194628
:10278000554809F0C5F99FE07B681B68534A93429E
:1027900047D14FF002024FF00003C7E9082300239E
:1027A000C7F8983007F1200318460CF07DFC03466B
:1027B000002B01D0FFF7A6FA464BD3F8E830454A84
:1027C00043F48023C2F8E830424BD3F8E83003F4F6
:1027D00080237B617B693F4BD3F8E0303D4A43F077
:1027E0000803C2F8E0303B4BD3F8E03003F00803B5
:1027F0003B613B694FF44073C7F8E4300223C7F8EC
:10280000E8300023C7F8EC300023C7F8F030072386
:10281000C7F8F43007F1E4031946314809F078F9B4
:1028200052E07B681B682F4A93424DD14FF0010262
:102830004FF00003C7E908230023C7F89C3007F1D5
:10284000200318460CF030FC0346002B01D0FFF7A4
:1028500059FA204BD3F8F0301E4A43F02003C2F857
:10286000F0301C4BD3F8F03003F02003FB60FB6822
:10287000184BD3F8E030174A43F00403C2F8E030B5
:10288000144BD3F8E03003F00403BB60BB68C023F3
:10289000C7F8E4300223C7F8E8300023C7F8EC306B
:1028A0000023C7F8F0300723C7F8F43007F1E4033A
:1028B00019460D4809F02CF900220021472005F0A7
:1028C0006EF9472005F085F900BFF837BD4680BD99
:1028D00000500040004402580004025800480040E4
:1028E000000C0258001401400008025880B400AFE8
:1028F00000BFFDE780B400AF00BFFDE780B400AFCC
:1029000000BFFDE780B400AF00BFFDE780B400AFBB
:1029100000BFFDE780B400AF00BFBD465DF8047B9B
:10292000704780B400AF00BFBD465DF8047B7047C0
:1029300080B400AF00BFBD465DF8047B704780B532
:1029400000AF03F0D9F900BF80BD80B500AF022011
:1029500009F0D9FA00BF80BD80B500AF042009F0AE
:10296000D2FA00BF80BD000080B500AF024804F07D
:10297000C9F800BF80BD00BFB001002480B500AF22
:10298000024808F0C9FB00BF80BD00BF8C020024D4
:1029900080B500AF202009F0B6FA802009F0B3FA24
:1029A00000BF80BD80B500AF4FF4806009F0ABFA86
:1029B0004FF4005009F0A7FA4FF4004009F0A3FAD1
:1029C00000BF80BD80B500AF034805F00EFA034894
:1029D00011F08EFC00BF80BD780200248404002426
:1029E00080B500AF024811F083FC00BF80BD00BF7E
:1029F000D004002480B500AF024806F0E9FC00BF17
:102A000080BD00BF580F002480B500AF024812F00F
:102A100079FA00BF80BD00BF9006002480B500AFEA
:102A200002480AF0B3F900BF80BD00BF3C25002476
:102A300080B400AF01231846BD465DF8047B7047A3
:102A400080B483B000AF78603960054B16221A60FD
:102A50004FF0FF3318460C37BD465DF8047B7047D6
:102A60003C5E002480B582B000AF78604FF0FF314B
:102A70007868FFF7E5FF00BFFDE780B586B000AFDF
:102A8000F860B9607A6000237B610AE0AFF30080F0
:102A90000146BB685A1CBA60CAB21A707B6901331E
:102AA0007B617A697B689A42F0DB7B68184618374D
:102AB000BD4680BD80B586B000AFF860B9607A6071
:102AC00000237B6109E0BB685A1CBA601B7818467A
:102AD000AFF300807B6901337B617A697B689A423E
:102AE000F1DB7B6818461837BD4680BD80B483B0E3
:102AF00000AF78604FF0FF3318460C37BD465DF8E5
:102B0000047B704780B483B000AF786039603B6865
:102B10004FF400525A60002318460C37BD465DF84A
:102B2000047B704780B483B000AF786001231846FF
:102B30000C37BD465DF8047B704780B485B000AFAC
:102B4000F860B9607A60002318461437BD465DF816
:102B5000047B704780B487B000AF7860144A154B8F
:102B6000D31A7B617B693B61134B1B68002B02D13D
:102B7000114B124A1A60104B1A687B6813443A6969
:102B80009A4205D20E4B0C221A604FF0FF3309E037
:102B9000094B1B68FB60084B1A687B681344064AA4
:102BA0001360FB6818461C37BD465DF8047B704710
:102BB0000000082400040000000A0024485E0024ED
:102BC0003C5E002480B500AF054B4FF400424FF44B
:102BD00080610448FFF7DEF80123184680BD00BF7E
:102BE000852F0008040A002480B586B002AFA02318
:102BF000FB8100237B600023BB6001233B703A46CE
:102C0000F989C823009301230C4809F033FA0346DD
:102C1000002B01D000230DE03A1DF989C823009351
:102C20000123064809F03EFB0346002B01D0002398
:102C300000E0012318461037BD4680BD2C03002458
:102C400080B586B002AF174A07F1080392E8030087
:102C500018600433198000233B600023BB800022EE
:102C60001021114809F01CF93A4607F10801C82360
:102C7000009306230D4810F0D9FD0346002B01D028
:102C800000230AE001221021074809F009F97B79A5
:102C9000EF2B01D0002300E0012318461037BD467A
:102CA00080BD00BFA48F020800100258FC0300245E
:102CB00080B582B000AF174A3B4692E80300186027
:102CC00004331980144B154A1A60134B1B680122F8
:102CD0001946134812F0CAF83946C823062210488C
:102CE00011F06EFF0346002B01D000230DE064209D
:102CF00003F022F83B4609491846FDF7F1FA03466E
:102D0000002B01D0002300E0012318460837BD4600
:102D100080BD00BFAC8F0208140A00242C0A0024D6
:102D20009006002480B584B000AF1E4A07F10C0362
:102D30001268114619800233120C1A7000233B608E
:102D40003B1D00221A605A6001224FF400611648B0
:102D500009F0A6F807F10C01C8230322134811F06B
:102D60002FFF0346002B01D0002317E039464FF414
:102D70007A7302220D4811F0B1FF0346002B01D0F7
:102D800000230BE03B461946094800F01DFA0022DB
:102D90004FF40061044809F083F801231846103706
:102DA000BD4680BDB88F02080004025868050024A3
:102DB000B48F020890B593B000AF3D4B07F12C04DF
:102DC0000FCB07C423700023FB6107F1200300220F
:102DD0001A605A601A7200223649374818F050FAC1
:102DE0000346002B01D000235EE002223349344821
:102DF00018F08CFA034687F8473097F84730002BD5
:102E000001D0002350E007F13C0307F12C010D2213
:102E10002B4818F074FD034687F8473097F8473081
:102E2000002B04D0264818F05DFF00233CE0244826
:102E300018F058FF3B1D1946204818F07DFF034647
:102E400087F8473097F84730002B01D000232BE05C
:102E500001221A491A4818F059FA034687F84730F0
:102E600097F84730002B01D000231DE007F1400305
:102E700007F11C010D22124818F002FC0346002B3A
:102E800004D00F4818F02EFF00230DE007F11C02BC
:102E900007F12C0311461846FDF722FA0346002BD2
:102EA00001D1012300E0002318464C37BD4690BDF8
:102EB000C88F02089C0A0024A00A0024BC8F0208C4
:102EC000D00C002480B584B000AF42F22833BB6040
:102ED00002F026FF7860284B00221A60264B1B6800
:102EE000264A13600923FB600921254800F06CF98C
:102EF0001CE002F015FF02467B68D21AFB684FF413
:102F00007A7101FB03F31946BB685B1A9A420DD92B
:102F100000F04EF90346013B184600F035F9FB6816
:102F20005A1EFA601946164800F04EF9134B1B68FA
:102F3000002B03D0104B1B68002B07D102F0F0FED2
:102F400002467B68D31ABA689A42D2D800F030F9A8
:102F50000346013B184600F017F902F0E1FE024675
:102F60007B68D31ABA689A4201D8002300E0012393
:102F700018461037BD4680BD1C0A0024180A0024DC
:102F8000D88F020880B483B000AF0346FB71FB7991
:102F9000002B02D0012B04D007E0074B01221A605E
:102FA00003E0064B01221A6000BF00BF0C37BD468C
:102FB0005DF8047B704700BF200A0024240A002427
:102FC00080B584B000AF42F22833BB600923FB60B8
:102FD00002F0A6FE7860284B00221A60264B1B6880
:102FE000264A1360254B1B68254A13601AE002F03D
:102FF00097FE02467B68D31AFA68224902FB01F168
:10300000BA680A4493420DD900F0D2F80346013B56
:10301000184600F0B9F8FB685A1EFA6019461A48BB
:1030200000F0D2F8164B1B68002B07D0134B1B681F
:10303000002B03D0104B1B68002B07D102F070FE51
:1030400002467B68D21ABB689A42D0D300F0B0F82F
:103050000346013B184600F097F802F061FE024675
:103060007B68D21ABB689A4201D3002300E0012397
:1030700018461037BD4680BD280A0024240A0024C3
:10308000200A002418FCFFFFD88F020880B582B008
:1030900000AF7860074B1B680133064A1360054B8D
:1030A0001B6801221946786811F0E0FE00BF08375E
:1030B000BD4680BD140A002480B582B000AF03462F
:1030C000FB80FB88B3F5004F25D0B3F5004F2DDC16
:1030D000B3F5005F29D0B3F5005F27DCB3F5806F4F
:1030E00013D0B3F5806F21DC202B1AD0202B1DDCF0
:1030F000022B02D0042B04D018E00E4B01221A60E0
:1031000014E00D4B01221A6010E04FF480610B486F
:10311000FEF767FE0AE04FF400410848FEF761FE43
:1031200004E0074B01221A6000E000BF00BF08372F
:10313000BD4680BD180A00241C0A0024040A00248D
:10314000280A002490B58FB006AF3B1D184601F049
:103150007BFD4FF4A0730593F02304936C4607F1B5
:1031600010030FCB84E80F003B1D0ECB054801F088
:1031700083F80021034801F078FB00BF2437BD46E7
:1031800090BD00BF6C0A002480B483B000AF7860AB
:1031900072B600BF054A7B68136062B600BF00BF0D
:1031A0000C37BD465DF8047B704700BF900A0024D1
:1031B00080B400AF034B1B681846BD465DF8047B26
:1031C000704700BF900A00240FB480B5ADF5087DAC
:1031D00002AF864B1B68B3F5167F01DB0023FDE0D1
:1031E00007F50673A3F5867300221A600433FC22E8
:1031F0000021184624F028FE07F5097207F506732A
:10320000A3F588731A6007F50673A3F5887307F5AD
:1032100086701A68D7F8201224F0E2FDC7F80C0275
:103220000023C7F8143207F586731846FDF762F8D5
:103230000346013B07F50672A2F58672D35C0A2BA2
:1032400002D10123C7F8143207F50673A3F58A7378
:103250000A221A8007F5827207F58673114618460E
:1032600024F0FAFDC7F8100272B600BF6BE03B1DF8
:10327000D7F81012184624F0C8FE5C4B1A685C4B55
:1032800083FB021313441911D317C91A0B461B01F0
:103290005B1A5B00D11A8BB2DB0099B2534B1B68EF
:1032A000534A82FB03021A441211DB17D31A9BB252
:1032B0001B019AB23B1D4FF6FF7000904D4801F084
:1032C0003DFD3B1D1846FDF715F80346474A1268B9
:1032D00013441A46454B1A6007F5827319460020BD
:1032E00024F0BAFDC7F81002D7F81032002B2AD00C
:1032F0003E4B1A683E4B83FB021313441911D3173C
:10330000C91A0B461B015B1A5B00D11A002915D0A4
:10331000364B1A68364B83FB021313441911D3172B
:10332000C91A0B461B015B1A5B00D11AC1F11E02C0
:103330002E4B1B6813442D4A136004E02B4B1B6873
:103340001E332A4A1360D7F81032002B0AD0D7F860
:103350001002FCF7CFFF0346244A12681344B3F56A
:10336000167F84D3D7F81432002B2AD01F4B1A684B
:103370001F4B83FB021313441911D317C91A0B46B1
:103380001B015B1A5B00D11A002915D0174B1A6874
:10339000174B83FB021313441911D317C91A0B4699
:1033A0001B015B1A5B00D11AC1F11E020F4B1B6897
:1033B00013440E4A136004E00C4B1B681E330B4A87
:1033C00013600D4B1A68094B1B689342B8BF134634
:1033D000094A136062B600BFD7F80C32184607F5E9
:1033E0000677BD46BDE8804004B07047900A0024CF
:1033F000898888886C0A0024940A002480B500AF6C
:103400000449054818F01EFD03461A46034B1A707E
:1034100000BF80BD9C0A0024A8BC0208980A0024B2
:1034200080B400AF00231846BD465DF8047B7047AA
:1034300080B582B000AF0023FB7100F079F803463D
:10344000012B01D0022312E00B480EF02BFB0346A8
:10345000FB71FB79002B09D14FF4804106480FF036
:10346000E7F90346002B01D00123FB71FB791846D5
:103470000837BD4680BD00BF8003002480B588B0FA
:1034800002AFF860B9607A603B600023FB753B686F
:1034900000937B68BA68F96806480EF023FC03467F
:1034A000002B01D00123FB75FB7D18461837BD4664
:1034B00080BD00BF8003002480B588B002AFF860F3
:1034C000B9607A603B600023FB753B6800937B68C2
:1034D000BA68F96806480EF08FFD0346002B01D04C
:1034E0000123FB75FB7D18461837BD4680BD00BF24
:1034F0008003002480B500AF05480FF0ABFA034607
:10350000042B14BF01230023DBB2184680BD00BF8B
:103510008003002480B582B000AF786079680348EA
:103520000FF05AF900BF0837BD4680BD8003002464
:1035300080B582B000AF0123FB7100F00BF80346A9
:10354000002B01D10023FB71FB79DBB21846083751
:10355000BD4680BD80B582B000AF0123FB71402124
:10356000064808F085FC0346002B01D00023FB71C0
:10357000FB7918460837BD4680BD00BF00140258CD
:1035800080B582B000AF0346FB710B4B01221A706D
:10359000FFF7B0FF0346002B07D1074B1B78DBB2C8
:1035A00023F00103DAB2044B1A70034B1B78DBB231
:1035B00018460837BD4680BD0600002480B582B09D
:1035C00000AF0346FB710B4B01221A70FFF730FF6F
:1035D0000346002B07D1FB791846FFF7D1FF0346BE
:1035E0001A46044B1A70034B1B78DBB21846083797
:1035F000BD4680BD0600002480B582B000AF034602
:10360000FB71FB791846FFF7BBFF034618460837E6
:10361000BD4680BD80B586B000AFB9607A603B60C2
:103620000346FB730123FB754FF0FF333A6879685B
:10363000B868FFF723FF0346002B07D100BFFFF751
:1036400059FF0346002BFAD10023FB75FB7D18467A
:103650001837BD4680BD80B586B000AFB9607A60CE
:103660003B600346FB730123FB754FF0FF333A6861
:103670007968B868FFF720FF0346002B07D100BF29
:10368000FFF738FF0346002BFAD10023FB75FB7DC3
:1036900018461837BD4680BD80B58CB000AF0346D4
:1036A0003A60FB710B46BB71012387F82F30254B25
:1036B0001B78DBB203F00103002B01D003233CE0B5
:1036C000BB79032B34D801A252F823F0DD36000871
:1036D000E5360008FD36000817370008002387F894
:1036E0002F3028E007F108031846FFF713FF3A6A66
:1036F0003B681A60002387F82F301CE007F10803AD
:103700001846FFF707FF7B6A9AB23B681A800023CE
:1037100087F82F300FE007F108031846FFF7FAFE8D
:103720007B6A5A0A3B681A60002387F82F3002E050
:10373000042387F82F3097F82F3018463037BD46CE
:1037400080BD00BF0600002480B584B004AF874B65
:10375000C0221A70854BA8225A70844B00229A709E
:10376000824B0A22DA70824BFF221A70804BFF22B2
:103770005A707F4BFF229A707D4B0022DA707D4B8E
:10378000C0221A707B4BA8225A707A4B00229A7082
:10379000784B0122DA7019F025FE744B1B781A065B
:1037A000724B5B781B041A43704B9B781B021343CC
:1037B0006E4AD27813431A066C4B1B7819066B4B72
:1037C0005B781B041943694B9B781B020B436749C9
:1037D000C9780B431B0203F47F031A43634B1B7826
:1037E0001906624B5B781B041943604B9B781B02E4
:1037F0000B435E49C9780B431B0A03F47F431A430A
:103800005A4B1B781906594B5B781B041943574BCD
:103810009B781B020B435549C9780B431B0E13437E
:10382000554A1360524B1B781A06514B5B781B04A8
:103830001A434F4B9B781B0213434D4AD2781343D4
:103840001A064B4B1B781906494B5B781B0419432E
:10385000474B9B781B020B434549C9780B431B021E
:1038600003F47F031A43424B1B781906404B5B78E5
:103870001B0419433E4B9B781B020B433C49C97800
:103880000B431B0A03F47F431A43394B1B78190679
:10389000374B5B781B041943354B9B781B020B435A
:1038A0003349C9780B431B0E1343344A1360314B21
:1038B0001B781A062F4B5B781B041A432D4B9B7801
:1038C0001B0213432B4AD27813431A06294B1B7849
:1038D0001906284B5B781B041943264B9B781B0267
:1038E0000B432449C9780B431B0203F47F031A439B
:1038F000204B1B7819061F4B5B781B0419431D4B8B
:103900009B781B020B431B49C9780B431B0A03F42A
:103910007F431A43174B1B781906164B5B781B0421
:103920001943144B9B781B020B431249C9780B4374
:103930001B0E1343124A1360124B0293124B019356
:10394000002300930E4B0D4A0B4910481BF036FB29
:103950000E481BF0E5FC0D481BF0F2FC0C490B482F
:103960001BF0F0FD00BFBD4680BD00BF440F00242A
:10397000480F00244C0F0024380F00243C0F002473
:10398000400F002459CD0108B13C0008040F002469
:10399000E539000880B582B000AF786002F0C0F968
:1039A0000246084B1B68D31A632B07D902F0B8F9FB
:1039B0000346044A1360786800F0EEFA00BF083747
:1039C000BD4680BD000F002480B500AF044800F064
:1039D0004FF921F023FE0248FFF7DCFF00BF80BD56
:1039E000040F002480B483B000AF786000BF0C37B0
:1039F000BD465DF8047B704780B584B000AF786049
:103A00000023FB73444B454A1A6000233B7280231A
:103A10007B72E123BB720023FB7200233B730D23F7
:103A20007B733D4A07F1080353603B4B01221A7236
:103A3000394B3B4ADA60384B3A4A1A61364B4FF4FD
:103A4000C0625A61344805F00BF90346FB73382213
:103A50000021354824F0F8F9334B21221A60324B0B
:103A60004FF440325A61304B00221A612F481BF04C
:103A70006DF97B68062283F82C20274B5B681A7847
:103A80007B6883F82620244B5B685A787B6883F830
:103A90002720214B5B689A787B6883F828201E4B8F
:103AA0005B68DA787B6883F829201B4B5B681A799E
:103AB0007B6883F82A20184B5B685A797B6883F807
:103AC0002B207B6840F2DC529A847B6893F82D307F
:103AD00043F00A03DAB27B6883F82D2014491548B5
:103AE00001F00AFF134801F039FF0346002B06D00E
:103AF00078681BF0F7FC78681BF08EFC08E0FB7B15
:103B0000002B03D1786800F047FA01E0FEF7FAF8DD
:103B10001037BD4680BD00BF580F00240080024012
:103B2000600004300000043008100024BCBC02080F
:103B3000080000244010002480B592B000AF7860E7
:103B4000396000237B6400233B64002387F83F3007
:103B500007F10C0330220021184624F075F907F113
:103B60000C0330220021184624F06EF93B683B64B8
:103B700045E07B6C032B02D96FF00B0355E03B6CE7
:103B800059687A6C13465B0013449B0048333B44EE
:103B90003C3B19603B6C5B8919467A6C13465B00B1
:103BA00013449B0048333B44383B19607B6C002B2B
:103BB00011D07B6C5A1E07F10C00796C0B465B0030
:103BC0000B449B00C11813465B0013449B00483311
:103BD0003B44343B19603B6C1B68002B09D17A6C69
:103BE00013465B0013449B0048333B44343B0022A4
:103BF0001A607B6C01337B643B6C1B683B643B6CE1
:103C0000002BB6D13B681B891A460A4B5A60094AF9
:103C100007F10C039360074A3B685363142205497C
:103C2000054805F007FA97F93F3018464837BD4672
:103C300080BD00BF08100024580F002480B584B058
:103C400000AF78600023FB60074B1B78002B05D189
:103C500007F10C031946054805F083FAFB6818467E
:103C60001037BD4680BD00BF540F0024580F0024FC
:103C700080B584B000AF78600023FB607868FFF700
:103C8000DDFFF860FB68002B0AD07B681B69796850
:103C9000F86898470346002B02D0F8681BF0D0FF65
:103CA000FB68002BEAD100BF00BF1037BD4680BDC6
:103CB00080B582B000AF78607B68002B06D10E4BD8
:103CC00040F28B120D490E4824F01EF87B687322D7
:103CD00083F82E207B68742283F82F207B68094AA2
:103CE0005A617B68084A9A617868FFF785FE00236D
:103CF00018460837BD4680BDDC8F02081C900208BC
:103D00002C90020859C70108393B000880B584B0DF
:103D100000AF78607B68FB60F96807481BF0F8F833
:103D2000064B1B78012B02D1044B00221A7000BFF6
:103D30001037BD4680BD00BFBCBC0208540F002434
:103D400080B500AF01F0ECFF0346184680BD0000CF
:103D500080B58EB000AF786007F1240300221A60AE
:103D60005A609A60DA601A617B681B685D4A934208
:103D700040F0B3805C4BD3F8D8305B4A43F4004347
:103D8000C2F8D830584BD3F8D83003F400433B6224
:103D90003B6A554BD3F8D830534A43F48033C2F8CA
:103DA000D830514BD3F8D83003F48033FB61FB6932
:103DB0004D4BD3F8D8304C4A43F40033C2F8D830D6
:103DC000494BD3F8D83003F40033BB61BB69464B91
:103DD000D3F8E030444A43F00403C2F8E030424BE9
:103DE000D3F8E03003F004037B617B693E4BD3F8EA
:103DF000E0303D4A43F00103C2F8E0303A4BD3F8DB
:103E0000E03003F001033B613B69374BD3F8E0300E
:103E1000354A43F00203C2F8E030334BD3F8E030C8
:103E200003F00203FB60FB682F4BD3F8E0302E4A0F
:103E300043F04003C2F8E0302B4BD3F8E03003F0FE
:103E40004003BB60BB6832237B620223BB6200235A
:103E5000FB6200233B630B237B6307F124031946BA
:103E6000224807F055FE86237B620223BB620023B3
:103E7000FB6200233B630B237B6307F1240319469A
:103E80001B4807F045FE4FF400537B620223BB62E0
:103E90000023FB6200233B630B237B6307F12403B6
:103EA0001946144807F034FE4FF420537B62022376
:103EB000BB620023FB6200233B630B237B6307F1A0
:103EC000240319460C4807F023FE002200213D2060
:103ED00003F065FE3D2003F07CFE00BF3837BD4691
:103EE00080BD00BF00800240004402580008025814
:103EF00000000258000402580018025880B500AFB4
:103F0000024805F02BFE0023184680BD580F002400
:103F100080B400AF00231846BD465DF8047B7047AF
:103F200080B584B000AFF860B9607A607B68BA6829
:103F3000F968074805F07CFB0346002B02D04FF0E0
:103F4000FF3300E0002318461037BD4680BD00BF98
:103F5000580F002480B584B000AFF860B9607A6073
:103F60007B68BA68F968074805F0B6FB0346002B82
:103F700002D04FF0FF3300E0002318461037BD4653
:103F800080BD00BF580F002480B500AF01F0C8FE0F
:103F90000346184680BD000080B5A0B000AF786031
:103FA00007F10C0364220021184623F04DFF002383
:103FB0003B670023FB670023BB6700237B673A480E
:103FC00001F019FD38677B6893F82D309B0803F0EA
:103FD0000103DBB2002B0CD03B6F012B09DC334813
:103FE00004F0B0FF78681BF017FA78681BF07AFAD3
:103FF00055E07B6893F82D3003F00403002B4ED17D
:104000003B6F012B4BDD3B6F023B032B2AD801A2F8
:1040100052F823F0254000083740000847400008C8
:10402000574000084FF400537B674FF48043BB6751
:104030000123FB6717E000237B674FF48043BB67D6
:104040000123FB670FE04FF400537B670023BB673E
:104050000123FB6707E000237B670023BB67012385
:10406000FB6700E000BFFB6F002B18D007F10C03CB
:1040700019460E4805F084FB7B6F7B62BB6F3B6289
:1040800007F10C031946094805F04EFD074804F0F6
:10409000E5FE78681BF054F978681BF0EFF900BF73
:1040A0008037BD4680BD00BF40100024580F00245B
:1040B00080B586B002AF786012481AF0BBFEF86097
:1040C000FB68002B14D0FB6803F120027B681A60A8
:1040D000FB680D4A1A617B681B684FF4C06201924D
:1040E0000093FB684122002100201BF0F1FB05E05A
:1040F000064B01221A707B6800221A6000BF10373D
:10410000BD4680BDBCBC02080D3D0008540F002414
:1041100080B48DB000AFF860B9607A607B80FB68D6
:10412000BB62BB687B620023FB627B68203BFB6257
:10413000FB6A00221A60FB6A00221A81FB6A7A88F5
:104140005A81BB6A1B68002B03D1BB6AFA6A1A60EA
:1041500003E07B6A1B68FA6A1A607B6AFA6A1A6073
:10416000BB6A1B68FB6209E0FB6A1A897B881344FF
:104170009AB2FB6A1A81FB6A1B68FB62FB6A002B1E
:10418000F2D17B887A683A62FB61FB69002B1DDD06
:104190003B6A03F01F02FB691344BB613B6A7B610E
:1041A000BFF34F8F00BF0D4A7B69C2F85C327B6959
:1041B00020337B61BB69203BBB61BB69002BF2DC18
:1041C000BFF34F8F00BFBFF36F8F00BF00BF00BFB3
:1041D0003437BD465DF8047B704700BF00ED00E05A
:1041E00080B582B000AF78607B681B694AF6AC612D
:1041F00003209847034683F00103DBB2002B01D074
:10420000002335E07B681B6907210C209847034693
:1042100083F00103DBB2002B01D0002328E07B6890
:104220001B690F210D209847034683F00103DBB281
:10423000002B01D000231BE07B681B694FF4245145
:104240000E209847034683F00103DBB2002B01D018
:1042500000230DE07B681B69B3211E2098470346AD
:1042600083F00103DBB2002B01D0002300E0012327
:1042700018460837BD4680BD84B0B0B584B000AFE5
:10428000786007F1240080E80E007B683A6C1A60C1
:104290007B687A6C5A607B6803F1080407F1240597
:1042A0000FCD0FC495E8070084E807007B6808334A
:1042B000FB60FB681B689847034683F00103DBB291
:1042C000002B01D0002314E2FB685B68984703468B
:1042D00083F00103DBB2002B01D0002309E2FB686D
:1042E0009B6914209847FB681B69012100209847AF
:1042F000034683F00103DBB2002B01D00023F8E179
:10430000F868FFF76DFF034683F00103DBB2002B73
:1043100001D00023EDE1FB681B6946F63F11012047
:104320009847034683F00103DBB2002B01D0002342
:10433000DFE1FB681B694FF4C06102209847034628
:1043400083F00103DBB2002B01D00023D1E1FB6835
:104350001B69002110209847034683F00103DBB25C
:10436000002B01D00023C4E1FB689B690A20984719
:10437000FB681B6946F2B00111209847034683F0A1
:104380000103DBB2002B01D00023B2E1FB681B6903
:10439000002105209847034683F00103DBB2002B80
:1043A00001D00023A5E1FB681B6900210620984786
:1043B000034683F00103DBB2002B01D0002398E118
:1043C000FB681B694EF61C7116209847034683F064
:1043D0000103DBB2002B01D000238AE1FB681B69DB
:1043E000032117209847034683F00103DBB2002B1B
:1043F00001D000237DE1FB681B6940F233210720D7
:104400009847034683F00103DBB2002B01D0002361
:104410006FE1FB681B6945F212310B209847034698
:1044200083F00103DBB2002B01D0002361E1FB68C4
:104430001B6900210F209847034683F00103DBB27C
:10444000002B01D0002354E1FB681B6900214120AF
:104450009847034683F00103DBB2002B01D0002311
:1044600047E1FB681B69002142209847034683F01F
:104470000103DBB2002B01D000233AE1FB681B698A
:10448000002148209847034683F00103DBB2002B4C
:1044900001D000232DE1FB681B6940F23F11492048
:1044A0009847034683F00103DBB2002B01D00023C1
:1044B0001FE1FB681B694FF46F4144209847034696
:1044C00083F00103DBB2002B01D0002311E1FB6874
:1044D0001B69002145209847034683F00103DBB2A6
:1044E000002B01D0002304E1FB681B6940F23F115F
:1044F00046209847034683F00103DBB2002B01D02E
:104500000023F6E0FB681B6900214A209847034618
:1045100083F00103DBB2002B01D00023E9E0FB684C
:104520001B6900214B209847034683F00103DBB24F
:10453000002B01D00023DCE0FB681B6940F207710F
:1045400030209847034683F00103DBB2002B01D0F3
:104550000023CEE0FB681B694FF4017131209847BE
:10456000034683F00103DBB2002B01D00023C0E03F
:10457000FB681B694FF4017132209847034683F0B2
:104580000103DBB2002B01D00023B2E0FB681B6902
:1045900040F2025133209847034683F00103DBB217
:1045A000002B01D00023A4E0FB681B6940F20751F7
:1045B00034209847034683F00103DBB2002B01D07F
:1045C000002396E0FB681B694FF401713520984782
:1045D000034683F00103DBB2002B01D0002388E007
:1045E000FB681B694FF4017136209847034683F03E
:1045F0000103DBB2002B01D000237AE0FB681B69CA
:1046000040F2025137209847034683F00103DBB2A2
:10461000002B01D000236CE0FB681B6940F20231E3
:104620003A209847034683F00103DBB2002B01D008
:1046300000235EE0FB681B6940F202313B20984793
:10464000034683F00103DBB2002B01D0002350E0CE
:10465000FB681B69002123209847034683F0010370
:10466000DBB2002B01D0002343E0FB681B69002173
:1046700024209847034683F00103DBB2002B01D0CE
:10468000002336E0FB681B694FF400412520984762
:10469000034683F00103DBB2002B01D0002328E0A6
:1046A000FB681B6900214F209847034683F00103F4
:1046B000DBB2002B01D000231BE0FB681B6900214B
:1046C0004E209847034683F00103DBB2002B01D054
:1046D00000230EE0FB681B6946F2B00111209847E9
:1046E000034683F00103DBB2002B01D0002300E07E
:1046F000012318461037BD46BDE8B04004B07047EE
:1047000080B584B000AF78600B467B8013463B8059
:104710007B680833FB607A887B681B689A4202D901
:104720007B681B687B803A887B685B689A4202D909
:104730007B685B683B80FB681B697A8811464E206A
:104740009847034683F00103DBB2002B01D000231E
:104750000EE0FB681B693A8811464F2098470346D4
:1047600083F00103DBB2002B01D0002300E0012322
:1047700018461037BD4680BD80B588B000AFF860E0
:10478000084611461A4603467B810B463B81134679
:10479000FB80FB680833FB617A89FB881344013B8B
:1047A000BB613A893B8D1344013B7B61FB691B690B
:1047B0003A89114645209847034683F00103DBB24E
:1047C000002B01D0002333E0FB691B697A6992B2A8
:1047D000114646209847034683F00103DBB2002BC5
:1047E00001D0002324E0FB691B69BA6992B212026E
:1047F00091B27A89D2B292B20A4492B2114644205E
:104800009847034683F00103DBB2002B01D000235D
:104810000EE03A897B891946F868FFF771FF034675
:1048200083F00103DBB2002B01D0002300E0012361
:1048300018462037BD4680BD80B584B000AFF86013
:10484000B9607A60FB68DB697A68B96822209847AA
:10485000034683F00103DBB2002B01D0002300E00C
:10486000012318461037BD4680BD80B586B002AF23
:1048700078600B467B807B681B689AB27B685B68BC
:104880009BB200931346002200217868FFF774FF63
:10489000034683F00103DBB2002B01D0002328E0A4
:1048A0007B681B6922209847034683F00103DBB233
:1048B000002B01D000231CE00023FB600FE07B688D
:1048C0005B697A8810469847034683F00103DBB2A0
:1048D000002B01D000230CE0FB680133FB607B68F8
:1048E0001B687A68526803FB02F2FB689A42E6D8BA
:1048F000012318461037BD4680BD000080B586B044
:1049000000AF786039600023FB75012000F04AF8A1
:10491000234B1B68DB680F2B10D1214B18683B68B9
:104920005B089AB24FF4FA6379680EF091FD034682
:10493000002B0CBF01230023FB7529E0184B1B68DB
:10494000DB68072B24D100233B611DE00023BB81E2
:104950003B6901337A6813441B783B737A683B697F
:1049600013441B787B730E4B186807F10C013B68EE
:1049700002220EF06DFD0346002B02D00023FB75D2
:1049800006E03B6902333B613A693B689A42DDD3FA
:10499000002000F007F8FB7D18461837BD4680BDA3
:1049A0001C00002480B584B000AF0346FB710023D7
:1049B000FB73FB79002B09D0012B0FD10022802142
:1049C0000A4807F06DFA0123FB730AE001228021F7
:1049D000064807F065FA0123FB7302E00023FB732E
:1049E00000BFFB7B18461037BD4680BD000402584F
:1049F00080B584B000AF0346FB710023FB73FB79E5
:104A0000002B02D0012B08D00FE0002208210B4818
:104A100007F046FA0123FB730AE001220821074848
:104A200007F03EFA0123FB7302E00023FB7300BF93
:104A3000FB7B18461037BD4680BD00BF00100258F2
:104A400080B500AF012208210F4807F029FA0320A2
:104A500000F0B7F8002208210B4807F021FA0022E5
:104A600008210A4807F01CFA032000F0AAF80122E6
:104A70000821054807F014FA01220821034807F02D
:104A80000FFA0123184680BD00080258000C025896
:104A900080B500AF0020FFF785FF034683F00103D8
:104AA000DBB2002B01D0002310E00120FFF7A0FFB4
:104AB000034683F00103DBB2002B01D0002305E0A5
:104AC00001220821024807F0EBF90123184680BDB6
:104AD0000008025880B582B000AF0346FB8000207A
:104AE000FFF786FF034683F00103DBB2002B01D002
:104AF00000230DE0BB1D02211846FFF7FFFE034611
:104B000083F00103DBB2002B01D0002300E001237E
:104B100018460837BD4680BD80B582B000AF7860CA
:104B200039600120FFF764FF034683F00103DBB225
:104B3000002B01D000230CE039687868FFF7DEFE17
:104B4000034683F00103DBB2002B01D0002300E019
:104B5000012318460837BD4680BD80B582B000AF3E
:104B60000346FB80BB1D02211846FFF7D5FF034615
:104B700018460837BD4680BD80B582B000AF0346F9
:104B80000A46FB801346BB80FB881846FFF7A2FF4E
:104B9000034683F00103DBB2002B01D000230CE0BD
:104BA000BB881846FFF7D9FF034683F00103DBB249
:104BB000002B01D0002300E0012318460837BD4632
:104BC00080BD80B582B000AF7860786801F0B4F83D
:104BD00000BF0837BD4680BD80B588B000AF034632
:104BE000B9607A60FB810023FB61BB68BB61F02385
:104BF0007B61FB891846FFF76DFF1CE0FA697B6952
:104C000013447A689A420BD9BA69FB691344F021BC
:104C10001846FFF781FFFA697B691344FB610AE0DC
:104C2000BA69FB69D0187A68FB69D31A1946FFF78D
:104C300073FF7B68FB61FA697B689A42DED30123CC
:104C400018462037BD4680BDB0B48BB000AF786049
:104C50000E4B3B610E4BFB600E4B7B610E4BBB6101
:104C60000E4BFB610E4B7B620E4B3B627B681D461D
:104C700007F10C040FCC0FC594E8070085E8070086
:104C800078682C37BD46B0BC704700BF914A000819
:104C9000414A0008D54A00085B4B0008794B0008E0
:104CA000C34B0008D94B000880B489B000AFF8604E
:104CB0007A603B600B46FB720023FB6132E000230D
:104CC000BB6128E000237B611FE0BB697A68134465
:104CD0001B78203B184A1B011A44FB6913441B78BC
:104CE0001A467B69C3F1070342FA03F303F0010399
:104CF000002B01D0398D00E00021FB689A1CFA607E
:104D00000A461A807B6901337B617B69072BDCDDF6
:104D1000BB690133BB61BB693A689A42D2D8FB696F
:104D20000133FB61FB690F2BC9DD00BF00BF2437D6
:104D3000BD465DF8047B7047C8BC020880B58CB0E6
:104D400002AFF8607B600B467B8113463B8178683D
:104D5000FBF7D0FA03467B62FB681A687B89D31A9B
:104D6000DB08FB76FB7E184622F010FE03467B61D3
:104D7000FB7E002B5CD1002365E000233B62FB7EC1
:104D80007A6A9A420CDDFB7E1A467968786923F0CC
:104D900044F9FB7E3B62FB7E7A6813447B6007E04C
:104DA0007B6A1A467968786923F037F97B6A3B6237
:104DB0003B6A1B02184622F0E9FD03463B613B6952
:104DC000002B39D00023FB610BE0FB69D9B23B8E8D
:104DD00000933B6A7A693869FFF766FFFB69013324
:104DE000FB61FB690F2BF0DD3B6A9BB2DB009BB2E2
:104DF0003A89798910200090F868FFF7BDFC3B6A7A
:104E00001B021A463969F868FFF716FD386922F067
:104E1000C5FDFB7E7A6AD31A7B623A89FB685B68C0
:104E2000103B9A420AD23B8910333B8100237B819D
:104E30007B6A002BA1DC02E000BF00E000BF7869C4
:104E400022F0ACFD012318462837BD4680BD000086
:104E5000DFF834D000F056FE0C480D490D4A00230F
:104E600002E0D458C4500433C4188C42F9D30A4A1F
:104E70000A4C002301E013600432A242FBD323F06A
:104E80009DF8FBF7A5FD70470000082400000024F2
:104E900088010024ACC5020888010024445E002477
:104EA000FEE7000080B500AF00221349134821F04F
:104EB00041FA0346002B01D0FCF724FF10490F48AC
:104EC00021F068FA0346002B01D0FCF71BFF0D49C7
:104ED0000A4821F09FF90346002B01D0FCF712FF8E
:104EE000064821F08DFA0346002B01D0FCF70AFF9B
:104EF00009F0E4F800BF80BD3400002460100024F5
:104F0000AC0000242000002480B500AF0022054939
:104F1000054821F099F90549034821F0B7F9002324
:104F2000184680BD3C1B0024601000243C13002464
:104F300080B400AF00231846BD465DF8047B70477F
:104F400080B483B000AF03463960FB711346BB8069
:104F5000FB79232B4AD801A252F823F0ED4F000829
:104F6000ED4F0008ED4F0008ED4F0008ED4F000831
:104F7000ED4F0008ED4F0008ED4F0008ED4F000821
:104F8000ED4F0008ED4F0008ED4F0008ED4F000811
:104F9000ED4F0008ED4F0008ED4F0008ED4F000801
:104FA000ED4F0008ED4F0008ED4F0008ED4F0008F1
:104FB000ED4F0008ED4F0008ED4F0008ED4F0008E1
:104FC000ED4F0008ED4F0008ED4F0008ED4F0008D1
:104FD000ED4F0008ED4F0008ED4F0008ED4F0008C1
:104FE000ED4F0008ED4F0008ED4F000800BF002313
:104FF00018460C37BD465DF8047B704780B582B01B
:1050000000AF786039607968054821F03FF90448BD
:1050100021F05AF9002318460837BD4680BD00BF6D
:105020006010002480B487B000AFF860B960134608
:10503000FB710023FB7597F9173018461C37BD46E6
:105040005DF8047B7047000080B483B000AF034676
:105050003960FB713B6812221A80034B18460C37EB
:10506000BD465DF8047B70475400002480B483B0D3
:1050700000AF03463960FB713B6804221A80034B82
:1050800018460C37BD465DF8047B70476800002465
:1050900080B582B000AF03463960FB71FB79002B0D
:1050A00005D13A680749084822F084FB04E03A68D1
:1050B0000449054822F07EFB024B18460837BD46DE
:1050C00080BD00BF3C2300245490020880B582B00C
:1050D00000AF03463960FB713A680449044822F086
:1050E00069FB024B18460837BD4680BD3C230024AF
:1050F0006C90020880B582B000AF03463960FB7146
:105100003B681A221A8000F043F8024B1846083711
:10511000BD4680BD6C00002480B582B000AF034660
:105120003960FB71FB79002B05D13A6807490848C3
:1051300022F040FB04E03A680449054822F03AFBBB
:10514000024B18460837BD4680BD00BF3C230024F3
:105150008090020880B582B000AF03463960FB71D1
:10516000FB79002B05D13A680749084822F022FB59
:1051700004E03A680449054822F01CFB024B18463B
:105180000837BD4680BD00BF3C2300248C90020838
:1051900080B584B000AF0F4B1B68FB600E4B1B68E3
:1051A000BB600E4B1B687B60FA687B681344FB6036
:1051B000FB68002B09D008220949F86800F014F8B0
:1051C00004220849B86800F00FF800BF1037BD4648
:1051D00080BD00BF00E8F11F04E8F11F08E8F11FDF
:1051E0006E0000247E00002480B487B000AFF86019
:1051F000B9601346FB710023FB750023FB7527E0A4
:10520000FB681B0F092B0BD8FB681B0FDAB2FB7D69
:105210005B001946BB680B443032D2B21A700AE008
:10522000FB681B0FDAB2FB7D5B001946BB680B44C1
:105230003732D2B21A70FB681B01FB60FB7D5B004A
:105240000133BA68134400221A70FB7D0133FB75E9
:10525000FA7DFB799A42D3D300BF00BF1C37BD460D
:105260005DF8047B7047000080B5BAB000AF78608D
:1052700007F1D40300221A605A609A60DA601A615A
:1052800007F11003C0220021184622F0DDFD7B68E3
:105290001B68344A934261D14FF480224FF00003DF
:1052A000C7E904234FF44013C7F8983007F11003FF
:1052B000184609F0F9FE0346002B01D0FCF722FD49
:1052C00008F0FCFE284BD3F8E030274A43F00103F6
:1052D000C2F8E030244BD3F8E03003F00103FB6068
:1052E000FB684FF4C853C7F8D4300223C7F8D8304E
:1052F0000023C7F8DC300023C7F8E0300A23C7F8E2
:10530000E43007F1D4031946184806F001FC4FF4C5
:105310000073C7F8D4300023C7F8D8300023C7F88B
:10532000DC3007F1D4031946104806F0F1FB0E4BB0
:10533000D3F8D8300C4A43F00063C2F8D8300A4B97
:10534000D3F8D83003F00063BB60BB6800220021B3
:10535000652002F024FC652002F03BFC00BFE8372A
:10536000BD4680BD000008400044025800000258BD
:1053700080B582B000AF78607B68D3F8E0247B68AA
:1053800003F29C431946104621F087F800BF083706
:10539000BD4680BD80B582B000AF78600B46FB7023
:1053A0007B68D3F8E004FA7879681346DB0013448D
:1053B0009B000B4403F518731A68FB78194621F01B
:1053C000C1F800BF0837BD4680BD80B582B000AFD0
:1053D00078600B46FB707B68D3F8E004FA78796854
:1053E0001346DB0013449B000B4420331A68FB7800
:1053F000194621F05AF900BF0837BD4680BD80B577
:1054000082B000AF78607B68D3F8E034184621F0B2
:1054100094FA00BF0837BD4680BD80B584B000AFA8
:1054200078600123FB737B68DB79002B02D10023BA
:10543000FB7308E07B68DB79022B02D10123FB734D
:1054400001E0FCF75FFC7B68D3F8E034FA7B11469F
:10545000184621F02EFA7B68D3F8E034184621F084
:10546000D6F900BF1037BD4680BD000080B582B0C0
:1054700000AF78607B68D3F8E034184621F029FA51
:105480007B681B6803F560631B687A68126802F525
:10549000606243F0010313607B68DB7A002B05D068
:1054A000044B1B69034A43F00603136100BF08372E
:1054B000BD4680BD00ED00E080B582B000AF7860F1
:1054C0007B68D3F8E034184621F01FFA00BF083794
:1054D000BD4680BD80B582B000AF78600B46FB70E2
:1054E0007B68D3F8E034FA781146184621F077FA51
:1054F00000BF0837BD4680BD80B582B000AF786080
:105500000B46FB707B68D3F8E034FA7811461846F6
:1055100021F033FA00BF0837BD4680BD80B582B0A8
:1055200000AF78607B68D3F8E034184621F089FA40
:1055300000BF0837BD4680BD80B582B000AF78603F
:105540007B68D3F8E034184621F086FA00BF0837AC
:10555000BD4680BD80B582B000AF78607B681B78A7
:10556000002B3ED1214A7B68C2F8E0347B681F4A99
:10557000C3F8C8221D4B1E4A1A601C4B09221A711F
:105580001A4B0222DA71194B00229A71174B022230
:105590005A72164B01229A72144B0022DA72134B84
:1055A00000221A73114B01225A73104B01229A7375
:1055B0000E4B0022DA730D4807F0A7FA0346002BC2
:1055C00001D0FCF79FFB8021084808F0FCFC40223A
:1055D0000021064808F0B0FC80220121034808F0B1
:1055E000ABFC002318460837BD4680BD3C2500248F
:1055F0000000084080B584B000AF78600023FB73E2
:105600000023BB737B68D3F8C832184607F089FBC8
:105610000346FB73FB7B184600F042F90346BB735D
:10562000BB7B18461037BD4680BD80B584B000AF47
:105630007860084611461A460346FB700B46BB705D
:1056400013463B800023FB730023BB737B68D3F8B6
:10565000C802BB783A88F97808F08AF80346FB73E9
:10566000FB7B184600F01CF90346BB73BB7B184656
:105670001037BD4680BD80B584B000AF78600B4662
:10568000FB700023FB730023BB737B68D3F8C83225
:10569000FA781146184608F0D3F80346FB73FB7BF3
:1056A000184600F0FDF80346BB73BB7B1846103765
:1056B000BD4680BD80B584B000AF78600B46FB70FE
:1056C0000023FB730023BB737B68D3F8C832FA78DE
:1056D0001146184608F08BF90346FB73FB7B18460E
:1056E00000F0DEF80346BB73BB7B18461037BD469F
:1056F00080BD80B584B000AF78600B46FB7000239E
:10570000FB730023BB737B68D3F8C832FA78114669
:10571000184608F0CFF90346FB73FB7B184600F0F0
:10572000BFF80346BB73BB7B18461037BD4680BD30
:1057300080B485B000AF78600B46FB707B68D3F80F
:10574000C832FB6097F90330002B0BDAFB7803F0CB
:105750007F02F9681346DB0013449B000B441633A9
:105760001B780BE0FB7803F07F02F9681346DB003F
:1057700013449B000B4403F256231B78184614373E
:10578000BD465DF8047B704780B584B000AF78609B
:105790000B46FB700023FB730023BB737B68D3F8BD
:1057A000C832FA781146184607F0BEFF0346FB736D
:1057B000FB7B184600F074F80346BB73BB7B1846AE
:1057C0001037BD4680BD80B586B000AFF8607A6006
:1057D0003B600B46FB720023FB750023BB75FB6827
:1057E000D3F8C802F97A3B687A6808F0C6F803462D
:1057F000FB75FB7D184600F053F80346BB75BB7D77
:1058000018461837BD4680BD80B586B000AFF86039
:105810007A603B600B46FB720023FB750023BB756F
:10582000FB68D3F8C802F97A3B687A6808F052F846
:105830000346FB75FB7D184600F032F80346BB7546
:10584000BB7D18461837BD4680BD80B582B000AF1D
:1058500078600B46FB707B68D3F8C832FA78114643
:10586000184608F072F8034618460837BD4680BD52
:1058700080B483B000AF7860034B18460C37BD4648
:105880005DF8047B704700BF202A002480B483B0F9
:1058900000AF786000BF0C37BD465DF8047B7047F1
:1058A00080B485B000AF0346FB710023FB73FB7926
:1058B000032B17D801A252F823F000BFCD580008DF
:1058C000D3580008D9580008DF5800080023FB739C
:1058D0000BE00323FB7308E00123FB7305E00323C4
:1058E000FB7302E00323FB7300BFFB7B18461437F6
:1058F000BD465DF8047B704780B483B000AF78602C
:1059000039607B68002B0BD03B68DB68002B07D02D
:105910003B689B68002B03D03B681B69002B02D1BE
:105920004FF0FF3314E03B681A687B689A603B686D
:105930005A687B68DA603B68DA687B685A613B6862
:105940009A687B681A613B681A697B689A610023D0
:1059500018460C37BD465DF8047B704780B586B0AD
:1059600000AF78600023FB6000237B6100233B6174
:105970007B685B68002B39D17B689B68002B02D069
:105980007B689B6898477B6820221A6000237B61B4
:105990001CE07B685B6907F10C021221786998476B
:1059A0000346002B03DA6FF004033B610BE0FB6856
:1059B00003F01F037A699A4205D17B687A691A60FD
:1059C00000233B6105E07B6901337B617B691F2B11
:1059D000DFD97B681B681F2B02D96FF002033B6184
:1059E0003B69002B02D17B6801225A603B69184653
:1059F0001837BD4680BD80B584B000AF7860002305
:105A0000FB607B685B697A68106807F10C02012112
:105A100098470346002B02DA6FF004036EE07B68C0
:105A20005B697A68106807F10C0201219847034608
:105A3000002B02DA6FF0040360E0FB6803F004035C
:105A4000002B01D1012359E07B685B697A681068FB
:105A500007F10C02002198470346002B02DA6FF091
:105A600004034BE0FB6803F48053002B1BD1FB685D
:105A700003F40053002B06D0FB6803F48073002B63
:105A800001D002233AE0FB6803F40053002B01D05D
:105A9000032333E0FB6803F48073002B01D004235D
:105AA0002CE005232AE07B685B697A68106807F1BF
:105AB0000C021F2198470346002B02DA6FF0040303
:105AC0001CE0FB6803F48053002B01D1062315E092
:105AD000FB6803F01C03182B01D102230EE0FB68C6
